:020000040800F2
:10000000A0080020C90000082D460008C72D0008E0
:1000100000000000000000000000000000000000E0
:100020000000000000000000000000005948000827
:100030000000000000000000454800085B48000880
:10004000DB00000800000000DB000008DB00000807
:10005000DB000008DB000008DB00000805070008E3
:1000600000000000DB000008DB000008DB000008E7
:10007000DB000008DB000008DB00000800000000D7
:1000800071490008DB00000800000000DB000008E8
:10009000DB000008DB000008DB000008DB000008D4
:1000A000DB000008DB000008DB000008215200082C
:1000B000315200080348854600F062F800480047C6
:1000C00035540008A0080020044880470448004731
:1000D000FEE7FEE7FEE7FEE7FEE7FEE7FD48000875
:1000E000B500000830B50B4601460020202201244F
:1000F00009E00D46D5409D4205D31D469540491B5C
:100100002546954040191546521E002DF1DC30BDA4
:1001100070B500242546002801DA01244042002958
:1001200001DA01254942FFF7DDFFAC4200D0404231
:10013000002C00D0494270BD10B5202A04DB0846CF
:10014000203AD040002110BD0B46D340D04020249F
:10015000A21A91400843194610BDD2B201E00270C4
:10016000401C491EFBD270470022F6E710B513462B
:100170000A4604461946FFF7F0FF204610BD00006E
:10018000064C0125064E05E0E36807CC2B430C3CEA
:1001900098471034B442F7D3FFF790FFDC560008BD
:1001A000FC56000870B504460025206880680421CC
:1001B00008408008002829D020688068084000286E
:1001C0000BD02068806802210840002805D12068F3
:1001D0008068102108432168886001F047FA0546CD
:1001E0000EE001F043FA401B022809D9606C10218F
:1001F00008436064A06C01210843A064012070BD25
:1002000020688068042108400028EAD10020F6E731
:1002100070B504460025206880688007800F01289B
:100220000ED120680068C007C00F002806D12068E2
:10023000C0680121C9030840884201D1012000E0C3
:100240000020002837D02068806805210840012858
:1002500000D100E0002000280AD000BF206880689C
:10026000022108432168886003202168086009E0B2
:10027000606C102108436064A06C01210843A064F5
:10028000012070BD01F0F2F905460EE001F0EEF933
:10029000401B022809D9606C102108436064A06CDF
:1002A00001210843A0640120EBE720688068C007B3
:1002B000C00F0028EAD10020E3E7000038B504466B
:1002C000002500200090206880688007800F0128AA
:1002D0000ED120680068C007C00F002806D1206832
:1002E000C0680121C9030840884201D1012000E013
:1002F0000020002843D12068806822490840002857
:1003000001D1012000E00020002809D1606C1021FB
:1003100008436064A06C01210843A064012038BD3B
:1003200020688068012108432168886016491748C1
:100330000068FFF7D7FE009002E00098401E009092
:1003400000980028F9D101F091F905460EE001F07E
:100350008DF9401B022809D9606C102108436064A4
:10036000A06C01210843A0640120D8E72068006840
:10037000C007C00F0121484048400028E7D00020B6
:10038000CDE700001700008040420F0094000020DD
:100390001FB50446002003902848294908600846F4
:1003A00000F068FC002801D000F0DEF90120C00751
:1003B00023494860002122488160C1600161042115
:1003C000416100218161C16101624162FF21C2314D
:1003D00081620021C162012101630021416300F0BB
:1003E000A9FC002801D000F0BFF90094012000030F
:1003F0000190072002906946114800F077FB002821
:1004000001D000F0B1F90E4800F00EFB0C4800F0EE
:100410001FFE002801D000F0A7F90A21084800F0CB
:10042000A5FD002801D000F09FF9054800F07EFCF2
:1004300080B203906846808904B010BD002401405A
:10044000B800002038B50546CC2014490870E020DB
:100450004870F0208870E820C870002008717D2066
:10046000C00005230A46702100900D4801F0DEF916
:10047000052407E0002D01D0FF2000E000200749FF
:100480000855641C192CF5D37D20C0001923034A9C
:1004900070210090024801F0C9F938BD84040020A1
:1004A00004010020F8B506460D4617467019401D98
:1004B000192801D90120F8BD002404E0395D084A5B
:1004C000601D1154641CAC42F8D37D20C0006B1D2C
:1004D000034A70210090034801F0A8F9EBE70000FF
:1004E000840400200401002070B500250120400292
:1004F00000F0DEF900281BD07C480068002813D1EA
:100500007B480078C007C00F002806D078480068F4
:10051000400840007649086006E0754800684008D9
:100520004000401C7249086001207049086002E0E8
:1005300000206E4908600120C00200F0B9F90028CF
:100540001BD06C480068002813D169480078000669
:10055000C00F002806D0664800688021884364499F
:10056000086006E062480068802188438030604966
:10057000086001205F49086002E000205D490860D2
:10058000FF20013000F094F9002835D05A48006867
:1005900000282DD156480078C006C00F002812D080
:1005A0005348006810218843514908600846006894
:1005B000042188434E4908600846006808218843A2
:1005C0004B49086014E04A48006810218843103005
:1005D000474908600846006804218843001D4449D3
:1005E00008600846006808218843083040490860D0
:1005F00001204149086002E000203F4908603C4872
:100600000078C006C00F002825D1802000F050F9E6
:10061000002807D03648006808218843083034494C
:10062000086005E0324800680821884330490860C6
:10063000402000F03DF9002807D02D480068042133
:100640008843001D2A49086005E029480068042104
:100650008843274908600120800200F029F900281A
:1006600008D023480068FF21013188434018204901
:10067000086006E01E480068FF21013188431C49DC
:1006800008601B4800780006C20F0121C9021B4800
:1006900000F0E5FF16480088C005C20F0221174888
:1006A00000F0DDFF00F07EF97D21C90048430446DB
:1006B000134881682046FFF715FD0D49C86000F01A
:1006C000FFF80B49486100F033F909498860C868B0
:1006D00000F0DEF80649086108460088C004C00F33
:1006E000002800D0002503F03FFF70BD4800002027
:1006F000A8030020580000205400002000040048F7
:10070000E403002010B5402000F098FE10BD00006A
:1007100000B587B000BF1248406901214904084371
:100720000F49486108464069012149040840019089
:1007300000BF00BF0B4803900020049040200290AF
:1007400002A90920C00600F089FE0022022107202C
:1007500001F094FA072001F085FA07B000BD00000F
:10076000001002400000111000BFFEE70020074902
:10077000C861074800690421084305490861084623
:100780000069402108430249086170479800002031
:10079000002002400021084AD1610849096902226B
:1007A0001143064A1161114648610969402211430B
:1007B000024A1161704700009800002000200240AA
:1007C0000022054BDA61054A126901231A43034BE3
:1007D0001A6101807047000098000020002002404C
:1007E00000200F49C96810221140102907D10D4976
:1007F000C969022211430B4AD161102108430849FB
:10080000C96804221140042907D10649C969012297
:100810001143044AD161042108430149C86070476B
:10082000002002409800002070B5044600F01EFF32
:1008300005460BE0601C002808D0002C04D000F016
:1008400015FF401BA04201D9032070BD0F48C068AE
:10085000C007C00F0028EDD10C48C0682021084017
:10086000202801D10949C8600848C0681021084003
:10087000102805D00548C06804210840042803D189
:10088000FFF7AEFF0120E0E70020DEE70020024096
:100890000146002006E04200044B9A5A8A4200D9E1
:1008A00002E0401C0828F6D300BF704790550008AE
:1008B0000146024800680840704700000C00002014
:1008C00070B517480168174802680068401C154B4E
:1008D00018609000144A115018460068102802D37E
:1008E0000020194608600025002404E0A8000E49F5
:1008F000085804196D1C102DF8D324090B496143C5
:1009000008467D21C900FFF7EDFB06467D21C900A1
:10091000FFF7E8FBC408632C00D96324204670BDB0
:1009200004000020380000208002002080FE4400E7
:1009300070B50420FFF72CFD0446164801680068D6
:10094000401C144A1060880013490C50104600687F
:100950000A2802D30020114608600025002404E084
:10096000A8000D49085804196D1C0A2DF8D30A2156
:100970002046FFF7B7FB044601200003011B074890
:10098000FFF7C6FB0649441A204603F051FE044611
:10099000204670BD3000002040030020000071029E
:1009A0001027000070B50720FFF7F2FC044612483C
:1009B00001680068401C104A106088000F490C5004
:1009C00010460068202802D3002011460860002548
:1009D000002404E0A8000949085804196D1C202DC2
:1009E000F8D364090649614308460649FFF77AFBD4
:1009F0000446204670BD000034000020C0020020E4
:100A0000B5020000FF0F000070B5044600F02EFE96
:100A10000546A54201D3281B70BD0248001B4019A2
:100A2000FAE70000FFFF000070B50446002500262D
:100A300000BF4020005D012801D1022070BD0121CE
:100A40004020015500BF206880688007800F012882
:100A50000CD1206800680840002805D12068C068D3
:100A6000C9030840884201D1012000E0002000288D
:100A70002FD1606CFF21013188430221084360645B
:100A800020688068890708432168886000F0EEFDCF
:100A9000064611E000F0EAFD801B02280CD9606CCC
:100AA0000221884310210843606400BF00214020D8
:100AB000015500BF0120C1E720688068C00FC00752
:100AC0000028E7D1606C022188430121084360645B
:100AD00004E0606C202108436064012500BF002110
:100AE0004020015500BF2846A8E70000F8B504469D
:100AF0000D4600260020009001210907A06B8842C6
:100B000015D0A06B012812D0A06B02280FD0A06BCB
:100B100003280CD0A06B042809D0A06B052806D0B0
:100B2000A06B062803D0A06B072800D000BF00BF31
:100B30004020005D012801D10220F8BD01214020A4
:100B4000015500BF20688068042108408008002803
:100B50007BD14449686888425BD02068806A2A78E3
:100B60000121914008432168886201210907A06B97
:100B7000884229D0A06B012826D0A06B022823D060
:100B8000A06B032820D0A06B04281DD0A06B0528E3
:100B90001AD0A06B062817D0A06B072814D0A8681D
:100BA000216849694907490F88420DD0206840698A
:100BB000C008C0002168486120684069297A490757
:100BC000490F0843216848612868102802D0286826
:100BD00011283FD1244880682968102901D1C9040F
:100BE00001E00121890508431F4988602868102811
:100BF00030D11E491E480068FFF774FA0A214843A5
:100C0000009002E00098401E009000980028F9D162
:100C100020E02068806A2A78012191408843216879
:100C200088622868102802D02868112812D10E483E
:100C300080682968102902D1C90402E005E0012179
:100C4000890588430849886004E0606C20210843D6
:100C50006064012600BF00214020015500BF3046DE
:100C60006BE70000011000000027014040420F0028
:100C70009400002070B504460025002C01D101200D
:100C800070BD606C0221084360642046FFF78AFA59
:100C90000546002D07D12046FFF7BAFA0546012D7B
:100CA00001D001206064012D33D0206840689F216D
:100CB0008843216848609F20216808602068C068D8
:100CC000174908402168C8602068006980008008D2
:100CD0002168086120684069C008C0002168486137
:100CE0002068006A0F490840216808622068806A0D
:100CF000C00CC004216888620B4880680321890504
:100D0000884309498860204600F0F4F80020A06478
:100D1000606400BF00214020015500BF2846AFE7B6
:100D200000023E8300F000F0002701400146086801
:100D3000006C704770B5044600260025002C01D1D8
:100D4000012070BD606C002806D1A0640021402005
:100D50000155204600F0E4F8606C1021084000289E
:100D60007ED1002EFCD120688068042108408008D4
:100D70000028F5D1606C8901884302210843606432
:100D8000206880688007800F01280DD120680068E6
:100D9000C007C00F002805D12068C068890308403B
:100DA000884201D1012000E0002000280FD12068F6
:100DB000C06818218843A16808432168C86020687A
:100DC0000069800080086168084321680861206824
:100DD000C068464908402168C860A0698003E1698D
:100DE000C9030843216A49030843616B012902D002
:100DF0000121090300E000210843E168084321695B
:100E0000022901D1042100E000210843216B49009F
:100E100008430543606A01280ED1206A002803D1E7
:100E200001200004054307E0606C20210843606452
:100E3000A06C01210843A064FF21C231A06A88424E
:100E400003D0E16AA06A084305432068C0682843CC
:100E50002168C86001210907A06B884216D000E014
:100E60003DE0A06B012811D0A06B02280ED0A06B32
:100E700003280BD0A06B042808D0A06B052805D050
:100E8000A06B062802D0A06B07280DD1206840690E
:100E9000C008C0002168486120684069218F490767
:100EA000490F0843216848612068C068104908401C
:100EB000A84208D10020A064606C0221884301216F
:100EC0000843606410E0606C0221884310210843ED
:100ED0006064A06C01210843A064012604E0606CFA
:100EE000102108436064012630462AE71902FEFFFC
:100EF000E7FF3F8310B5044607492068884209D1BF
:100F00000648806949158843044988619021C805CD
:100F100000F0E8F910BD000000240140001002407C
:100F200010B586B004460F492068884218D100BF2A
:100F30000D488069491508430B4988610846806956
:100F400049150840009000BF00BF90200190032089
:100F500002900020039001A90920C00600F07EFA4B
:100F600006B010BD0024014000100240F8B5044650
:100F70000D466069082801D1082711E02068C06883
:100F8000C007C00F00280AD0606C202108436064AD
:100F900000BF00214020015500BF0120F8BD0C27F3
:100FA00000F064FB064614E0681C002811D0002DF8
:100FB00004D000F05BFB801BA8420AD9606C0421BE
:100FC0000843606400BF00214020015500BF03209A
:100FD000E4E72068006838400028E5D0606C012113
:100FE0004902084360642068C06803218902084000
:100FF000002825D1206A002822D120680068082115
:10100000084008281CD12068806804210840800816
:1010100000280DD1206840680C2188432168486071
:10102000606CFF210131884301210843606407E0BF
:10103000606C202108436064A06C01210843A06417
:10104000A069002802D10C20216808600020A5E7D3
:1010500070B5044600252068806804210840800897
:1010600000282BD100BF4020005D012801D10220C3
:1010700070BD01214020015500BFE069012803D067
:101080002046FFF71BF90546002D18D1606C0D496D
:101090000840FF210131084360640020A06400BFC4
:1010A00000214020015500BF1C20216808602068F5
:1010B0008068042108432168886000E002252846F2
:1010C000D6E70000FEF1FFFF70B5044600252120A1
:1010D000005D022803D00420A06301251EE02068E3
:1010E00000680E2188432168086020680068400875
:1010F0004000216808600120216C8840E16B486055
:1011000001212120015500BF00212020015500BFF1
:10111000606B002802D02046616B8847284670BD6E
:1011200031B5002400F0A2FA044600BF00F09EFA98
:10113000001B00998842F9D338BD0000F8B5044679
:101140000E460127002500BF2448007E012801D15A
:101150000220F8BD01202149087600BF206801283F
:1011600011D11F48FFF760FB002830D1FFF7FEFACE
:101170001B48FFF759FB07461A48006904218843BA
:101180001849086123E01648FFF74EFB00281ED1DE
:10119000401E3060656813E02846FFF7FBFA1048F0
:1011A000FFF742FB07460F480069022188430D49BB
:1011B0000861002F01D0356008E0012080022D1861
:1011C000A068800261684018A842E5D800BF00BF4F
:1011D00000200249087600BF3846BAE79800002090
:1011E00050C30000002002400348006980210843EA
:1011F000014908610020704700200240F0B51FB48B
:1012000086B0074615461E460120039000240020A4
:10121000029000BF2548007E012802D102200BB0B9
:10122000F0BD01202149087600BF2148FFF7FCFAF4
:1012300003900398002831D1012F02D101200290A0
:1012400006E0022F02D10220029001E00420029069
:1012500000241FE022012846314604960595FEF73A
:101260006BFF80B261000190079808180090019907
:10127000FFF7A6FA0E48FFF7D7FA03900D4800696A
:10128000400840000B4908610398002800D004E0A2
:10129000601CC4B202988442DCDB00BF00BF0020A7
:1012A0000249087600BF0398B9E7000098000020C3
:1012B00050C3000000200240074800698021084018
:1012C000002805D00548044948600548486001E009
:1012D000012070470020FCE7002002402301674501
:1012E000AB89EFCDF0B502460B460020002100246B
:1012F0006FE0012585401D402946002968D015680A
:1013000047000326BE40B5431560C508AE0015462C
:101310002035AD594607F70E0F26BE40B543C60827
:10132000B60017462037BD51956847000326BE40DA
:10133000B5439560556801268640B5435560D5682C
:1013400047000326BE40B543D560244D8608B6004D
:10135000AC5985072E0F0F25B5402C400925ED0609
:10136000AA4201D100250FE01D4DAA4201D101255D
:101370000AE01C4DAA4201D1022505E01A4DAA42FD
:1013800001D1032500E005258607360FB540A542AB
:101390001ED185072E0F0F25B5402C460F4D860810
:1013A000B600AD59A5430D4E8708BF00F5510F4D4E
:1013B0002D688D430D4E356035466D688D437560E3
:1013C0003546AD688D43B5603546ED688D43F560B3
:1013D000401C1D46C540002D8BD1F0BD08000140CA
:1013E0000004004800080048000C004800040140C8
:1013F00070B50646402E1BD100F038F904460D4862
:101400000068844203D30B480068251A05E00948A8
:1014100000680021C943081A051906480460032D15
:1014200006D929467D20C000FEF75CFE024908600F
:1014300070BD0000080000200400002010B5044624
:10144000054840692040002804D0034844612046F4
:10145000FFF7CEFF10BD00000004014078B5034641
:10146000002200240020DEE0012696400D68354071
:101470002C46002C7ED04D68022D02D04D68122DD6
:1014800015D1D508AE001D462035A8595507EE0EDA
:101490000F25B5400646AE4330465607F60E0D6999
:1014A000B5402843D508AD001E4620367051186857
:1014B00056000325B5400646AE4330460D79AD07CC
:1014C000AD0F5600B540284318604D68012D08D077
:1014D0004D68022D05D04D68112D02D04D68122D9A
:1014E00018D1986856000325B5400646AE433046ED
:1014F0005600CD68B540284398605868012595404E
:101500000646AE43304610264D6835402D099540BD
:1015100028435860D86856000325B5400646AE43B8
:10152000304656008D68B5402843D86001263607FE
:101530004D683540B54275D100BF3E4DAD690126BD
:1015400035433C4EB5613546AD69ED07ED0F00956D
:1015500000BF00BF384D9608B600A85995072E0F5A
:101560000F25B5400646AE4330460925ED06AB4291
:1015700003D100E056E000250FE0304DAB4201D131
:1015800001250AE02E4DAB4201D1022505E02D4D8B
:10159000AB4201D1032500E005259607360FB54083
:1015A0002843254D9608B600A851274D28680546C2
:1015B000A5432846012636044D683540B54202D180
:1015C000054625432846204D286068680546A54302
:1015D0002846012676044D683540B54202D10546BD
:1015E00025432846184D6860A8680546A543284647
:1015F000012636054D683540B54202D105462543E2
:101600002846114DA860E8680546A54328460126EE
:1016100076054D683540B54202D10546254328463A
:10162000094DE860521C0D68D540002D00D01BE725
:1016300078BD00000010024008000140000400488E
:1016400000080048000C00480004014002461369ED
:101650000B40002B01D0012000E000207047002A41
:1016600001D0816100E0816270470000014800689C
:10167000704700000000002002464120805C2028C6
:101680002FD100BF4020805C012801D1022070478B
:1016900001234020835400BF242341208354106839
:1016A0000068400840001368186010680068012353
:1016B0001B03984313681860106800680843136898
:1016C000186010680068012318431368186020230D
:1016D0004120835400BF00234020835400BF0020DA
:1016E000D5E70220D3E710B502460B460021412082
:1016F000805C20282ED100BF4020805C012801D1D1
:10170000022010BD01244020845400BF2424412025
:101710008454106800684008400014682060106815
:1017200001680F2424020846A04301461802014321
:10173000106801601068006801242043146820606C
:1017400020244120845400BF00244020845400BF42
:101750000020D6E70220D4E710B50446002C01D1C2
:10176000012010BD4120005D002805D1002140204E
:101770000155204600F0FAF9242141200155206846
:10178000006840084000216808600F210906606871
:10179000884321680861206880680121C903884363
:1017A00021688860E068012806D10121C903A0688A
:1017B00008432168886005E021218902A068084368
:1017C00021688860E068022802D1800221684860B0
:1017D0002068406814490843216848602068C06850
:1017E0000121C90388432168C860616920690843F1
:1017F000A169090208432168C860216AE0690843B9
:101800002168086020680068012108432168086099
:101810000020606420214120015500202063002128
:101820004220015500209CE700800002FFB581B0F6
:10183000044616461F4600254120005D20287CD125
:1018400000BF4020005D012802D1022005B0F0BD9C
:1018500001214020015500BFFFF708FF054619236D
:101860000122D1032046009501F074FB002801D02D
:101870000320EBE721214120015510214220015591
:1018800000206064666267856063608DFF280BD905
:10189000FF20208548020090208DC2B20B05204613
:1018A000029901F03FFB0CE0608D20850120400390
:1018B0000090208DC2B201235B062046029901F000
:1018C00031FB47E02A4620460A9901F099FB00289F
:1018D00006D0606C042801D10120B7E70320B5E7EA
:1018E000616A481C6062087821688862608D401EC9
:1018F0006085208D401E2085208D00282AD1608D96
:10190000002827D000950022802120460A9B01F064
:1019100021FB002801D0032098E7608DFF280DD916
:10192000FF20208500200090208DC2B201231B06DD
:101930002046029901F0F6FA0CE031E0608D208536
:1019400000200090208DC2B201235B062046029940
:1019500001F0E8FA608D0028B4D12A4620460A99A1
:1019600001F021FB002806D0606C042801D1012081
:101970006CE703206AE720202168C861206840687E
:101980000849084021684860202141200155002174
:101990004220015500BF4020015500BF002055E7FF
:1019A000022053E700E800FEFFB583B004460C9F19
:1019B0000E9E00254120005D202871D1002F02D00D
:1019C0000D98002802D1012007B0F0BD00BF4020D3
:1019D000005D012801D10220F6E7012140200155D8
:1019E00000BFFFF743FE054619230122D10320461D
:1019F000009501F0AFFA002801D00320E4E722218E
:101A00004120015540214220015500206064676259
:101A10000D9860850020606300960195204604A91A
:101A20000EC901F035FA002810D0606C042806D1E8
:101A300000BF00214020015500BF0120C4E700BFC6
:101A400000214020015500BF0320BDE7608DFF2825
:101A50000DD9FF202085092080020090208DC2B280
:101A600001231B062046049901F05CFA0CE0608D0E
:101A70002085092080020090208DC2B201235B06E0
:101A80002046049901F04EFA00BF3346002204219B
:101A90002046009501F05EFA002802D0032093E76B
:101AA0005FE02068406AC1B2626A501C60621170D7
:101AB000208D401E2085608D401E6085208D002871
:101AC00029D1608D002826D033460022802120466F
:101AD000009501F03FFA002801D0032074E7608DE3
:101AE000FF280CD9FF20208500200090208DC2B255
:101AF00001231B062046049901F014FA0BE0608DC7
:101B0000208500200090208DC2B201235B06204674
:101B1000049901F007FA608D0028B6D12A463146B3
:101B2000204601F040FA002806D0606C042801D15C
:101B3000012049E7032047E720202168C861206889
:101B4000406809490840216848602021412001552A
:101B500000214220015500BF4020015500BF002058
:101B600032E7022030E7000000E800FE10B586B042
:101B700004461249206888421DD1C02001901220DD
:101B8000029001200390032004900120059001A9F8
:101B90000B48FFF763FC00BF0A48C06901214905F3
:101BA00008430849C8610846C06901214905084041
:101BB000009000BF00BF06B010BD00000054004000
:101BC000000400480010024002480068401C01491F
:101BD000086070470000002010B50648006810211A
:101BE000084304490860002000F006F800F018F8E7
:101BF000002010BD0020024070B5044600F0BAF984
:101C000006467D21C900FEF76DFA054600F0E6FCA8
:101C100000222146501E00F031F8002070BD000067
:101C200008B500BF0E488069012108430C4988614E
:101C300008468069C007C00F009000BF00BF0022A7
:101C40001146501F00F01AF800221146901E00F0B5
:101C500015F800221146501E00F010F808BD0000D3
:101C60000010024000BFC206D20E01219140024A7C
:101C7000116000BF7047000000E100E070B504464D
:101C80000D4616462946204602F018FD70BD00009C
:101C9000F8B5044600260025012109042068084003
:101CA00088427AD100274B48C069090308400028C0
:101CB0000DD100BF4748C06908434649C86108467E
:101CC000C06909040840009000BF00BF01274248D6
:101CD0000068FF2101310840002816D13E48006805
:101CE00008433D490860FFF7C1FC064606E0FFF7E0
:101CF000BDFC801B642801D90320F8BD364800686C
:101D0000FF21013108400028F1D03248006A032148
:101D1000090208400546002D2DD060680840A84201
:101D200029D02C48006A884305462A48006A0121C8
:101D300009040843274908620846006A012109048A
:101D400088432449086208460562E807C00F002856
:101D500011D0FFF78BFC064607E0FFF787FC801BDE
:101D60001E49884201D90320C7E71A48006A0221A8
:101D700008400028F1D01748006A0321090288436F
:101D80006168084313490862012F05D10846C069FC
:101D9000090488430F49C86100BF2078C007C00FFD
:101DA000002807D00B48006B80088000A16808431A
:101DB00008490863202120680840202807D10548E9
:101DC000006B10218843E168084302490863002042
:101DD00093E70000001002400070004088130000EC
:101DE00070B504460D4600265D480068C007C00F68
:101DF000A8420ED25A48006840084000284358497B
:101E0000086008460068C007C00FA84201D0012042
:101E100070BD022120680840022807D1514840685F
:101E2000F0218843A16808434E4948602078C007E4
:101E3000C00F00285FD06068012808D149480068B9
:101E4000012149040840002815D10120E0E760681D
:101E5000022808D1434800680121490608400028AB
:101E600009D10120D4E73F4800680221084000283A
:101E700001D10120CCE73B484068800880006168C0
:101E8000084338494860FFF7F1FB064660680128BF
:101E90000FD107E0FFF7EAFB801B3349884201D9E5
:101EA0000320B5E72F4840680C2108400428F1D1F1
:101EB00021E0606802280FD107E0FFF7D7FB801B05
:101EC0002949884201D90320A2E7264840680C210D
:101ED00008400828F1D10EE007E0FFF7C7FB801BA0
:101EE0002149884201D9032092E71E4840680C210D
:101EF00008400028F1D11A480068C007C00FA84266
:101F00000ED917480068400840002843144908606B
:101F100008460068C007C00FA84201D0012077E73B
:101F2000042120680840042808D10E484068072191
:101F300009028843E16808430A49486000F032F822
:101F400008494968F02211400909084A515CC84013
:101F5000074908600020FFF74FFE002058E7000007
:101F6000002002400010024088130000C456000800
:101F70009400002001480068704700009400002091
:101F800000B5FFF7F7FF0549496807221202114023
:101F9000090A034A515CC84000BD0000001002401D
:101FA000D4560008F0B589B024A001460EC9C06817
:101FB00005AC0EC4089025A001460EC9C06801AC4E
:101FC0000EC4049000240027002500260020009065
:101FD000224844680C202040002827D0042802D042
:101FE000082822D102E01E48009022E00F20800441
:101FF0002040800C05A90E5C1848C06A0007000F3D
:1020000001A90F5C0120000420400121090488423D
:1020100006D139461248FEF765F87043054602E0DE
:10202000104835464543009503E000BF0C4800903A
:1020300000BF00BF009809B0F0BD00000203040516
:10204000060708090A0B0C0D0E0F101001020304FD
:1020500005060708090A0B0C0D0E0F1000100240B0
:1020600000127A0000093D00F8B5044600252078EA
:10207000C007C00F002871D0F94840680C21084003
:1020800004280BD0F64840680840082812D1F448CC
:10209000406801210904084088420BD1F0480068DB
:1020A00001214904084000286BD06068002868D1ED
:1020B0000120F8BD00BF6068012807D1E84800682A
:1020C000012109040843E649086031E060680028FE
:1020D0000ED1E3480068012109048843E049086003
:1020E00008460068012189048843DD4908601FE033
:1020F000606805280ED1DA48006801218904084388
:10210000D749086008460068012109040843D449FA
:1021100008600DE0D2480068012109048843D049D5
:10212000086008460068012189048843CC4908609A
:1021300000BF6068002812D0FFF798FA054606E055
:10214000FFF794FA401B642801D90320B1E7C44883
:1021500000680121490408400028F1D011E0FFF790
:1021600085FA054606E0FFF781FA401B642801D98D
:1021700003209EE7BA48006801214904084000286E
:10218000F1D1022120680840022861D1B44840689A
:102190000C21084000280BD0B148406808400828AE
:1021A0001BD1AF484068012109040840002814D120
:1021B000AB48006802210840002804D0E0680128EC
:1021C00001D0012075E7A6480068F82188432169FD
:1021D000C9000843A24908603AE0E068002820D01E
:1021E0009F480068012108439D490860FFF73EFAB7
:1021F000054606E0FFF73AFA401B022801D9032002
:1022000057E797480068022108400028F2D0944818
:102210000068F82188432169C90008439049086093
:1022200016E08F480068400840008D490860FFF7BD
:102230001DFA054606E0FFF719FA401B022801D9EE
:10224000032036E786480068022108400028F2D1C2
:10225000082120680840082831D1E069002817D0FB
:102260007F48406A012108437D494862FFF7FEF933
:10227000054606E0FFF7FAF9401B022801D90320C2
:1022800017E77748406A022108400028F2D016E09C
:102290007348406A4008400071494862FFF7E6F918
:1022A000054606E0FFF7E2F9401B022801D90320AA
:1022B000FFE66B48406A022108400028F2D1042161
:1022C00020680840042871D100266548C069890645
:1022D000084000280DD100BF6148C069084360492B
:1022E000C8610846C06909040840009000BF00BFEB
:1022F00001265C480068FF2101310840002816D102
:1023000058480068084357490860FFF7AFF9054689
:1023100006E0FFF7ABF9401B642801D90320C8E6AB
:1023200050480068FF21013108400028F1D000BF6B
:10233000A068012806D14A48006A0121084348499B
:1023400008622BE0A06800280CD14548006A4008CC
:102350004000434908620846006A04218843404916
:1023600008621BE0A06805280CD13D48006A0421E2
:1023700008433B4908620846006A0121084338497E
:1023800008620BE03648006A4008400034490862A1
:102390000846006A042188433149086200BFA068EA
:1023A000002813D0FFF762F9054608E029E0FFF79F
:1023B0005DF9401B2C49884201D9032079E6284861
:1023C000006A022108400028F1D011E0FFF74EF921
:1023D000054607E0FFF74AF9401B2349884201D927
:1023E000032066E61E48006A022108400028F1D159
:1023F000012E05D11A48C069310788431849C861C0
:1024000000BF10212068084010285FD160690128B2
:102410002CD11348406B04210843114948630846F6
:10242000406B012108430E494863FFF71FF9054639
:1024300006E0FFF71BF9401B022801D9032038E60C
:102440000748406B022108400028F2D00448406B46
:10245000F8218843A169C90008430149486335E070
:102460000010024000700040881300006069401DA9
:1024700000280FD14E48406B042188434C494863E3
:102480000846406BF8218843A169C90008434849C0
:1024900048631BE04648406B0421084344494863B5
:1024A0000846406B400840004863FFF7DFF80546E8
:1024B00006E0FFF7DBF8401B022801D90320F8E50E
:1024C0003B48406B022108400028F2D1206A0028D6
:1024D0006CD0374840680C210840082864D0206A36
:1024E000022847D132480068012109068843304953
:1024F0000860FFF7BBF8054606E0FFF7B7F8401B9A
:10250000022801D90320D4E52948006801214906A1
:1025100008400028F1D100BF2548C06A0009000129
:10252000E16A08432249C862616AA06A08432049F7
:1025300049683D221204914308431D49486000BF89
:102540000846006801210906084319490860FFF799
:102550008DF8054606E0FFF789F8401B022801D9EF
:102560000320A6E51248006801214906084000281A
:10257000F1D01BE00E4800680121090688430C4990
:102580000860FFF773F8054606E0FFF76FF8401B99
:10259000022801D903208CE505480068012149067D
:1025A00008400028F1D101E0012082E5002080E50B
:1025B00000100240042806D106490969042211438B
:1025C000044A116105E00349096904229143014A63
:1025D0001161704700E000E07047000070B50446EC
:1025E0002546681E0949884201D901200CE0681E71
:1025F000074948610321081F02F060F800200449E0
:10260000886107200861002070BD0000FFFFFF0007
:1026100000E000E010B5FFF7DFFF10BD7047704726
:10262000704710B504462068006902210840400840
:1026300000281CD02068C06808404008002816D038
:10264000481F216808610120207720688069800781
:10265000800F002803D02046FFF7E2FF05E0204668
:1026600000F0C3F8204600F0C1F800202077206871
:10267000006904210840800800281DD02068C06837
:1026800008408008002817D0C8432168086102204C
:10269000207720688069032109020840002803D0C0
:1026A0002046FFF7BDFF05E0204600F09EF82046DB
:1026B00000F09CF80020207720680069082108407D
:1026C000C00800281CD02068C0680840C008002846
:1026D00016D0C84321680861042020772068C069AB
:1026E0008007800F002803D02046FFF799FF05E000
:1026F000204600F07AF8204600F078F80020207795
:102700002068006910210840000900281DD02068B9
:10271000C06808400009002817D0C8432168086134
:10272000082020772068C06903210902084000289A
:1027300003D02046FFF774FF05E0204600F055F86F
:10274000204600F053F80020207720680069C00779
:10275000C00F01214840484000280CD02068C068C4
:10276000084048404840002805D0C81E216808613C
:10277000204600F03CF82068006980210840C0092C
:1027800000280BD02068C0680840C009002805D088
:10279000C843216808612046FFF740FF20680069B0
:1027A00040210840800900280BD02068C0680840FC
:1027B0008009002805D0C84321680861204600F040
:1027C00017F82068006920210840400900280BD034
:1027D0002068C06808404009002805D0C843216827
:1027E00008612046FFF71BFF10BD70477047704718
:1027F000704710B50446002C01D1012010BD2421E2
:102800006920015520680068400840002168086080
:10281000002021680860216848602168886020469F
:1028200000F03EF90020E0660021692001556A2091
:10283000015500BF6820015500BF0020DEE7000001
:1028400010B504460C48844208D120220B4920468A
:1028500000F0B6F900280DD0FDF786FF0848844245
:1028600008D120220749204600F0AAF9002801D00B
:10287000FDF77AFF10BD0000A001002068030020D2
:102880001002002088030020F8B504462068C569BE
:10289000206806682807000F0090009800280BD1D8
:1028A00020202840002807D020203040002803D0D6
:1028B000204602F009FBF8BD2068876800980028D0
:1028C0007ED0F807C00F002804D1FF20213030400F
:1028D0000028F5D0E807C00F00280BD0FF200130FA
:1028E0003040002806D0012021680862E06E0121F6
:1028F0000843E0660220284000280AD0F807C00FED
:10290000002806D0022021680862E06E04210843F6
:10291000E0660420284000280AD0F807C00F0028ED
:1029200006D0042021680862E06E02210843E066B8
:102930000820284000280ED020203040002803D155
:10294000F807C00F002806D0082021680862E06E52
:1029500008210843E066E06E002841D0202028408E
:10296000002806D020203040002802D0204602F067
:10297000ABFAE06E08210840002805D12068806885
:1029800040210840002826D0204602F07CFA20682A
:10299000806840210840002819D02068806888435A
:1029A00021688860606E00280DD01B48616E486306
:1029B000606EFEF789FB002812D0606E416B00E06C
:1029C0000FE088470CE02046FFF73AFF08E020467A
:1029D000FFF736FF04E02046FFF732FF0020E066F5
:1029E00069E780202840002807D080203040002858
:1029F00003D0204602F0A2FB5DE7402028400028DB
:102A000007D040203040002803D0204602F04CFA86
:102A100051E700BF4FE700006F4E000810B50446B5
:102A2000002C01D1012010BDA069002800D000E0D9
:102A300000BF6920005D002805D1002168200155F4
:102A4000204600F059F824216920015520680068CB
:102A50004008400021680860204602F07DFA012805
:102A600000D1E0E7606A002802D0204602F078F941
:102A7000206840680121C9028843216848602068B5
:102A800080680821884321688860206800680121E7
:102A9000084321680860204602F0DAF9C3E7000025
:102AA00010B504461149206888420DD1104880694C
:102AB0000121890388430E498861032149020920C5
:102AC000C006FEF70FFC0FE00A49206888420BD1D0
:102AD0000748C0690121490488430549C8610C21A0
:102AE0000920C006FEF7FEFB10BD000000380140C3
:102AF000001002400044004010B586B004462D4945
:102B00002068884228D100BF2B48806901218903B1
:102B100008432949886108468069012189030840E2
:102B2000009000BF00BF03204002019002200290ED
:102B300001200390032004900120059001A90920A1
:102B4000C006FEF78BFC012200211B20FFF796F840
:102B50001B20FFF787F82AE018492068884226D111
:102B600000BF1548C0690121490408431249C861E2
:102B70000846C069012149040840009000BF00BF19
:102B80000C20019002200290012003900320049069
:102B90000120059001A90920C006FEF75FFC012273
:102BA00000211C20FFF76AF81C20FFF75BF806B035
:102BB00010BD0000003801400010024000440040F9
:102BC00010B503466A20C05C20285AD1002901D0E4
:102BD000002A01D1012010BD012424039868A042DD
:102BE00008D11869002805D1C807C00F002801D0F6
:102BF0000120F0E700BF6820C05C012801D102205D
:102C0000E9E701246820C45400BF59655820C25226
:102C10005A20C25200BF24039868A0420AD1186902
:102C2000002803D1184C5C20C45210E0FF245C2023
:102C3000C4520CE09868002809D11869002803D113
:102C4000FF245C20C45202E07F245C20C45200BFF9
:102C50000020D86622246A20C45400BF00246820C3
:102C6000C45400BF18688068012420431C68A06019
:102C700018680068FF24213420431C68206000206D
:102C8000A9E70220A7E70000FF01000010B50446F5
:102C90000C48844208D120220B492046FFF790FFC0
:102CA00000280DD0FDF760FD0848844208D120229D
:102CB00007492046FFF784FF002801D0FDF754FDA7
:102CC00010BD0000A00100206803002010020020B9
:102CD00088030020FEB504460D4616461F46002018
:102CE00001906920005D20286AD1002D01D0002EBE
:102CF00001D10120FEBD01210903A068884208D14D
:102D00002069002805D1E807C00F002801D0012064
:102D1000F0E700BF6820005D012801D10220E9E74B
:102D200001216820015500BF0020E06621216920B3
:102D30000155FEF79BFC019050200653522006538C
:102D400025E05220005B401E81B2522001530097C3
:102D5000002280212046019B02F029FA002801D0A0
:102D60000320C7E701210903A06888420BD120692D
:102D7000002808D10295029D2888C005C00D216851
:102D80000885AD1C03E028786D1C21680885522059
:102D9000005B0028D5DC0097002240212046019BE3
:102DA00002F005FA002801D00320A3E720216920C2
:102DB000015500BF00216820015500BF002099E7A0
:102DC000022097E7704700BFFEE701688969022289
:102DD00011404908002902D000210268916201686F
:102DE0008969C907C90F012251405140002904D106
:102DF00001688969114302689161704770B50446A2
:102E00000D461646206880691021084000090028F8
:102E10003AD015E0681C002812D0002D04D0FEF72F
:102E200025FC801BA8420BD92021412001550021FF
:102E30004220015500BF4020015500BF032070BD56
:102E4000206880692021084040090028E2D0102035
:102E50002168C86120202168C8612046FFF7B5FFBE
:102E6000206840680949084021684860042060647F
:102E700020214120015500214220015500BF402062
:102E8000015500BF0120DAE70020D8E700E800FE86
:102E9000FFB581B0044615461E460A9F0120400337
:102EA000F2B2002300902046029900F03BF8394628
:102EB00020460B9A00F0A4F8002807D0606C042884
:102EC00002D1012005B0F0BD0320FBE7012E03D1A4
:102ED000E8B22168886216E0FF2000022840001254
:102EE00021688862394620460B9A00F089F800284C
:102EF00006D0606C042801D10120E3E70320E1E75C
:102F0000E8B2216888620B983B460022402100907D
:102F1000204600F01FF8002801D00320D2E700204F
:102F2000D0E70000F0B50C46002105686968084D3F
:102F30002940A505AD0D1604FF273F043E4035434B
:102F40001D43059E3543294305686960F0BD0000B7
:102F5000009800FCF8B504460E4617461D4616E0DC
:102F6000681C002813D0002D05D0FEF77FFB0699C2
:102F7000401AA8420BD920214120015500214220AE
:102F8000015500BF4020015500BF0320F8BD206857
:102F900080693040B04201D1012000E00020B842F9
:102FA000DED00020F2E770B504460D4616461EE05E
:102FB000324629462046FFF721FF002801D0012094
:102FC00070BD002D04D0FEF751FB801BA8420ED926
:102FD000606C20210843606441200155002142209B
:102FE000015500BF4020015500BF0320E8E72068DD
:102FF00080692021084040090028D9D00020DFE75F
:1030000070B504460D46164621E032462946204654
:10301000FFF7F4FE002801D0012070BD681C0028D5
:1030200015D0002D04D0FEF721FB801BA8420ED93D
:10303000606C20210843606441200155002142203A
:10304000015500BF4020015500BF0320E5E720687F
:1030500080690221084040080028D6D00020DCE723
:1030600070B5314E002406E0A000304940180068D9
:10307000A1007050641C282CF6D30025002403E026
:10308000A00030584519641C272CF9D32648007835
:10309000622810D12448407869280CD122488078D1
:1030A0006B2808D12048C078652804D11E4880309C
:1030B000C069A84209D07D20C0001B498860C86053
:1030C000086100204861012088613C2200211848E5
:1030D000FDF743F8144840691549886108460068BF
:1030E0000121090388434018114908600846006A15
:1030F000012108430E4908620B488069486208466E
:1031000000680121C904884309490860084600682D
:10311000012189048843064908603020024948603B
:1031200004480549086070BDE403002000FC000865
:10313000A8030020905500082400002010B50024AA
:1031400000F0E6F8012149034C48FEF77FFA002819
:1031500001D1012000E000200443012189034748F8
:10316000FEF774FA002801D1022000E00020044399
:103170000121C9034148FEF769FA002801D1042062
:1031800000E00020044301213D48FEF75FFA0028DB
:1031900001D1082000E00020044302213848FEF756
:1031A00055FA002801D1102000E00020044301213D
:1031B000C9030920C006FEF749FA002801D14020C2
:1031C00000E00020044308212E48FEF73FFA0028C3
:1031D00001D1802000E000200443FF210131294873
:1031E000FEF734FA002802D1FF20013000E0002071
:1031F0000443012149022348FEF728FA002802D19E
:103200000120400200E00020044310211D48FEF789
:103210001DFA002802D10120800200E000200443B2
:1032200001210920C006FEF711FA002802D1012071
:10323000C00200E00020044302210920C006FEF77E
:1032400005FA002802D10120000300E00020044319
:103250000D48006884420AD10C4801680068401C8F
:103260000A4A10600A2905D30948046002E00020D8
:10327000064908600448046010BD000000080048CA
:103280000014004800040048280000202C00002002
:103290000C0000200EB51C481C4908600020486046
:1032A00000211A488160C16001210161042141614E
:1032B00000218161C16101624162FF21C2318162ED
:1032C0000021C162016301214163FDF733FD002844
:1032D00001D0FDF749FA04200090800201900720F8
:1032E000029069460948FDF701FC002801D0FDF76E
:1032F0003BFA0720009069460448FDF7F7FB0028D9
:1033000001D0FDF731FA0EBD00240140B8000020C5
:1033100000B587B000BF384840690121C90408439F
:1033200035494861084640690121C90408400190B7
:1033300000BF00BF00BF30484069C90008432E49A4
:10334000486108464069012189050840019000BF95
:1033500000BF00BF28484069491108432649486119
:1033600008464069012149040840019000BF00BFA0
:1033700000BF21484069490008431F494861084689
:103380004069012189040840019000BF00BF072067
:103390004003029000200390049002A91748FEF712
:1033A0005DF80320029000200390049002A91448C5
:1033B000FEF754F81348029000200390049002A9ED
:1033C0000920C006FEF74AF86320C00002900020E2
:1033D0000390049002A90C48FEF740F80B480290B5
:1033E0000120039000200490059002A90648FEF7F2
:1033F00035F807B000BD000000100240000800488A
:10340000001400480380000000040048070C00007E
:1034100010B513481349086013484860002111484B
:1034200081600121C1600021016141618161C1614F
:103430000162FEF791F9002801D0FDF795F900210E
:103440000848FEF719F9002801D0FDF78DF9002191
:103450000448FEF748F9002801D0FDF785F910BDB2
:1034600000540040040100200E09002010B5164849
:1034700016490860E120400248600021134881603D
:10348000C16001610C21416100218161C161016262
:1034900000200E4948620846FFF7ABF9002801D02A
:1034A000FDF762F90948FFF7B9FA002801D0FDF7E6
:1034B0005BF9202206490548FFF782FB002801D06E
:1034C000FDF752F910BD000000380140A0010020B6
:1034D0006803002010B5164816490860E120400234
:1034E0004860002113488160C16001610C21416185
:1034F00000218161C161016200200E4948620846D5
:10350000FFF777F9002801D0FDF72EF90948FFF7FA
:1035100085FA002801D0FDF727F920220649054841
:10352000FFF74EFB002801D0FDF71EF910BD00008B
:10353000004400401002002088030020F0B585B050
:10354000B048017E408B081AC6B2002E01D105B0EA
:10355000F0BDAD480078B04210D12021A9482030FC
:1035600081720020A84908702022A849A548403847
:10357000FFF726FB002879D0FDF7F6F839E1A348DC
:10358000A1490978405CAB2871D1A0499E480078D8
:10359000001D085CEF28F7D108469B4909784418BC
:1035A00099480078401D98490870607805285FD0D8
:1035B00006DC030001F020FF05113E3F40417E0084
:1035C000302876D004DC062853D0072872D15DE07D
:1035D000402870D04128F9D1A2E0A078002828D155
:1035E000E078002825D18A480068012189048843B1
:1035F000401887490860002719E0AA216846017031
:103600000221417000218170C170EF210171814B55
:10361000052269467B484038FFF75CFB002801D053
:10362000FDF7A2F86420FDF77BFD781CC7B2142FCC
:10363000E3DBD6E000BF00BF00BF75480068012192
:10364000C90488436178022901D0012100E00021EA
:10365000C9040122D204114008436D490860A078D2
:103660000002E17808436A49C861BAE0C7E0B9E0FE
:1036700000BFA0780002E17808430546002D04D081
:103680006548854201D06248C561AAE0A078000281
:10369000E17808430546002D0ED15D480068012100
:1036A0004904884340185A49086000205B49088053
:1036B00022E022E094E024E05748854207D15448B4
:1036C00000680121490488435149086014E05048CA
:1036D00000688003C00F00280ED0504800882028C2
:1036E0000AD04E4801880088401C4C4A108089004E
:1036F0004B4845504648C56173E0E07844498862CC
:103700006FE0434800680121C904884340184049DC
:103710000860A0780002E17808433D49C86160E094
:103720003B480068012189048843401838490860F3
:10373000A078002809D1E078002806D10846006A60
:10374000042188433249086249E0A078012809D160
:10375000E078002806D12E48006A042108432C494D
:1037600008623CE0A07800280ED1E07801280BD157
:103770002748006A022188432549086201204862DF
:1037800027491C3988612AE0A078012809D1E0780E
:10379000012806D11E48006A022108431C4908621C
:1037A0001DE0A07800280ED1E07802280BD118483F
:1037B000006A400840001649086202204862184921
:1037C0001C3988610BE0A078012808D1E078022834
:1037D00005D10F48006A012108430D49086200BF66
:1037E00000BF05E008480078401C0749087000E069
:1037F00000BF05480078301A052800DBBFE600BF8F
:10380000A5E60000E00100208200002068030020FF
:10381000A803002088130000FFFF00007E000020A6
:10382000000400201FB5FE48FDF742F80446AA2117
:1038300068460170002141708170C170EF210171F3
:10384000F84800684003C00F00281FD1F6480188DF
:103850000088401CF44A1080322916DB00201146F3
:103860000880AA21684601705021417000218170B2
:10387000C170EF210171ED4B05226946EC48FFF75D
:1038800029FA002801D0FCF76FFF1FBD002C7CD166
:10389000E848006810286DD1E24800680003C00FB6
:1038A000002851D1DF48406A04280AD1AA2168467D
:1038B00001704021417000218170C170EF210171C0
:1038C0001EE0D848406A02280BD1AA216846017040
:1038D00040214170002181700121C170EF210171EF
:1038E0000EE0D048406A01280AD1AA21684601703A
:1038F00040214170002181700221C170EF210171CE
:10390000CA4B05226946CA48FFF7E4F9002801D0EE
:10391000FCF72AFF6420FDF703FCC2480068012180
:10392000C90488434018BF490860012168464170B6
:103930000021C170BD4B05226946BD48FFF7CAF999
:1039400000287DD0FCF710FFB64800680121C904AB
:103950008843B44908600221684641700021C17063
:10396000B24B05226946B248FFF7B4F90028E8D007
:10397000FCF7FAFEAF48006801280DD10320694624
:103980004870AA4B0522AA4800E039E1FFF7A2F9E6
:103990000028D6D0FCF7E8FEA648006802280BD124
:1039A000042069464870A14B0522A148FFF792F90F
:1039B0000028C6D0FCF7D8FE9E480068042819D11C
:1039C0003020694648709748806A092804D2954893
:1039D000008D401CC87003E09248008D6946C87095
:1039E000924B052269469248FFF774F90028A8D047
:1039F000FCF7BAFE8F480068082819D130206946C4
:103A000048708848806A002804D08648008D401E8F
:103A1000C87003E08348008D6946C870834B052257
:103A200069468348FFF756F900288AD0FCF79CFEC8
:103A30008048006801210903884201D1794800E0EB
:103A4000DAE0406A01283AD17648006A022108404B
:103A5000002817D0022073494862AA2168460170E5
:103A600040214170002181700121C170EF2101715D
:103A70006E4B052269466E48FFF72CF900287DD071
:103A8000FCF772FE6748006A042108400028F6D05F
:103A9000042064494862AA216846017040214170AF
:103AA00000218170C170EF210171604B05226946D0
:103AB0005F48FFF70FF90028E1D0FCF755FE5948A1
:103AC000406A02283AD15748008CC007C00F00282E
:103AD00017D0012053494862AA216846017040214D
:103AE0004170002181700221C170EF2101714F4BA3
:103AF000052269464E48FFF7EDF800285FD0FCF735
:103B000033FE4848006A04210840002857D00420AA
:103B100044494862AA216846017040214170002151
:103B20008170C170EF210171404B05226946404808
:103B3000FFF7D0F8002842D0FCF716FE3948406A5B
:103B400004283CD13748006A02210840002819D0D7
:103B5000022034494862AA21684601704021417020
:103B6000002181700121C170EF2101712F4B0522CD
:103B700069462F48FFF7AEF8002800E01FE01ED08E
:103B8000FCF7F2FD2748008CC007C00F002816D0B4
:103B9000012024494862AA216846017040214170F1
:103BA00000218170C170EF210171204B052269460F
:103BB0001F48FFF78FF8002801D0FCF7D5FD194802
:103BC00000680003C00F002816D06420FDF7A8FA93
:103BD000AA21684601700121417000218170C170E5
:103BE000EF210171114B052269461148FFF772F868
:103BF000002801D0FCF7B8FD00200F490880C9E07B
:103C0000022C4FD10C4801880088401C0A4A1080C1
:103C10001E293ED100240348406A012822D10DE02C
:103C20001F100000A80300207C0000208813000063
:103C3000A0010020700000207A000020AA21684620
:103C400001700521417000218170C170EF21017167
:103C5000524B052269465248FFF73CF80028CED067
:103C6000FCF782FD1E204F490880AA21684601709A
:103C70000421417000218170C170EF210171474B17
:103C8000052269464648FFF725F80028B7D0FCF71B
:103C90006BFD444800881E287CDD00241F2041491C
:103CA000088077E0012C40D13E4801880088401C04
:103CB0003C4A10801E292FD100243B48406A01282D
:103CC00013D1AA216846017006214170002181703C
:103CD000C170EF210171314B052269463048FEF772
:103CE000F9FF002856D0FCF73FFD1E202D49088023
:103CF000AA21684601700421417000218170C170C1
:103D0000EF210171254B052269462548FEF7E2FFA8
:103D100000283FD0FCF728FD224800881E2839DD06
:103D200000241F201F49088034E001200003844242
:103D300030D11D48406A01282CD11A4801880088DA
:103D4000401C184A10801E291CD100241648006807
:103D5000012149048843401813490860AA21684694
:103D600001700721417000218170C170EF21017144
:103D70000A4B052269460A48FEF7ACFF002809D025
:103D8000FCF7F2FC074800881E2803DD00241F20F2
:103D9000044908800548046000BF76E588130000E8
:103DA000A00100207A000020A8030020700000205D
:103DB00070B586B004460025FE480078401CFD49D9
:103DC00008700A21FB480078FCF7A2F9C8B2F9494B
:103DD000087000BF04E0002001A94855681CC5B266
:103DE000142DF8D320784007C00F00280FD0F148D9
:103DF000007805280BDC69460879102108436946DC
:103E0000087101220421EC48FDF729FC04E000229E
:103E10000421E948FDF723FC20780007C00F0028A3
:103E20000FD0E448007805280BDC6946887B8021A8
:103E300008436946887301229102DF48FDF70FFCB1
:103E400005E0002201218902DB48FDF708FC20780B
:103E5000C007C00F00280BD06946C879102108435D
:103E60006946C87101221146D348FDF7F8FB04E00A
:103E700000220121D048FDF7F2FB20788007C00F17
:103E8000002805D0694648791021084369464871E1
:103E900020888004C00F002805D06946087A0121D7
:103EA00008436946087220884004C00F002805D0E6
:103EB0006946487A0121084369464872207800061D
:103EC000C00F002805D06946087C80210843694658
:103ED000087420880004C00F002805D06946887D3A
:103EE0000821084369468875606A012806D1694639
:103EF000087D042108436946087512E0606A0228BB
:103F000006D16946087D082108436946087508E01E
:103F1000606A082805D16946087D02210843694680
:103F2000087520680003C00F002806D06946C87CC9
:103F3000802108436946C87405E06946087D8021F0
:103F40000843694608756946487C802108436946EC
:103F500048742069030001F04FFA090611181F2662
:103F60002D343B42490093480078052805DD694619
:103F7000487C802188436946487438E06946C87D9A
:103F8000012108436946C87531E06946C87D0521AD
:103F900008436946C8752AE06946C87D0721084379
:103FA0006946C87523E06946C87D0F210843694604
:103FB000C8751CE06946C87D8F2108436946C875ED
:103FC00015E06946C87DAF2108436946C8750EE013
:103FD0006946C87DEF2108436946C87507E0694610
:103FE000C87DFF2108436946C87500E000BF00BFD7
:103FF0000A21A068FCF78CF8061E01DB314600E0C0
:10400000714208460A21FCF783F86C48405C0011B5
:104010006946C97A08436946C8720A21A068FCF754
:1040200077F8061E01DB314600E0714208460A219E
:10403000FCF76EF86148405C00016946097B084363
:10404000694608730A21A068FCF762F8061E01DBC6
:10405000314600E0714208460A21FCF759F85749F9
:10406000085C00116946897A0843694688720A210A
:10407000A068FCF74DF8061E01DB314600E07142F6
:1040800008460A21FCF744F84C49085C00016946DF
:10409000C97A0843C1B26846C172C07A0821084390
:1040A0006946C872A068002804DA887A08210843A3
:1040B000694688722068C002C00F00286DD00A21AE
:1040C000E06AFCF70FF83E49095C68460079014355
:1040D000684601710A21E06AFCF704F83848415C3F
:1040E000684640790143684641710A21206BFBF71D
:1040F000F9FF3349095C684680790143684681715C
:104100000A21206BFBF7EEFF2D48415C6846C07921
:1041100001436846C17120688002C00F002832D078
:1041200024480078052827DDA06B002806D0012848
:104130000BD0022810D003281CD114E0694608795E
:10414000102108406946087115E069464879102138
:104150000840694648710EE0694688791021084098
:104160006946887107E06946C879102108406946A8
:10417000C87100E000BF00BF69468879102108437C
:104180006946887109E00B480078052805DC694616
:10419000887910210843694688710A21E068FBF795
:1041A000A1FF06460A21FBF79DFF0648405C01116E
:1041B000684609E08300002000040048B05600086B
:1041C0008856000892560008407D014368464175B4
:1041D0000A21E068FBF786FF06460A21FBF782FF0B
:1041E000DC48405C01016846407D014368464175FA
:1041F0006421E068FBF776FF06460A21FBF772FFB1
:10420000D448405C01116846807D01436846817551
:104210006421E068FBF766FF06460A21FBF762FFB0
:10422000CC48405C01016846807D01436846817549
:10423000417D08200143684641750A21A069FBF7CA
:1042400051FFC548405C0107090F6846007B0143E8
:10425000684601730A21A069FBF744FFBE48405C31
:10426000F02108406946497B0843694648730A21A2
:10427000A069FBF737FF06460A21FBF733FFB64874
:10428000405C0007000F6946497B08436946487354
:104290000A21A069FBF726FF06460A21FBF722FF49
:1042A000AD48405CF02108406946897B0843694677
:1042B00088736421A069FBF715FF06460A21FBF706
:1042C00011FFA548405C0007000F6946897B084341
:1042D000694688736421A069FBF704FF06460A213A
:1042E000FBF700FF9C48405CF02108406946C97B11
:1042F00008436946C8737D21C900A069FBF7F2FE37
:1043000006460A21FBF7EEFE9348405C0007000FCB
:104310006946C97B08436946C8737D21C900A06905
:10432000FBF7E0FE06460A21FBF7DCFE8A48405C0C
:10433000F02108406946097C0843694608748749AA
:10434000A069FBF7CFFE06460A21FBF7CBFE8248A9
:10435000405C0007000F6946097C08436946087401
:104360007E49A069FBF7BEFE06460A21FBF7BAFEAE
:104370007948405CF02108406946497C0843694619
:104380004874487B80210843694648730A21606964
:10439000FBF7A8FE7248405C00116946497A084361
:1043A000694648720A216069FBF79CFE6C48405CD4
:1043B00000016946897A0843694688720A21606962
:1043C000FBF790FE06460A21FBF78CFE6448405C32
:1043D00000116946097A0843694608720A21606932
:1043E000FBF780FE06460A21FBF77CFE5C48405C3A
:1043F00000016946497A084369464872C87B8021B2
:1044000008436946C8736068012806D002280BD0AB
:10441000032810D004281CD114E06946087A8021B2
:104420000843694608721BE06946087A2021084360
:104430006946087214E06946087A402108436946D3
:1044400008720DE06946087A10210843694608722F
:1044500006E06946087AF02188436946087200BF81
:1044600000BF0A21E069FBF73DFE3E48405C0007C3
:10447000000F6946497C0843694648740A21E0698F
:10448000FBF730FE3748405CF02108406946897CE4
:104490000843694688740A21E069FBF723FE064653
:1044A0000A21FBF71FFE2F48405C0107090F6846F1
:1044B000807C0143684681740A21E069FBF712FEA3
:1044C00006460A21FBF70EFE2648405CF021084014
:1044D0006946C97C08436946C8746421E069FBF7F2
:1044E00001FE06460A21FBF7FDFD1E48405C000761
:1044F000000F6946C97C08436946C8746421E069B5
:10450000FBF7F0FD06460A21FBF7ECFD1548405C81
:10451000F02108406946097D0843694608757D21F8
:10452000C900E069884205D36946087D0121084336
:1045300069460875606A012805D16946887C802132
:1045400008436946887401AA14210020FBF7AAFFDA
:1045500006B070BD925600089C5600081027000057
:10456000A6560008BA56000810B52A484469282CF7
:1045700000D9282428480068401C274908600846BC
:104580000068142804D2254840692249886140E027
:1045900021480068322808D2002C3AD032201E4927
:1045A000086000201B49886133E01B4800683228FE
:1045B00003D10020174988612BE03220164908609A
:1045C0001748006800191649086008460068154930
:1045D00088421ED30020124908600E488069401CA2
:1045E0000C498861084680690F49884202D9002039
:1045F0000849886109484069401C084948610846E3
:1046000040690949884202D900200449486100F004
:10461000AFFE10BDA803002040000020E4030020EE
:104620003C000020A08C00009F8601007047000025
:1046300070B505461F480068A84201D21E4870BDEB
:1046400000240BE0E0001B490858A84205D3601C79
:10465000C0000858A84200D202E0641C1C2CF1D310
:1046600000BF1C2C02D114484042E8E7002619E0A4
:10467000E100104A5258611CC9000E4B5958511A9A
:10468000714308463221FBF743FDE100094A5158C6
:10469000081AA84205D8E000114640184068801961
:1046A000CDE7761C322EE3DB601CC00001494018C8
:1046B0004068C4E7A055000819FCFFFF10B50028AA
:1046C00019DA1A4A03071B0F083B9B089B00D258B4
:1046D0008307DC0EFF23A3409A438B071B0E84073E
:1046E000E40EA3401A43114B0407240F083CA4080E
:1046F000A4001A5118E00E4A03231B02D2188308A3
:104700009B00D2588307DC0EFF23A3409A438B07FC
:104710001B0E8407E40EA3401A43054B0324240216
:104720001B198408A4001A5110BD00001CED00E004
:1047300000E100E0FEB505460C4600267D20C000E5
:104740000321184A01230092019102900222A22122
:104750001548FDF729F90646002E01D00020FEBDC0
:10476000104800784006400E0E4908700846407810
:104770004006400E4870084680788006800E88709B
:10478000012D0DD1887800F05EF820700549487839
:1047900000F059F860700349087800F054F8A070F0
:1047A0000120DCE78400002004010020F8B5054664
:1047B0000C46012D2FD12078172801DD0020207014
:1047C00060783B2801DD00206070A0783B2801DD87
:1047D0000020A07020780A21FBF79AFC06012078BF
:1047E0000A21FBF795FC0E43267060780A21FBF73F
:1047F0008FFC060160780A21FBF78AFC0E43667085
:10480000A0780A21FBF784FC0601A0780A21FBF7B7
:104810007FFC0E43A670022008490870A0784870FB
:10482000607888702078C8707D20C00004230A4614
:10483000A22100900248FCF7F9FFF8BD8400002097
:10484000040100207047014608110A2250430A075C
:10485000120F8018C0B27047704710B5FDF7B4F959
:10486000FDF7D8FE10BD30B595B01A200990012093
:104870000C900E9010200D900F90012010900220AF
:104880001190002112910521C90413910021149166
:1048900009A8FDF7E9FB002801D0FBF765FF072019
:1048A000059002200690002007900890012105A89D
:1048B000FDF796FA002801D0FBF756FF2120019062
:1048C00000200390049001A8FDF7E2F9002801D030
:1048D000FBF74AFFFDF74EFB05467D21C900FBF7BC
:1048E00001FC0446FDF77AFE0420FDF763FE00227A
:1048F0001146501EFDF7C2F915B030BD19480068C9
:1049000001210843174908600846406816490840D5
:104910001449486008460068144908401149086075
:10492000084600680121890488430E49086008464A
:1049300040683F21090488430A4948600846C06A24
:1049400000090001C8620846006BFF21143188434A
:10495000044908630846406B400840004863002053
:1049600088607047001002400CB8FF08FFFFF6FE99
:1049700010B50248FDF755FE10BD00006001002093
:1049800010B5EF480068C002C00F002800D110BD6C
:10499000EB4800688002C00F002834D1E948006865
:1049A000002830D01020FBF783FF002819D0E648FC
:1049B0000068FCF729F8E549884224D90020E0493D
:1049C0008863084600680121490588434018DC498E
:1049D00008601020DE490860FCF748FEDA490860EC
:1049E00011E00020C043FBF763FF002804D1FCF76F
:1049F0000BF8D849884202D90020D2490860FCF758
:104A000035FED1490860CE4800688002C00F0028FA
:104A100071D00020C043FBF74BFF0446002C12D19D
:104A2000CB48006801280ED1FCF720FEC64908607B
:104A3000C348806B401CC24988630846008F8007CA
:104A4000800F886316E0002C14D1C148006802284A
:104A500010D1FCF70BFEBC490860B948806B0028F8
:104A600005D0B748806B401EB549886302E003203B
:104A7000B3498863002C71D1B54800680428FAD185
:104A8000FCF7F4FDB0490860AD48806B002806D003
:104A900001281FD0022848D0032866D151E0A84839
:104AA000C06A0A30A649C862C86A0A21FBF71AFB25
:104AB000032907D9A249C86A1421FBF713FBA048B0
:104AC000C16206E09E49C86A1E21FBF70BFB9C48A9
:104AD000C16252E09A48C06A142813D39849C86A40
:104AE0000A21FBF7FFFA032906D29548C06A401C49
:104AF0009349C86218E015E19148C06AC01E904908
:104B0000C86211E08E49C86A0A21FBF7EBFA09294D
:104B100005D28B48C06A401C8949C86204E08848B5
:104B2000C06A09388649C86227E08548006B0A30A8
:104B300083490863086B3C21FBF7D4FA8048016382
:104B40001BE07F49086B0A21FBF7CCFA092906D242
:104B50007B48006B401C7A49086305E019E07848FF
:104B6000006B09387649086307E075480068012141
:104B7000490588437249086000BF00BF7048808DB6
:104B8000754908706E48008E48700120FFF70EFED0
:104B900093E0002CFCD16E4800680828F8D1FCF79F
:104BA00065FD694908606648806B002806D00128C9
:104BB00021D0022846D003286CD153E06048C06A57
:104BC0000A2805D35E48C06A0A385D49C86211E008
:104BD0005B49C86A0A21FBF785FA032905D95848B9
:104BE000C06A0A305649C86204E05548C06A1430A9
:104BF0005349C86256E05249C86A0A21FBF772FA63
:104C0000002905D04E48C06A401E4D49C86218E0D0
:104C10004B48C06A14280AD34949C86A0A21FBF7DD
:104C200061FA0A214843C01C4549C86209E0444969
:104C3000C86A0A21FBF756FA0A214843093040495D
:104C4000C8622FE03E48006B0A2805D33C48006B41
:104C50000A383B49086304E03948006B3230384970
:104C600008631FE03649086B0A21FBF73BFA00296D
:104C700005D03348006B401E3149086309E03049D4
:104C8000086B0A21FBF72EFA0A21484309302C4908
:104C9000086307E02A48006801214905884328493C
:104CA000086000BF00BF2648808D2B49087024484B
:104CB000008E48700120FFF779FD23480068FBF75C
:104CC000A3FE2649884206D91D48006801214905EE
:104CD00088431B490860102C10D11D48006800282B
:104CE0000CD11849086016480068610488431449CB
:104CF0000860FCF7BBFC1449086010E07F208001CD
:104D0000FBF7D6FD002806D00D48006801214905B3
:104D100088430B490860FCF7A9FC0B4908600C4864
:104D200004600AE00C490120FFF704FD0A480078FE
:104D30000349C86208484078086300BF27E60000BE
:104D4000A8030020600000205C0000207017000015
:104D500064000020B80B00008A00002030750000BD
:104D6000818CC907C90F002908D001684968012250
:104D700052049143826A1143026851600222416ADF
:104D80001140002907D001684968D2039143C26AE3
:104D90001143026851600422416A1140002907D082
:104DA0000168496812049143026B11430268516023
:104DB0000822416A1140002907D00168496812039E
:104DC0009143426B1143026851601022416A1140C5
:104DD000002907D00168896812029143826B114350
:104DE000026891602022416A1140002907D00168C1
:104DF000896812029143C26B11430268916040229C
:104E0000416A1140002915D0016849689203914315
:104E1000026C11430268516001221205016C91423B
:104E200008D101684968032252059143426C11433D
:104E3000026851608022416A1140002907D0016850
:104E4000496812039143826C1143026851607047B4
:104E500001460020C8662022692042546A2042543C
:104E600000BF00226820425400BF0020704770B588
:104E700005466C6A00215A200153522001532046F6
:104E8000FDF7DEFC70BD01680968FF222132914305
:104E900002681160016889684908490002689160E8
:104EA00020226A210A54704710B504462068006821
:104EB000402188432168086020216920015520464F
:104EC000FDF780FF002010BDF8B504465C20075BAD
:104ED0006A20005D222836D12068858C01210903D3
:104EE000A06888420AD12069002807D1666D28464B
:104EF00038403080606D801C606505E0F8B2284065
:104F0000626D511C616510705A20005B401E81B2B9
:104F10005A200153002914D120680068FF21213153
:104F20008843216808602068806840084000216844
:104F3000886020216A2001552046FDF7A7FE002049
:104F4000F8BD0020FCE7206880690821084321683B
:104F500088610220F4E70000FEB504460025102613
:104F600000270020029001902169A0680843616930
:104F70000843E1690843054620680068684908401D
:104F8000284321680860206840680321090388439A
:104F9000E168084321684860216AA0690843054622
:104FA000206880680B2109028843284321688860B3
:104FB00000BF5C492068884217D15B48006B8007BE
:104FC000800F002806D0012808D0022808D0032826
:104FD00008D101E0002607E0022605E0042603E0F0
:104FE000082601E0102600BF06E0504920688842EC
:104FF00001D1002600E0102600BF0121C903E069AD
:10500000884249D1042E20D004DC002E07D0022E85
:1050100032D111E0082E25D0102E2DD12DE0FCF735
:10502000AFFF400061684908401800906168FBF7D5
:1050300059F880B2029023E061684A083C4BD018CE
:10504000FBF750F880B202901AE0FCF7ABFF40008B
:1050500061684908401800906168FBF743F880B226
:1050600002900DE061684A0801231B04D018FBF789
:1050700039F880B2029003E000BF0120019000BF28
:1050800000BF2C4902980840074602980007400FCD
:1050900007432068C76040E0042E21D004DC002EC6
:1050A00007D0022E34D111E0082E26D0102E2FD199
:1050B0002FE0FCF765FF61684908401800906168BF
:1050C000FBF710F880B22168C86025E061684A08E3
:1050D000194BD018FBF706F880B22168C8601BE0B6
:1050E000FCF760FF61684908401800906168FAF7B2
:1050F000F9FF80B22168C8600EE061684A080123A8
:10510000DB03D018FAF7EEFF80B22168C86003E035
:1051100000BF0120019000BF00BF0198FEBD00004C
:10512000F369FFFF003801400010024000440040D6
:105130000024F400F0FF000000127A00014669200C
:10514000405C212831D15220405A00280DD10868F6
:105150000068802398430B68186008680068402343
:1051600018430B6818600020704701231B038868F0
:1051700098420CD10869002809D1CA6C1088C00572
:10518000C00D0B681885C86C801CC86405E0CB6C2A
:10519000581CC86418780B6818855220405A401E65
:1051A00083B2522043520020DEE70220DCE7FFB545
:1051B00081B004460D4617460A9E24E0701C002864
:1051C00021D0002E05D0FCF751FA0499401AB042C4
:1051D00019D920680068FF21A1318843216808603F
:1051E000206880684008400021688860202169208C
:1051F00001556A20015500BF00216820015500BFFC
:10520000032005B0F0BD2068C0692840A84201D144
:10521000012000E00020B842D0D00020F1E70000DB
:1052200010B50248FDF730FB10BD0000A0010020C2
:1052300010B50248FDF728FB10BD00001002002049
:1052400010B54648017E408B081AC4B2002C00D12C
:1052500010BD0C2C7DDD601E4149085C0A287BD105
:1052600008460078542834D108464078692830D15F
:10527000084680786D282CD10846C078652828D14A
:1052800008460079202824D10846407930380A2180
:1052900048433349897930394018324908703048D9
:1052A000007A30380A2148432D49497A303940186C
:1052B0002C4948702A48C07A30380A214843284986
:1052C000097B30394018274988700120FFF76EFAB2
:1052D00033E02348007843282FD1214840786128C3
:1052E0002BD11F4880786C2827D11D48C0786928A9
:1052F00023D1FBF757FB1C49C860FBF719FB1A4980
:105300008860FBF7DDFA18494861C9687D22D20040
:1053100051430846FF21E131FAF7E4FE1349886062
:10532000114949697D22D200514308461E21FAF7EE
:10533000D9FE0E49086100F01BF8202107482030F3
:105340008172202206496038FDF73AFC002803D01C
:1053500000E001E0FBF708FA00BF79E75002002007
:10536000880300208A000020A8030020E403002016
:10537000F0B585B00027002003901D4DFBF79CFF82
:10538000002000901B4801900120029003A968466C
:10539000FBF7D4FE622029460870692048706B2014
:1053A00088706520C870002128468030C1610024C3
:1053B00009E00F488030C069A100695841180C48C5
:1053C0008030C161641C272CF3D30A4F002409E00C
:1053D000A0002E58A000C119324600230220FBF77E
:1053E0000DFF641C282CF3D3FBF7FEFE05B0F0BDC7
:1053F000E403002000FC000830B47446641E2578E5
:10540000641CAB4204D3635D5B00E31830BC1847F7
:105410001D46F8E702E008C8121F08C1002AFAD1A9
:1054200070477047002001E001C1121F002AFBD124
:1054300070470000FCF7D0FBFFF715FAFDF768FF97
:10544000FDF7E6FFFEF712F8FEF744F8FDF722FF3E
:10545000FBF75EF9FDF704FE0120FAF7F3FF0025E4
:1054600006E0FBF79FFAFBF763FAFBF729FA6D1CDE
:10547000402DF6D33C490120FFF75CF900050121DE
:1054800009050840064639480068884330433749D3
:10549000086000BFFCF7EAF87D21C9008842F9D313
:1054A0000020FAF7CFFF5DE0FCF7E0F80446304853
:1054B0000068844204D32E480068201A0A280BD8BA
:1054C0002B48006884420BD2294800680021C94358
:1054D000081A00190A2803D925480460FDF72EFE92
:1054E00024480068844204D322480068201A6428B3
:1054F0000BD820480068844232D21E480068002140
:10550000C943081A001964282AD91A480460FAF70E
:10551000EBFFFFF735FAFEF785F9FEF70FF81348B2
:10552000FEF746FC72B614480068844206D312485F
:105530000068201A7D21C90088420DD80E480068F5
:1055400084420CD20C4800680021C943081A001993
:105550007D21C900884202D900200849086062B64E
:10556000FFF76EFEA0E700008A000020A8030020DD
:10557000140000201000002008000020040000207B
:10558000CD00D300DA00E100E800EF00F500FB00F9
:10559000A401AA01B201BB01C401CD01D601E00101
:1055A000C421060070FEFFFFE94B0400A2FEFFFFCE
:1055B0000C0E0300D4FEFFFFBD33020006FFFFFF09
:1055C000A99B010038FFFFFF4A3001006AFFFFFF7F
:1055D00086E300009CFFFFFFFAAB0000CEFFFFFF59
:1055E0005583000000000000456500003200000007
:1055F000CF4E000064000000DD3D0000960000007A
:10560000F7300000C800000010270000FA0000007A
:10561000651F00002C0100006A1900005E010000F7
:10562000B514000090010000FC100000C201000051
:10563000040E0000F4010000A20B0000260200008E
:10564000A20B000058020000260800008A02000099
:10565000E0060000BC020000D4050000EE020000DD
:10566000F6040000200300003F0400005203000085
:10567000A60300008403000025030000B603000019
:10568000BA020000E8030000CF06AD2F666BEB07FF
:10569000EF6F3F065B4F666D7D0E7F6F3F065B4F82
:1056A000666D7D0E7F6FCF06AD2F666BEB07EF6FDC
:1056B0003F066D4F565B7B077F5F3F065B4F666D16
:1056C0007D0E7F6F00000000000000000102030457
:1056D000060708090000000001020304FC56000848
:1056E000000000209800000014540008945700089F
:1056F0009800002008080000245400080000000062
:105700000000000000000000000000000000000099
:105710000000000000000000000000000000000089
:105720000000000000000000000000000000000079
:105730000000000000000000000000000000000069
:105740000000000000000000000000000000000059
:105750000000000000000000000000000100000048
:105760000000000000000000000000000000000039
:1057700000000000000000003200000000000000F7
:105780000000000000000000000000000000000019
:0457900000127A0089
:04000005080000B53A
:00000001FF
