:020000040800F2
:1000000078080020C900000831420008B72D000818
:1000100000000000000000000000000000000000E0
:100020000000000000000000000000005D44000827
:100030000000000000000000494400085F44000880
:10004000DB00000800000000DB000008DB00000807
:10005000DB000008DB000008DB000008FD060008EC
:1000600000000000DB000008DB000008DB000008E7
:10007000DB000008DB000008DB00000800000000D7
:1000800075450008DB00000800000000DB000008E8
:10009000DB000008DB000008DB000008DB000008D4
:1000A000DB000008DB000008DB0000082D4E000824
:1000B000DB0000080348854600F062F8004800476E
:1000C000014F000878080020044880470448004792
:1000D000FEE7FEE7FEE7FEE7FEE7FEE70145000874
:1000E000B500000830B50B4601460020202201244F
:1000F00009E00D46D5409D4205D31D469540491B5C
:100100002546954040191546521E002DF1DC30BDA4
:1001100070B500242546002801DA01244042002958
:1001200001DA01254942FFF7DDFFAC4200D0404231
:10013000002C00D0494270BD10B5202A04DB0846CF
:10014000203AD040002110BD0B46D340D04020249F
:10015000A21A91400843194610BDD2B201E00270C4
:10016000401C491EFBD270470022F6E710B513462B
:100170000A4604461946FFF7F0FF204610BD00006E
:10018000064C0125064E05E0E36807CC2B430C3CEA
:1001900098471034B442F7D3FFF790FFC8510008D6
:1001A000E851000870B504460025206880680421E5
:1001B00008408008002829D020688068084000286E
:1001C0000BD02068806802210840002805D12068F3
:1001D0008068102108432168886001F069FA0546AB
:1001E0000EE001F065FA401B022809D9606C10216D
:1001F00008436064A06C01210843A064012070BD25
:1002000020688068042108400028EAD10020F6E731
:1002100070B504460025206880688007800F01289B
:100220000ED120680068C007C00F002806D12068E2
:10023000C0680121C9030840884201D1012000E0C3
:100240000020002837D02068806805210840012858
:1002500000D100E0002000280AD000BF206880689C
:10026000022108432168886003202168086009E0B2
:10027000606C102108436064A06C01210843A064F5
:10028000012070BD01F014FA05460EE001F010FAED
:10029000401B022809D9606C102108436064A06CDF
:1002A00001210843A0640120EBE720688068C007B3
:1002B000C00F0028EAD10020E3E7000038B504466B
:1002C000002500200090206880688007800F0128AA
:1002D0000ED120680068C007C00F002806D1206832
:1002E000C0680121C9030840884201D1012000E013
:1002F0000020002843D12068806822490840002857
:1003000001D1012000E00020002809D1606C1021FB
:1003100008436064A06C01210843A064012038BD3B
:1003200020688068012108432168886016491748C1
:100330000068FFF7D7FE009002E00098401E009092
:1003400000980028F9D101F0B3F905460EE001F05C
:10035000AFF9401B022809D9606C10210843606482
:10036000A06C01210843A0640120D8E72068006840
:10037000C007C00F0121484048400028E7D00020B6
:10038000CDE700001700008040420F008C000020E5
:100390001FB50446002003902848294908600846F4
:1003A00000F07EFC002801D000F0DAF90120C0073F
:1003B00023494860002122488160C1600161042115
:1003C000416100218161C16101624162FF21C2314D
:1003D00081620021C162012101630021416300F0BB
:1003E000BFFC002801D000F0BBF9009401200003FD
:1003F0000190072002906946114800F08DFB00280B
:1004000001D000F0ADF90E4800F024FB0C4800F0DC
:1004100035FE002801D000F0A3F90A21084800F0B9
:10042000BBFD002801D000F09BF9054800F094FCCA
:1004300080B203906846808904B010BD002401405A
:10044000B000002038B50546CC2014490870E020E3
:100450004870F0208870E820C870002008717D2066
:10046000C00005230A46702100900D4801F000FAF3
:10047000052407E0002D01D0FF2000E000200749FF
:100480000855641C192CF5D37D20C0001923034A9C
:1004900070210090024801F0EBF938BD58040020AB
:1004A000FC000020F8B506460D4617467019401DA1
:1004B000192801D90120F8BD002404E0395D084A5B
:1004C000601D1154641CAC42F8D37D20C0006B1D2C
:1004D000034A70210090034801F0CAF9EBE70000DD
:1004E00058040020FC00002070B5002501204002C7
:1004F00000F0DAF900281BD07A480068002813D1F0
:1005000079480078C007C00F002806D076480068F8
:10051000400840007449086006E0734800684008DD
:100520004000401C7049086001206E49086002E0EC
:1005300000206C4908600120C00200F0B5F90028D5
:100540001BD06A480068002813D16748007800066D
:10055000C00F002806D064480068802188436249A3
:10056000086006E0604800688021884380305E496A
:10057000086001205D49086002E000205B490860D6
:10058000FF20013000F090F9002835D0584800686D
:1005900000282DD154480078C006C00F002812D082
:1005A00051480068102188434F4908600846006898
:1005B000042188434C4908600846006808218843A4
:1005C0004949086014E04848006810218843103009
:1005D000454908600846006804218843001D4249D7
:1005E0000860084600680821884308303E490860D2
:1005F00001203F49086002E000203D4908603A4878
:100600000078C006C00F002825D1802000F04CF9EA
:10061000002807D034480068082188430830324950
:10062000086005E030480068082188432E490860CA
:10063000402000F039F9002807D02B480068042139
:100640008843001D2849086005E027480068042108
:100650008843254908600120800200F025F9002820
:1006600008D021480068FF210131884340181E4905
:10067000086006E01C480068FF21013188431A49E0
:100680000860194800780006C20F0121C902194804
:1006900001F007F814480088C005C20F0221154870
:1006A00000F0FFFF00F094F97D21C90048430446A3
:1006B000114881682046FFF715FD0B49C86000F01E
:1006C0004DF909498860C86800F0DEF806490861FC
:1006D00008460088C004C00F002800D0002503F0A1
:1006E00045FD70BD44000020800300205400002020
:1006F0005000002000040048B803002010B540203E
:1007000000F0BEFE10BD000000B587B000BF12486B
:1007100040690121490408430F494861084640697E
:10072000012149040840019000BF00BF0B4803901D
:10073000002004904020029002A90920C00600F089
:10074000AFFE00220221072001F0BAFA072001F0D3
:10075000ABFA07B000BD00000010024000002110FD
:1007600000BFFEE700200749C8610748006904216F
:1007700008430549086108460069402108430249C9
:100780000861704790000020002002400021084AC4
:10079000D1610849096902221143064A11611146D3
:1007A0004861096940221143024A11617047000003
:1007B00090000020002002400022054BDA61054A2B
:1007C000126901231A43034B1A610180704700002C
:1007D000900000200020024000200F49C96810222C
:1007E0001140102907D10D49C969022211430B4A52
:1007F000D161102108430849C96804221140042925
:1008000007D10649C96901221143044AD161042173
:1008100008430149C8607047002002409000002052
:1008200070B5044600F044FF05460BE0601C00284C
:1008300008D0002C04D000F03BFF401BA04201D99F
:10084000032070BD0F48C068C007C00F0028EDD15D
:100850000C48C06820210840202801D10949C860FF
:100860000848C06810210840102805D00548C06815
:1008700004210840042803D1FFF7AEFF0120E0E780
:100880000020DEE7002002400146002006E0420092
:10089000044B9A5A8A4200D902E0401C0828F6D339
:1008A00000BF70477C5000080146024800680840BD
:1008B000704700000800002070B50020FFF768FDB9
:1008C0000446224801680068401C204A10608800E5
:1008D0001F490C5010460068102802D30020114612
:1008E00008600025002404E0A800194908580419EC
:1008F0006D1C102DF8D3240916484068302803D108
:1009000015486043040B1CE0124840683C2804D1A1
:10091000FF205F306043C40A13E00E484068482857
:1009200008D10D49614308460321C902FFF7DAFBEC
:10093000044606E007484068182802D1064860438C
:10094000040B632C00D96324204670BD34000020C2
:1009500078020020B80300206B03000070B504206B
:10096000FFF716FD0446164801680068401C144A4B
:100970001060880013490C50104600680A2802D302
:100980000020114608600025002404E0A8000D495D
:10099000085804196D1C0A2DF8D30A212046FFF7C8
:1009A000A1FB044601200003011B0748FFF7B0FB31
:1009B0000649441A204603F03DFC0446204670BD1B
:1009C0002C000020380300200000710210270000D6
:1009D00070B50720FFF7DCFC044612480168006888
:1009E000401C104A106088000F490C5010460068E7
:1009F000202802D30020114608600025002404E0CE
:100A0000A8000949085804196D1C202DF8D3640961
:100A10000649614308460649FFF764FB0446204641
:100A200070BD000030000020B8020020B5020000B8
:100A3000FF0F000070B5044600F03AFE0546A542DF
:100A400001D3281B70BD0248001B4019FAE70000C3
:100A5000FFFF000070B504460025002600BF4020BF
:100A6000005D012801D1022070BD01214020015507
:100A700000BF206880688007800F01280CD12068A3
:100A800000680840002805D12068C068C9030840F4
:100A9000884201D1012000E0002000282FD1606CA5
:100AA000FF21013188430221084360642068806887
:100AB000890708432168886000F0FAFD064611E0C6
:100AC00000F0F6FD801B02280CD9606C02218843DF
:100AD00010210843606400BF00214020015500BF81
:100AE0000120C1E720688068C00FC0070028E7D157
:100AF000606C0221884301210843606404E0606C5B
:100B0000202108436064012500BF002140200155D9
:100B100000BF2846A8E70000F8B504460D460026A9
:100B20000020009001210907A06B884215D0A06B1E
:100B3000012812D0A06B02280FD0A06B03280CD084
:100B4000A06B042809D0A06B052806D0A06B06284E
:100B500003D0A06B072800D000BF00BF4020005D7D
:100B6000012801D10220F8BD01214020015500BF1C
:100B70002068806804210840800800287BD144490F
:100B8000686888425BD02068806A2A780121914099
:100B900008432168886201210907A06B884229D097
:100BA000A06B012826D0A06B022823D0A06B0328BD
:100BB00020D0A06B04281DD0A06B05281AD0A06BF4
:100BC000062817D0A06B072814D0A86821684969A7
:100BD0004907490F88420DD020684069C008C0000D
:100BE0002168486120684069297A4907490F08430C
:100BF000216848612868102802D0286811283FD150
:100C0000244880682968102901D1C90401E0012124
:100C1000890508431F4988602868102830D11E497B
:100C20001E480068FFF75EFA0A214843009002E080
:100C30000098401E009000980028F9D120E020681C
:100C4000806A2A7801219140884321688862286857
:100C5000102802D02868112812D10E48806829680F
:100C6000102902D1C90402E005E001218905884369
:100C70000849886004E0606C202108436064012614
:100C800000BF00214020015500BF30466BE7000047
:100C9000011000000027014040420F008C0000209E
:100CA00070B504460025002C01D1012070BD606C98
:100CB0000221084360642046FFF774FA0546002DC0
:100CC00007D12046FFF7A4FA0546012D01D00120E7
:100CD0006064012D33D0206840689F2188432168DB
:100CE00048609F20216808602068C0681749084054
:100CF0002168C86020680069800080082168086158
:100D000020684069C008C000216848612068006A06
:100D10000F490840216808622068806AC00CC0043E
:100D2000216888620B488068032189058843094946
:100D30008860204600F0F4F80020A064606400BFE2
:100D400000214020015500BF2846AFE700023E8346
:100D500000F000F00027014001460868006C704771
:100D600070B5044600260025002C01D1012070BD7D
:100D7000606C002806D1A064002140200155204667
:100D800000F0E4F8606C1021084000287ED1002EAD
:100D9000FCD1206880680421084080080028F5D133
:100DA000606C890188430221084360642068806880
:100DB0008007800F01280DD120680068C007C00F90
:100DC000002805D12068C06889030840884201D105
:100DD000012000E0002000280FD12068C068182101
:100DE0008843A16808432168C860206800698000C2
:100DF000800861680843216808612068C068464926
:100E000008402168C860A0698003E169C9030843FC
:100E1000216A49030843616B012902D001210903BA
:100E200000E000210843E16808432169022901D15B
:100E3000042100E000210843216B490008430543D9
:100E4000606A01280ED1206A002803D10120000425
:100E5000054307E0606C202108436064A06C012119
:100E60000843A064FF21C231A06A884203D0E16A2E
:100E7000A06A084305432068C06828432168C86009
:100E800001210907A06B884216D000E03DE0A06B6D
:100E9000012811D0A06B02280ED0A06B03280BD024
:100EA000A06B042808D0A06B052805D0A06B0628ED
:100EB00002D0A06B07280DD120684069C008C0008F
:100EC0002168486120684069218F4907490F08431C
:100ED000216848612068C06810490840A84208D1CC
:100EE0000020A064606C02218843012108436064F3
:100EF00010E0606C02218843102108436064A06CFC
:100F000001210843A064012604E0606C102108431D
:100F10006064012630462AE71902FEFFE7FF3F839F
:100F200010B5044607492068884209D106488069FF
:100F300049158843044988619021C80500F0E8F903
:100F400010BD0000002401400010024010B586B022
:100F500004460F492068884218D100BF0D488069B7
:100F6000491508430B4988610846806949150840BE
:100F7000009000BF00BF902001900320029000204D
:100F8000039001A90920C00600F08AFA06B010BD3E
:100F90000024014000100240F8B504460D46606987
:100FA000082801D1082711E02068C068C007C00FD9
:100FB00000280AD0606C20210843606400BF002133
:100FC0004020015500BF0120F8BD0C2700F070FB48
:100FD000064614E0681C002811D0002D04D000F053
:100FE00067FB801BA8420AD9606C04210843606437
:100FF00000BF00214020015500BF0320E4E7206826
:10100000006838400028E5D0606C0121490208439F
:1010100060642068C068032189020840002825D147
:10102000206A002822D1206800680821084008288A
:101030001CD12068806804210840800800280DD158
:10104000206840680C21884321684860606CFF215B
:101050000131884301210843606407E0606C20216E
:1010600008436064A06C01210843A064A0690028C3
:1010700002D10C20216808600020A5E770B5044665
:1010800000252068806804210840800800282BD1B2
:1010900000BF4020005D012801D1022070BD012168
:1010A0004020015500BFE069012803D02046FFF72A
:1010B00005F90546002D18D1606C0D490840FF2147
:1010C0000131084360640020A06400BF002140207B
:1010D000015500BF1C202168086020688068042139
:1010E00008432168886000E002252846D6E7000012
:1010F000FEF1FFFF70B5044600252120005D0228A7
:1011000003D00420A06301251EE0206800680E21A2
:101110008843216808602068006840084000216812
:1011200008600120216C8840E16B4860012121208A
:10113000015500BF00212020015500BF606B002831
:1011400002D02046616B8847284670BD31B5002427
:1011500000F0AEFA044600BF00F0AAFA001B0099A6
:101160008842F9D338BD0000F8B504460E46012781
:10117000002500BF2448007E012801D10220F8BDCF
:1011800001202149087600BF2068012811D11F489D
:10119000FFF746FB002830D1FFF7E4FA1B48FFF7C2
:1011A0003FFB07461A480069042188431849086133
:1011B00023E01648FFF734FB00281ED1401E3060A4
:1011C000656813E02846FFF7E1FA1048FFF728FBAF
:1011D00007460F480069022188430D490861002F26
:1011E00001D0356008E0012080022D18A06880023F
:1011F00061684018A842E5D800BF00BF002002493E
:10120000087600BF3846BAE79000002050C30000BF
:101210000020024003480069802108430149086119
:101220000020704700200240F0B51FB486B007468A
:1012300015461E460120039000240020029000BFA6
:101240002548007E012802D102200BB0F0BD01200C
:101250002149087600BF2148FFF7E2FA039003987E
:10126000002831D1012F02D10120029006E0022F87
:1012700002D10220029001E00420029000241FE02D
:1012800022012846314604960595FEF755FF80B2A7
:10129000610001900798081800900199FFF78CFAF7
:1012A0000E48FFF7BDFA03900D4800694008400062
:1012B0000B4908610398002800D004E0601CC4B208
:1012C00002988442DCDB00BF00BF002002490876A0
:1012D00000BF0398B9E700009000002050C3000051
:1012E000002002400748006980210840002805D0FE
:1012F0000548044948600548486001E001207047FE
:101300000020FCE70020024023016745AB89EFCDB8
:10131000F0B502460B460020002100246FE00125B5
:1013200085401D402946002968D0156847000326DE
:10133000BE40B5431560C508AE0015462035AD5911
:101340004607F70E0F26BE40B543C608B60017463F
:101350002037BD51956847000326BE40B5439560D0
:10136000556801268640B5435560D5684700032679
:10137000BE40B543D560244D8608B600AC598507FC
:101380002E0F0F25B5402C400925ED06AA4201D1AC
:1013900000250FE01D4DAA4201D101250AE01C4D98
:1013A000AA4201D1022505E01A4DAA4201D1032526
:1013B00000E005258607360FB540A5421ED18507FA
:1013C0002E0F0F25B5402C460F4D8608B600AD599F
:1013D000A5430D4E8708BF00F5510F4D2D688D4375
:1013E0000D4E356035466D688D4375603546AD6888
:1013F0008D43B5603546ED688D43F560401C1D4654
:10140000C540002D8BD1F0BD08000140000400480C
:1014100000080048000C00480004014070B5064672
:10142000402E24D112480068401C1149086000F089
:101430003FF904460F480068844203D30D48006812
:10144000251A05E00B4800680021C943081A051950
:1014500008480460002D07D029460748FEF742FEE1
:10146000C0080649486102E000200449486170BD97
:101470000400002078000020A91100008003002053
:1014800010B50446054840692040002804D00348B0
:1014900044612046FFF7C2FF10BD00000004014078
:1014A00078B50346002200240020DEE001269640A5
:1014B0000D6835402C46002C7ED04D68022D02D0A0
:1014C0004D68122D15D1D508AE001D462035A859FE
:1014D0005507EE0E0F25B5400646AE43304656077B
:1014E000F60E0D69B5402843D508AD001E462036DE
:1014F0007051186856000325B5400646AE43304685
:101500000D79AD07AD0F5600B540284318604D6802
:10151000012D08D04D68022D05D04D68112D02D047
:101520004D68122D18D1986856000325B54006461F
:10153000AE4330465600CD68B540284398605868A1
:10154000012595400646AE43304610264D6835408D
:101550002D09954028435860D86856000325B540AA
:101560000646AE43304656008D68B5402843D860E5
:10157000012636074D683540B54275D100BF3E4D56
:10158000AD69012635433C4EB5613546AD69ED0781
:10159000ED0F009500BF00BF384D9608B600A85962
:1015A00095072E0F0F25B5400646AE433046092558
:1015B000ED06AB4203D100E056E000250FE0304DD0
:1015C000AB4201D101250AE02E4DAB4201D10225EB
:1015D00005E02D4DAB4201D1032500E0052596071E
:1015E000360FB5402843254D9608B600A851274D23
:1015F00028680546A5432846012636044D6835402F
:10160000B54202D1054625432846204D286068682A
:101610000546A5432846012676044D683540B54267
:1016200002D1054625432846184D6860A86805463E
:10163000A5432846012636054D683540B54202D1FE
:10164000054625432846114DA860E8680546A54390
:101650002846012676054D683540B54202D105463B
:1016600025432846094DE860521C0D68D540002DE1
:1016700000D01BE778BD00000010024008000140C8
:101680000004004800080048000C00480004014025
:10169000024613690B40002B01D0012000E000201E
:1016A0007047002A01D0816100E08162704700002C
:1016B00001480068704700000000002002464120F9
:1016C000805C20282FD100BF4020805C012801D100
:1016D0000220704701234020835400BF242341206F
:1016E0008354106800684008400013681860106850
:1016F000006801231B039843136818601068006892
:1017000008431368186010680068012318431368C1
:10171000186020234120835400BF002340208354BD
:1017200000BF0020D5E70220D3E710B502460B46E4
:1017300000214120805C20282ED100BF4020805C09
:10174000012801D1022010BD01244020845400BF93
:101750002424412084541068006840084000146824
:101760002060106801680F2424020846A043014647
:1017700018020143106801601068006801242043CA
:101780001468206020244120845400BF002440209D
:10179000845400BF0020D6E70220D4E710B50446E9
:1017A000002C01D1012010BD4120005D002805D191
:1017B000002140200155204600F0FAF92421412063
:1017C00001552068006840084000216808600F212A
:1017D00009066068884321680861206880680121E3
:1017E000C903884321688860E068012806D1012187
:1017F000C903A06808432168886005E021218902A7
:10180000A068084321688860E068022802D180024D
:10181000216848602068406814490843216848608E
:101820002068C0680121C90388432168C8606169D4
:1018300020690843A169090208432168C860216A38
:10184000E0690843216808602068006801210843B6
:10185000216808600020606420214120015500209B
:10186000206300214220015500209CE700800002F7
:10187000FFB581B0044616461F4600254120005D95
:1018800020287CD100BF4020005D012802D1022029
:1018900005B0F0BD01214020015500BFFFF708FF52
:1018A000054619230122D1032046009501F04AFB89
:1018B000002801D00320EBE7212141200155102110
:1018C0004220015500206064666267856063608D18
:1018D000FF280BD9FF20208548020090208DC2B23E
:1018E0000B052046029901F015FB0CE0608D208568
:1018F000012040030090208DC2B201235B062046E8
:10190000029901F007FB47E02A4620460A9901F0B8
:101910006FFB002806D0606C042801D10120B7E7D6
:101920000320B5E7616A481C606208782168886214
:10193000608D401E6085208D401E2085208D0028F2
:101940002AD1608D002827D00095002280212046D2
:101950000A9B01F0F7FA002801D0032098E7608D78
:10196000FF280DD9FF20208500200090208DC2B2D5
:1019700001231B062046029901F0CCFA0CE031E06D
:10198000608D208500200090208DC2B201235B066F
:101990002046029901F0BEFA608D0028B4D12A4693
:1019A00020460A9901F0F7FA002806D0606C042856
:1019B00001D101206CE703206AE720202168C8617B
:1019C000206840680849084021684860202141207B
:1019D000015500214220015500BF4020015500BFA4
:1019E000002055E7022053E700E800FEFFB583B072
:1019F00004460C9F0E9E00254120005D202871D1D9
:101A0000002F02D00D98002802D1012007B0F0BDB0
:101A100000BF4020005D012801D10220F6E701212E
:101A20004020015500BFFFF743FE05461923012260
:101A3000D1032046009501F085FA002801D003204B
:101A4000E4E7222141200155402142200155002098
:101A5000606467620D986085002060630096019560
:101A6000204604A90EC901F00BFA002810D0606CC2
:101A7000042806D100BF00214020015500BF0120ED
:101A8000C4E700BF00214020015500BF0320BDE78F
:101A9000608DFF280DD9FF2020850920800200904D
:101AA000208DC2B201231B062046049901F032FAB0
:101AB0000CE0608D2085092080020090208DC2B24C
:101AC00001235B062046049901F024FA00BF334647
:101AD000002204212046009501F034FA002802D0AB
:101AE000032093E75FE02068406AC1B2626A501C3D
:101AF00060621170208D401E2085608D401E6085C3
:101B0000208D002829D1608D002826D03346002260
:101B100080212046009501F015FA002801D003200D
:101B200074E7608DFF280CD9FF20208500200090ED
:101B3000208DC2B201231B062046049901F0EAF968
:101B40000BE0608D208500200090208DC2B2012323
:101B50005B062046049901F0DDF9608D0028B6D1BE
:101B60002A463146204601F016FA002806D0606C5D
:101B7000042801D1012049E7032047E720202168FC
:101B8000C8612068406809490840216848602021F0
:101B90004120015500214220015500BF4020015540
:101BA00000BF002032E7022030E7000000E800FE1E
:101BB00010B586B004461249206888421DD1C02065
:101BC0000190122002900120039003200490012034
:101BD000059001A90B48FFF763FC00BF0A48C069E4
:101BE0000121490508430849C8610846C069012127
:101BF00049050840009000BF00BF06B010BD0000BE
:101C000000540040000400480010024002480068F0
:101C1000401C0149086070470000002010B50648CC
:101C200000681021084304490860002000F006F80D
:101C300000F018F8002010BD0020024070B50446E6
:101C400000F0BAF906467D21C900FEF74BFA0546B9
:101C500000F0E6FC00222146501E00F031F8002082
:101C600070BD000008B500BF0E488069012108431F
:101C70000C49886108468069C007C00F009000BF0A
:101C800000BF00221146501F00F01AF80022114632
:101C9000901E00F015F800221146501E00F010F8BA
:101CA00008BD00000010024000BFC206D20E012194
:101CB0009140024A116000BF7047000000E100E05F
:101CC00070B504460D4616462946204602F0F8FA3D
:101CD00070BD0000F8B50446002600250121090466
:101CE0002068084088427AD100274B48C069090320
:101CF000084000280DD100BF4748C0690843464945
:101D0000C8610846C06909040840009000BF00BFD0
:101D1000012742480068FF2101310840002816D100
:101D20003E48006808433D490860FFF7C1FC06468D
:101D300006E0FFF7BDFC801B642801D90320F8BD35
:101D400036480068FF21013108400028F1D03248B0
:101D5000006A0321090208400546002D2DD0606865
:101D60000840A84229D02C48006A884305462A48E2
:101D7000006A012109040843274908620846006AED
:101D80000121090488432449086208460562E807DE
:101D9000C00F002811D0FFF78BFC064607E0FFF7C5
:101DA00087FC801B1E49884201D90320C7E71A48D7
:101DB000006A022108400028F1D01748006A032178
:101DC000090288436168084313490862012F05D15D
:101DD0000846C069090488430F49C86100BF2078DC
:101DE000C007C00F002807D00B48006B8008800098
:101DF000A16808430849086320212068084020287A
:101E000007D10548006B10218843E1680843024967
:101E10000863002093E700000010024000700040BB
:101E20008813000070B504460D4600265D48006822
:101E3000C007C00FA8420ED25A48006840084000B0
:101E400028435849086008460068C007C00FA842E8
:101E500001D0012070BD022120680840022807D16E
:101E600051484068F0218843A16808434E494860C2
:101E70002078C007C00F00285FD06068012808D113
:101E800049480068012149040840002815D1012073
:101E9000E0E76068022808D143480068012149064C
:101EA0000840002809D10120D4E73F4800680221FA
:101EB0000840002801D10120CCE73B484068800859
:101EC00080006168084338494860FFF7F1FB064627
:101ED000606801280FD107E0FFF7EAFB801B334958
:101EE000884201D90320B5E72F4840680C210840FB
:101EF0000428F1D121E0606802280FD107E0FFF744
:101F0000D7FB801B2949884201D90320A2E7264834
:101F100040680C2108400828F1D10EE007E0FFF7E7
:101F2000C7FB801B2149884201D9032092E71E4844
:101F300040680C2108400028F1D11A480068C00709
:101F4000C00FA8420ED91748006840084000284337
:101F50001449086008460068C007C00FA84201D0B5
:101F6000012077E7042120680840042808D10E48A2
:101F70004068072109028843E16808430A4948602C
:101F800000F032F808494968F02211400909084A6E
:101F9000515CC840074908600020FFF74FFE002051
:101FA00058E70000002002400010024088130000A3
:101FB000B05100088C000020014800687047000004
:101FC0008C00002000B5FFF7F7FF0549496807229C
:101FD00012021140090A034A515CC84000BD0000CA
:101FE00000100240C0510008F0B589B024A001469D
:101FF0000EC9C06805AC0EC4089025A001460EC9E4
:10200000C06801AC0EC404900024002700250026FF
:1020100000200090224844680C202040002827D04F
:10202000042802D0082822D102E01E48009022E0B5
:102030000F2080042040800C05A90E5C1848C06A5F
:102040000007000F01A90F5C0120000420400121BE
:102050000904884206D139461248FEF743F8704316
:10206000054602E0104835464543009503E000BFB1
:102070000C48009000BF00BF009809B0F0BD000000
:1020800002030405060708090A0B0C0D0E0F1010B9
:102090000102030405060708090A0B0C0D0E0F10B8
:1020A0000010024000127A0000093D00F8B5044615
:1020B00000252078C007C00F002871D0F94840687B
:1020C0000C21084004280BD0F64840680840082836
:1020D00012D1F448406801210904084088420BD11C
:1020E000F048006801214904084000286BD060686E
:1020F000002868D10120F8BD00BF6068012807D121
:10210000E8480068012109040843E649086031E015
:10211000606800280ED1E348006801210904884363
:10212000E049086008460068012189048843DD49C8
:1021300008601FE0606805280ED1DA4800680121B8
:1021400089040843D749086008460068012109044A
:102150000843D44908600DE0D24800680121090411
:102160008843D049086008460068012189048843F3
:10217000CC49086000BF6068002812D0FFF798FAC9
:10218000054606E0FFF794FA401B642801D90320B6
:10219000B1E7C44800680121490408400028F1D093
:1021A00011E0FFF785FA054606E0FFF781FA401BCC
:1021B000642801D903209EE7BA4800680121490438
:1021C00008400028F1D1022120680840022861D18E
:1021D000B44840680C21084000280BD0B148406842
:1021E000084008281BD1AF48406801210904084075
:1021F000002814D1AB48006802210840002804D010
:10220000E068012801D0012075E7A6480068F821A0
:1022100088432169C9000843A24908603AE0E068A0
:10222000002820D09F480068012108439D4908608C
:10223000FFF73EFA054606E0FFF73AFA401B022890
:1022400001D9032057E79748006802210840002879
:10225000F2D094480068F82188432169C9000843F6
:102260009049086016E08F480068400840008D499A
:102270000860FFF71DFA054606E0FFF719FA401B54
:10228000022801D9032036E7864800680221084069
:102290000028F2D1082120680840082831D1E069DF
:1022A000002817D07F48406A012108437D494862D1
:1022B000FFF7FEF9054606E0FFF7FAF9401B022892
:1022C00001D9032017E77748406A02210840002817
:1022D000F2D016E07348406A4008400071494862F5
:1022E000FFF7E6F9054606E0FFF7E2F9401B022892
:1022F00001D90320FFE66B48406A0221084000280C
:10230000F2D1042120680840042871D100266548D4
:10231000C0698906084000280DD100BF6148C06926
:1023200008436049C8610846C06909040840009034
:1023300000BF00BF01265C480068FF210131084052
:10234000002816D158480068084357490860FFF72D
:10235000AFF9054606E0FFF7ABF9401B642801D949
:102360000320C8E650480068FF21013108400028DA
:10237000F1D000BFA068012806D14A48006A0121B7
:102380000843484908622BE0A06800280CD1454862
:10239000006A40084000434908620846006A042178
:1023A0008843404908621BE0A06805280CD13D48DD
:1023B000006A042108433B4908620846006A01217B
:1023C0000843384908620BE03648006A400840007C
:1023D000344908620846006A04218843314908628A
:1023E00000BFA068002813D0FFF762F9054608E097
:1023F00029E0FFF75DF9401B2C49884201D90320F1
:1024000079E62848006A022108400028F1D011E04E
:10241000FFF74EF9054607E0FFF74AF9401B23494D
:10242000884201D9032066E61E48006A022108405E
:102430000028F1D1012E05D11A48C069310788431F
:102440001849C86100BF10212068084010285FD1DA
:10245000606901282CD11348406B042108431149BD
:1024600048630846406B012108430E494863FFF763
:102470001FF9054606E0FFF71BF9401B022801D9AA
:10248000032038E60748406B022108400028F2D0BC
:102490000448406BF8218843A169C90008430149F9
:1024A000486335E0001002400070004088130000CF
:1024B0006069401D00280FD14E48406B04218843BD
:1024C0004C4948630846406BF8218843A169C9001C
:1024D0000843484948631BE04648406B04210843D1
:1024E000444948630846406B400840004863FFF792
:1024F000DFF8054606E0FFF7DBF8401B022801D9AC
:102500000320F8E53B48406B022108400028F2D147
:10251000206A00286CD0374840680C210840082801
:1025200064D0206A022847D1324800680121090698
:10253000884330490860FFF7BBF8054606E0FFF71F
:10254000B7F8401B022801D90320D4E529480068C8
:102550000121490608400028F1D100BF2548C06A82
:1025600000090001E16A08432249C862616AA06A61
:102570000843204949683D221204914308431D49FC
:10258000486000BF08460068012109060843194950
:102590000860FFF78DF8054606E0FFF789F8401B55
:1025A000022801D90320A6E5124800680121490646
:1025B00008400028F1D01BE00E4800680121090600
:1025C00088430C490860FFF773F8054606E0FFF7FB
:1025D0006FF8401B022801D903208CE505480068EC
:1025E0000121490608400028F1D101E0012082E5DF
:1025F000002080E500100240042806D10649096940
:1026000004221143044A116105E0034909690422C7
:102610009143014A1161704700E000E070470000FB
:1026200070B504462546681E0949884201D9012033
:102630000CE0681E074948610321081F01F040FEB5
:1026400000200449886107200861002070BD000057
:10265000FFFFFF0000E000E010B5FFF7DFFF10BD57
:1026600070477047704710B5044620680069022122
:102670000840400800281CD02068C0680840400876
:10268000002816D0481F21680861012020772068A3
:1026900080698007800F002803D02046FFF7E2FF03
:1026A00005E0204600F0C3F8204600F0C1F8002005
:1026B00020772068006904210840800800281DD088
:1026C0002068C06808408008002817D0C8432168E7
:1026D00008610220207720688069032109020840F0
:1026E000002803D02046FFF7BDFF05E0204600F09C
:1026F0009EF8204600F09CF80020207720680069B2
:1027000008210840C00800281CD02068C068084084
:10271000C008002816D0C84321680861042020772B
:102720002068C0698007800F002803D02046FFF78B
:1027300099FF05E0204600F07AF8204600F078F88E
:102740000020207720680069102108400009002837
:102750001DD02068C06808400009002817D0C84371
:1027600021680861082020772068C06903210902D8
:102770000840002803D02046FFF774FF05E02046FC
:1027800000F055F8204600F053F80020207720682C
:102790000069C007C00F01214840484000280CD004
:1027A0002068C068084048404840002805D0C81E3E
:1027B00021680861204600F03CF82068006980210B
:1027C0000840C00900280BD02068C0680840C00934
:1027D000002805D0C843216808612046FFF740FF64
:1027E0002068006940210840800900280BD020683B
:1027F000C06808408009002805D0C84321680861E6
:10280000204600F017F820680069202108404009A0
:1028100000280BD02068C06808404009002805D077
:10282000C843216808612046FFF71BFF10BD7047B1
:1028300070477047704710B50446002C01D1012045
:1028400010BD24216920015520680068400840001F
:1028500021680860002021680860216848602168BC
:102860008860204600F028F90020E06600216920F9
:1028700001556A20015500BF6820015500BF0020A6
:10288000DEE7000010B5044620220449204600F08F
:102890009FF9002801D0FDF763FF10BD6003002001
:1028A000F8B504462068C569206806682807000F47
:1028B0000090009800280BD120202840002807D045
:1028C00020203040002803D0204602F003F9F8BD54
:1028D00020688768009800287ED0F807C00F00287D
:1028E00004D1FF20213030400028F5D0E807C00F88
:1028F00000280BD0FF2001303040002806D00120F6
:1029000021680862E06E01210843E0660220284049
:1029100000280AD0F807C00F002806D0022021683E
:102920000862E06E04210843E06604202840002885
:102930000AD0F807C00F002806D0042021680862DA
:10294000E06E02210843E0660820284000280ED0EF
:1029500020203040002803D1F807C00F002806D0FF
:10296000082021680862E06E08210843E066E06EF6
:10297000002841D020202840002806D020203040C8
:10298000002802D0204602F0A5F8E06E0821084099
:10299000002805D12068806840210840002826D002
:1029A000204602F076F82068806840210840002820
:1029B00019D020688068884321688860606E00288C
:1029C0000DD01B48616E4863606EFEF793FB0028D4
:1029D00012D0606E416B00E00FE088470CE02046AB
:1029E000FFF750FF08E02046FFF74CFF04E02046C9
:1029F000FFF748FF0020E06669E7802028400028B4
:102A000007D080203040002803D0204602F09CF9F7
:102A10005DE740202840002807D0402030400028B3
:102A200003D0204602F046F851E700BF4FE7000010
:102A30007B4A000810B50446002C01D1012010BDCE
:102A4000A069002800D000E000BF6920005D0028D8
:102A500005D1002168200155204600F05BF82421B3
:102A6000692001552068006840084000216808601E
:102A7000204602F077F8012800D1E0E7606A0028DC
:102A800002D0204601F072FF206840680121C9028F
:102A9000884321684860206880680821884321684D
:102AA000886020680068012108432168086020468A
:102AB00001F0D4FFC3E7000010B5044611492068B7
:102AC00088420DD1104880690121890388430E494D
:102AD0008861032149020920C006FEF719FC0FE0B6
:102AE0000A49206888420BD10748C069012149047E
:102AF00088430549C86106490920C006FEF708FC5D
:102B000010BD0000003801400010024000440040A9
:102B10000840000010B586B0044629492068884264
:102B200028D100BF2748806901218903084325492E
:102B3000886108468069012189030840009000BF30
:102B400000BF032040020190022002900120039068
:102B5000032004900120059001A90920C006FEF77A
:102B60009FFC012200211B20FFF7AAF81B20FFF782
:102B70009BF822E01449206888421ED100BF11480A
:102B8000C0690121490408430E49C8610846C0696B
:102B9000012149040840009000BF00BF0B4801908C
:102BA0000220029001200390032004900120059050
:102BB00001A90920C006FEF773FC06B010BD000095
:102BC000003801400010024000440040084000006E
:102BD00010B503466A20C05C20285AD1002901D0D4
:102BE000002A01D1012010BD012424039868A042CD
:102BF00008D11869002805D1C807C00F002801D0E6
:102C00000120F0E700BF6820C05C012801D102204C
:102C1000E9E701246820C45400BF59655820C25216
:102C20005A20C25200BF24039868A0420AD11869F2
:102C3000002803D1184C5C20C45210E0FF245C2013
:102C4000C4520CE09868002809D11869002803D103
:102C5000FF245C20C45202E07F245C20C45200BFE9
:102C60000020D86622246A20C45400BF00246820B3
:102C7000C45400BF18688068012420431C68A06009
:102C800018680068FF24213420431C68206000205D
:102C9000A9E70220A7E70000FF01000010B50446E5
:102CA0000648844208D1202205492046FFF790FFBC
:102CB000002801D0FDF754FD10BD00009801002050
:102CC00060030020FEB504460D4616461F46002050
:102CD00001906920005D20286AD1002D01D0002ECE
:102CE00001D10120FEBD01210903A068884208D15D
:102CF0002069002805D1E807C00F002801D0012075
:102D0000F0E700BF6820005D012801D10220E9E75B
:102D100001216820015500BF0020E06621216920C3
:102D20000155FEF7C5FC0190502006535220065372
:102D300025E05220005B401E81B2522001530097D3
:102D4000002280212046019B02F037F8002801D0A4
:102D50000320C7E701210903A06888420BD120693D
:102D6000002808D10295029D2888C005C00D216861
:102D70000885AD1C03E028786D1C21680885522069
:102D8000005B0028D5DC0097002240212046019BF3
:102D900002F013F8002801D00320A3E720216920C6
:102DA000015500BF00216820015500BF002099E7B0
:102DB000022097E7704700BFFEE701688969022299
:102DC00011404908002902D000210268916201687F
:102DD0008969C907C90F012251405140002904D116
:102DE00001688969114302689161704770B50446B2
:102DF0000D46164620688069102108400009002809
:102E00003AD015E0681C002812D0002D04D0FEF73F
:102E10004FFC801BA8420BD92021412001550021E5
:102E20004220015500BF4020015500BF032070BD66
:102E3000206880692021084040090028E2D0102045
:102E40002168C86120202168C8612046FFF7B5FFCE
:102E5000206840680949084021684860042060648F
:102E600020214120015500214220015500BF402072
:102E7000015500BF0120DAE70020D8E700E800FE96
:102E8000FFB581B0044615461E460A9F0120400347
:102E9000F2B2002300902046029900F03BF8394638
:102EA00020460B9A00F0A4F8002807D0606C042894
:102EB00002D1012005B0F0BD0320FBE7012E03D1B4
:102EC000E8B22168886216E0FF2000022840001264
:102ED00021688862394620460B9A00F089F800285C
:102EE00006D0606C042801D10120E3E70320E1E76C
:102EF000E8B2216888620B983B460022402100908E
:102F0000204600F01FF8002801D00320D2E700205F
:102F1000D0E70000F0B50C46002105686968084D4F
:102F20002940A505AD0D1604FF273F043E4035435B
:102F30001D43059E3543294305686960F0BD0000C7
:102F4000009800FCF8B504460E4617461D4616E0EC
:102F5000681C002813D0002D05D0FEF7A9FB0699A8
:102F6000401AA8420BD920214120015500214220BE
:102F7000015500BF4020015500BF0320F8BD206867
:102F800080693040B04201D1012000E00020B84209
:102F9000DED00020F2E770B504460D4616461EE06E
:102FA000324629462046FFF721FF002801D00120A4
:102FB00070BD002D04D0FEF77BFB801BA8420ED90C
:102FC000606C2021084360644120015500214220AB
:102FD000015500BF4020015500BF0320E8E72068ED
:102FE00080692021084040090028D9D00020DFE76F
:102FF00070B504460D46164621E032462946204665
:10300000FFF7F4FE002801D0012070BD681C0028E5
:1030100015D0002D04D0FEF74BFB801BA8420ED923
:10302000606C20210843606441200155002142204A
:10303000015500BF4020015500BF0320E5E720688F
:1030400080690221084040080028D6D00020DCE733
:1030500070B5314E002406E0A000304940180068E9
:10306000A1007050641C282CF6D30025002403E036
:10307000A00030584519641C272CF9D32648007845
:10308000622810D12448407869280CD122488078E1
:103090006B2808D12048C078652804D11E488030AC
:1030A000C069A84209D07D20C0001B498860C86063
:1030B00008610020486101208861382200211848F9
:1030C000FDF74BF8144840691549886108460068C7
:1030D0000121090388434018114908600846006A25
:1030E000012108430E4908620B488069486208467E
:1030F00000680121090588430949086008460068FD
:103100000121C9048843064908603020024948600B
:1031100004480549086070BDB803002000FC0008A1
:10312000800300207C5000082000002010B50024FF
:1031300000F0E6F8012149034C48FEF7A9FA0028FF
:1031400001D1012000E00020044301218903474808
:10315000FEF79EFA002801D1022000E0002004437F
:103160000121C9034148FEF793FA002801D1042048
:1031700000E00020044301213D48FEF789FA0028C1
:1031800001D1082000E00020044302213848FEF766
:103190007FFA002801D1102000E000200443012123
:1031A000C9030920C006FEF773FA002801D14020A8
:1031B00000E00020044308212E48FEF769FA0028A9
:1031C00001D1802000E000200443FF210131294883
:1031D000FEF75EFA002802D1FF20013000E0002057
:1031E0000443012149022348FEF752FA002802D184
:1031F0000120400200E00020044310211D48FEF79A
:1032000047FA002802D10120800200E00020044398
:1032100001210920C006FEF73BFA002802D1012057
:10322000C00200E00020044302210920C006FEF78E
:103230002FFA002802D10120000300E000200443FF
:103240000D48006884420AD10C4801680068401C9F
:103250000A4A10600A2905D30948046002E00020E8
:10326000064908600448046010BD000000080048DA
:10327000001400480004004824000020280000201A
:10328000080000200EB51C481C490860002048605A
:1032900000211A488160C16001210161042141615E
:1032A00000218161C16101624162FF21C2318162FD
:1032B0000021C162016301214163FDF751FD002836
:1032C00001D0FDF74DFA0420009080020190072004
:1032D000029069460948FDF71FFC002801D0FDF760
:1032E0003FFA0720009069460448FDF715FC0028C6
:1032F00001D0FDF735FA0EBD00240140B0000020DA
:1033000000B587B000BF384840690121C9040843AF
:1033100035494861084640690121C90408400190C7
:1033200000BF00BF00BF30484069C90008432E49B4
:10333000486108464069012189050840019000BFA5
:1033400000BF00BF28484069491108432649486129
:1033500008464069012149040840019000BF00BFB0
:1033600000BF21484069490008431F494861084699
:103370004069012189040840019000BF00BF072077
:103380004003029000200390049002A91748FEF722
:1033900087F80320029000200390049002A91448AB
:1033A000FEF77EF81348029000200390049002A9D3
:1033B0000920C006FEF774F86320C00002900020C8
:1033C0000390049002A90C48FEF76AF80B4802909B
:1033D0000120039000200490059002A90648FEF702
:1033E0005FF807B000BD0000001002400008004870
:1033F000001400480380000000040048070C00008F
:1034000010B513481349086013484860002111485B
:1034100081600121C1600021016141618161C1615F
:103420000162FEF7BBF9002801D0FDF799F90021F0
:103430000848FEF743F9002801D0FDF791F9002173
:103440000448FEF772F9002801D0FDF789F910BD94
:1034500000540040FC0000200E09002010B5164862
:1034600016490860E120400248600021134881604D
:10347000C16001610C21416100218161C161016272
:1034800000200E4948620846FFF7D5F9002801D010
:10349000FDF766F90948FFF7CDFA002801D0FDF7DE
:1034A0005FF9202206490548FFF792FB002801D06A
:1034B000FDF756F910BD00000038014098010020CA
:1034C000600300207FB56B48017E408B081AC5B2AF
:1034D000002D00D17FBD68480078A84210D120217E
:1034E00064482030817200206349087020226349BB
:1034F00060484038FFF76CFB002872D0FDF730F9C8
:10350000B0E05E485C490978405CAB286AD15B4911
:1035100059480078001D085CEF28F7D10846564945
:103520000978441854480078401D53490870607861
:10353000042814D008DC00280DD001280CD0022863
:103540000BD0032877D109E0052809D0302857D0BF
:1035500040287ED155E000BF00BF00BF00BF00BFC4
:10356000A0780002E17808434549C8610846006830
:103570004003C00F002836D00846C069002802D199
:10358000404908803BE03E48C0693F49884203D03B
:103590003C48008820281CD1394800680121890452
:1035A000884337490860AA216846017001214170AB
:1035B000002181700121C170EF210171334B05227F
:1035C00069462C484038FFF77DFB002817D0FDF7EF
:1035D000C7F82C480088802811D30020294908808A
:1035E0000DE045E037E02648C069002807D12448AF
:1035F00000680121C904884340182149086029E076
:1036000028E0A078002809D1E078012806D11C48DC
:10361000006A022108431A49086219E0A0780128CB
:103620000AD1E078012807D11548006A02218843B1
:10363000134908620CE00CE0A078002808D1E0787B
:10364000002805D10E48006A042108430C4908628D
:1036500000E000BF05E008480078401C06490870FB
:1036600000E000BF04480078281A052800DB48E77E
:1036700000BF2FE7D8010020740000206003002065
:103680008003002070000020FFFF0000881300006E
:103690001FB5BA48FDF708F90446AA21684601702B
:1036A000002141708170C170EF210171B448006840
:1036B0000003C00F002800D11FBD002C7ED1B148EF
:1036C000006810286BD1AE480068C002C00F002807
:1036D0004FD1AB48406A022818D1AA216846017030
:1036E00040214170002181700121C170EF210171E1
:1036F000A54B05226946A548FFF7E4FA002801D04A
:10370000FDF72EF86420FDF721FD1BE09C48406A80
:10371000012817D1AA21684601704021417000217B
:1037200081700221C170EF210171974B052269461A
:103730009648FFF7C7FA002801D0FDF711F864207A
:10374000FDF704FD8E4800680121090588434018F3
:103750008B4908600121684641700021C1708A4B85
:10376000052269468948FFF7ADFA00287ED0FCF7AC
:10377000F7FF8348006801210905884380490860F4
:103780000221684641700021C1707F4B05226946C5
:103790007E48FFF797FA0028E8D0FCF7E1FF794868
:1037A000006801280DD1032069464870764B052238
:1037B0007648FFF787FA0028D8D000E0A4E0FCF7AD
:1037C000CFFF7048006802280BD10420694648707A
:1037D0006D4B05226D48FFF775FA0028C6D0FCF73F
:1037E000BFFF6848006804281AD169480078401C67
:1037F000C0B267490870092801DD0920087030212E
:1038000068464170624801786846C1705E4B052287
:1038100069465E48FFF756FA002871D0FCF7A0FF12
:1038200058480068082819D159480078002804D061
:1038300057480078401E564908703021684641704C
:10384000534801786846C1704F4B052269464F487E
:10385000FFF738FA002853D0FCF782FF4948006888
:103860000121090388424BD1454800E048E0406A05
:10387000012825D14248006A0221084000281FD0B3
:1038800002203F494862434988613D480068C002C0
:10389000C00F002834D0AA21684601704021417031
:1038A000002181700121C170EF210171364B052289
:1038B00069463648FFF706FA002821D0FCF750FF8A
:1038C00001202F494862334988612D480068C002B1
:1038D000C00F002814D0AA21684601704021417011
:1038E000002181700221C170EF210171264B052258
:1038F00069462648FFF7E6F9002801D0FCF730FFBB
:1039000000202549088035E001200003844231D1A0
:103910001B48406A01282DD11F4801880088401C9F
:103920001D4A10801E291DD1002415480068012160
:1039300089048843401812490860AA21684601702A
:1039400005214170002181700121C170EF210171B9
:103950000D4B052269460D48FFF7B4F9002809D040
:10396000FCF7FEFE0C4800881E2803DD00241F2003
:10397000094908800348046000BF9DE61F1000004D
:1039800080030020640000208813000098010020BC
:103990006C000020B80300206E00002070B586B0D7
:1039A00004460025F8480078401CF74908700A21B1
:1039B000F5480078FCF7ACFBC8B2F349087000BFCB
:1039C00004E0002001A94855681CC5B2142DF8D3A5
:1039D00020784007C00F00280FD0EB48007805285A
:1039E0000BDC6946087910210843694608710122F9
:1039F0000421E648FDF755FE04E000220421E348D7
:103A0000FDF74FFE20780007C00F00280FD0DE48DA
:103A1000007805280BDC6946887B802108436946CD
:103A2000887301229102D948FDF73BFE05E0002290
:103A300001218902D548FDF734FE2078C007C00F68
:103A400000280BD06946C879102108436946C8711F
:103A500001221146CD48FDF724FE04E00022012199
:103A6000CA48FDF71EFE20788007C00F002805D049
:103A700069464879102108436946487120888004C6
:103A8000C00F002805D06946087A0121084369461D
:103A9000087220884004C00F002805D06946487A83
:103AA000012108436946487220780006C00F0028AB
:103AB00005D06946087C802108436946087420883F
:103AC0000004C00F002805D06946887D08210843FE
:103AD00069468875606A012806D16946087D042117
:103AE00008436946087512E0606A022806D16946F3
:103AF000087D082108436946087508E0606A0828BF
:103B000005D16946087D0221084369460875206889
:103B10008003C00F002805D06946087D02210843B4
:103B2000694608752068C002C00F002806D06946A3
:103B3000C87C802108436946C87405E06946087D51
:103B400080210843694608756946487C80210843FE
:103B5000694648742069030001F0B4F90906111898
:103B60001F262D343B42490087480078052805DD93
:103B70006946487C802188436946487438E0694634
:103B8000C87D012108436946C87531E06946C87D92
:103B9000052108436946C8752AE06946C87D0721A2
:103BA00008436946C87523E06946C87D0F2108436C
:103BB0006946C8751CE06946C87D8F21084369467F
:103BC000C87515E06946C87DAF2108436946C875C8
:103BD0000EE06946C87DEF2108436946C87507E0D5
:103BE0006946C87DFF2108436946C87500E000BFEB
:103BF00000BF0A21A068FCF78BFA061E01DB3146E4
:103C000000E0714208460A21FCF782FA6048405CF5
:103C100000116946C97A08436946C8720A21A0683A
:103C2000FCF776FA061E01DB314600E071420846D9
:103C30000A21FCF76DFA5648405C00016946097B91
:103C40000843694608730A21A068FCF761FA061E5A
:103C500001DB314600E0714208460A21FCF758FAC0
:103C60004B49085C00116946897A084369468872A5
:103C70000A21A068FCF74CFA061E01DB314600E081
:103C8000714208460A21FCF743FA4149085C0001E9
:103C90006946C97A0843C1B26846C172C07A082130
:103CA00008436946C872A068002804DA887A0821A7
:103CB00008436946887220688002C00F002875D0CA
:103CC0000A21A06AFCF70EFA3249095C68460079BD
:103CD0000143684601710A21A06AFCF703FA2D48E6
:103CE000415C684640790143684641710A21E06AB7
:103CF000FCF7F8F92749095C684680790143684672
:103D000081710A21E06AFCF7EDF92248415C6846BE
:103D1000C07901436846C17120684002C00F002885
:103D20003AD019480078052827DD606B002806D0B6
:103D300001280BD0022810D003281CD114E06946BA
:103D40000879102108406946087115E069464879EC
:103D500010210840694648710EE0694688791021B3
:103D600008406946887107E06946C8791021084013
:103D70006946C87100E000BF00BF6946887910211C
:103D800008436946887111E07C0000200004004867
:103D90009C51000874510008EE480078052805DCA5
:103DA0006946887910210843694688710A21E068CC
:103DB000FCF798F906460A21FCF794F9E648405CBE
:103DC00001116846407D0143684641750A21E0685B
:103DD000FCF788F906460A21FCF784F9DE48405CC6
:103DE00001016846407D0143684641756421E068F1
:103DF000FCF778F906460A21FCF774F9D648405CCE
:103E000001116846807D0143684681756421E06840
:103E1000FCF768F906460A21FCF764F9CE48405CD5
:103E200001016846807D014368468175417D082017
:103E30000143684641750A21A069FCF753F9C74858
:103E4000405C0107090F6846007B01436846017327
:103E50000A21A069FCF746F9C048405CF0210840FF
:103E60006946497B0843694648730A21A069FCF703
:103E700039F906460A21FCF735F9B848405C0007D5
:103E8000000F6946497B0843694648730A21A069C7
:103E9000FCF728F906460A21FCF724F9AF48405CF4
:103EA000F02108406946897B08436946887364218C
:103EB000A069FCF717F906460A21FCF713F9A74891
:103EC000405C0007000F6946897B08436946887398
:103ED0006421A069FCF706F906460A21FCF702F9FD
:103EE0009E48405CF02108406946C97B084369460A
:103EF000C8737D21C900A069FCF7F4F806460A21C1
:103F0000FCF7F0F89548405C0007000F6946C97B54
:103F100008436946C8737D21C900A069FCF7E2F82F
:103F200006460A21FCF7DEF88C48405CF021084088
:103F30006946097C0843694608748949A069FCF709
:103F4000D1F806460A21FCF7CDF88448405C00070A
:103F5000000F6946097C0843694608748049A069D6
:103F6000FCF7C0F806460A21FCF7BCF87B48405C29
:103F7000F02108406946497C084369464874487BFB
:103F800080210843694648730A216069FCF7AAF852
:103F90007448405C00116946497A08436946487292
:103FA0000A216069FCF79EF86E48405C0001694692
:103FB000897A0843C1B2684681720A216069FCF7B8
:103FC00091F806460A21FCF78DF86648405C01111D
:103FD0006846007A0143684601720A216069FCF76D
:103FE00081F806460A21FCF77DF85E48405C010135
:103FF0006846407A014368464172C07B802108438D
:104000006946C8736068012806D002280BD00328CF
:1040100010D004281CD114E06946087A8021084396
:10402000694608721BE06946087A20210843694600
:10403000087214E06946087A40210843694608720C
:104040000DE06946087A102108436946087206E0C7
:104050006946087AF02188436946087200BF00BFAC
:104060000A21E069FCF73EF83F48405C0007000F7A
:104070006946497C0843694648740A21E069FCF7AF
:1040800031F83948405CF02108406946897C084392
:10409000694688740A21E069FCF724F806460A217B
:1040A000FCF720F83048405C0007000F6946897C27
:1040B0000843694688740A21E069FCF713F806464C
:1040C0000A21FCF70FF82848405CF02108406946B7
:1040D000C97C08436946C8746421E069FCF702F8AA
:1040E00006460A21FBF7FEFF1F48405C0007000F51
:1040F0006946C97C08436946C8746421E069FBF7D6
:10410000F1FF06460A21FBF7EDFF1748405CF0215E
:1041100008406946097D0843694608757D21C90044
:10412000E069884205D36946087D01210843694654
:104130000875606A012805D16946887C802108439A
:104140006946887401AA14210020FCF7ABF906B077
:1041500070BD00007C0000207E51000888510008DE
:104160001027000092510008A651000810B52A48F7
:104170004469282C00D9282428480068401C274975
:10418000086008460068142804D22548406922497E
:10419000886140E021480068322808D2002C3AD0DB
:1041A00032201E49086000201B49886133E01B480B
:1041B0000068322803D10020174988612BE03220A3
:1041C0001649086017480068001916490860084633
:1041D0000068154988421ED30020124908600E4825
:1041E0008069401C0C498861084680690F498842F3
:1041F00002D900200849886109484069401C0849E3
:104200004861084640690949884202D900200449AA
:10421000486100F013FE10BD800300203C00002028
:10422000B803002038000020A08C00009F86010009
:104230007047000070B505461F480068A84201D2CB
:104240001E4870BD00240BE0E0001B490858A8423E
:1042500005D3601CC0000858A84200D202E0641CCC
:104260001C2CF1D300BF1C2C02D114484042E8E7BB
:10427000002619E0E100104A5258611CC9000E4B9B
:104280005958511A714308463221FBF741FFE100AA
:10429000094A5158081AA84205D8E00011464018AA
:1042A00040688019CDE7761C322EE3DB601CC0002D
:1042B000014940184068C4E78C50000819FCFFFF12
:1042C00010B5002819DA1A4A03071B0F083B9B0890
:1042D0009B00D2588307DC0EFF23A3409A438B0731
:1042E0001B0E8407E40EA3401A43114B0407240F4E
:1042F000083CA408A4001A5118E00E4A03231B022C
:10430000D21883089B00D2588307DC0EFF23A340FA
:104310009A438B071B0E8407E40EA3401A43054BF8
:10432000032424021B198408A4001A5110BD0000A4
:104330001CED00E000E100E0FEB505460C4600265D
:104340007D20C0000321184A0123009201910290B0
:104350000222A2211548FDF749FB0646002E01D096
:104360000020FEBD104800784006400E0E4908703F
:10437000084640784006400E48700846807880061F
:10438000800E8870012D0DD1887800F05EF82070C5
:104390000549487800F059F860700349087800F042
:1043A00054F8A0700120DCE77D000020FC00002014
:1043B000F8B505460C46012D2FD12078172801DDD0
:1043C0000020207060783B2801DD00206070A0781C
:1043D0003B2801DD0020A07020780A21FBF798FE21
:1043E000060120780A21FBF793FE0E4326706078C1
:1043F0000A21FBF78DFE060160780A21FBF788FE93
:104400000E436670A0780A21FBF782FE0601A078B1
:104410000A21FBF77DFE0E43A670022008490870B2
:10442000A0784870607888702078C8707D20C000BF
:1044300004230A46A22100900248FDF719FAF8BDAC
:104440007D000020FC0000207047014608110A2270
:1044500050430A07120F8018C0B27047704710B55A
:10446000FDF7D4FBFEF7F8F810BD30B595B01A2073
:10447000099001200C900E9010200D900F900120BB
:10448000109002201190002112910521C90413916E
:104490000021149109A8FDF709FE002801D0FCF7BE
:1044A0005FF90720059002200690002007900890F1
:1044B000012105A8FDF7B6FC002801D0FCF750F952
:1044C0002120019000200390049001A8FDF702FC38
:1044D000002801D0FCF744F9FDF76EFD05467D216B
:1044E000C900FBF7FFFD0446FEF79AF80420FEF72B
:1044F00083F800221146501EFDF7E2FB15B030BDD7
:1045000019480068012108431749086008464068B7
:104510001649084014494860084600681449084094
:1045200011490860084600680121890488430E4942
:104530000860084640683F21090488430A494860EA
:104540000846C06A00090001C8620846006BFF21E6
:1045500014318843044908630846406B4008400012
:104560004863002088607047001002400CB8FF08C4
:10457000FFFFF6FE10B50248FEF775F810BD00000B
:104580005801002010B5F14800688002C00F0028D3
:1045900000D110BDED4800684002C00F002831D1A5
:1045A000EB48006800282DD01020FCF77DF900288A
:1045B00016D0E8480068FCF73DFAE749884221D95F
:1045C0000020E249486308460068012189058843C4
:1045D0004018DE490860FDF76BF8DE49086011E01D
:1045E0000020C043FCF760F9002804D1FCF722FA50
:1045F000DA49884202D90020D5490860FDF758F809
:10460000D4490860D14800684002C00F002871D02A
:104610000020C043FCF748F90446002C12D1D048D2
:10462000006802280ED1FDF743F8CA490860C74860
:10463000406B401CC54948630846808E8007800F48
:10464000486316E0002C14D1C5480068012810D139
:10465000FDF72EF8BF490860BC48406B002805D024
:10466000BA48406B401EB949486302E00320B7498D
:104670004863002C71D1BA4800680428FAD1FDF7CC
:1046800017F8B4490860B148406B002806D00128EB
:104690001FD0022848D0032866D151E0AB48806A79
:1046A0000A30AA498862886A0A21FBF71BFD0329A0
:1046B00007D9A649886A1421FBF714FDA348816233
:1046C00006E0A249886A1E21FBF70CFD9F48816223
:1046D00052E09E48806A142813D39C49886A0A21B4
:1046E000FBF700FD032906D29848806A401C9749D1
:1046F000886218E01DE19548806AC01E934988626F
:1047000011E09249886A0A21FBF7ECFC092905D2DD
:104710008E48806A401C8D49886204E08B48806A1C
:1047200009388A49886227E08848C06A0A30874980
:10473000C862C86A3C21FBF7D5FC8448C1621BE013
:104740008249C86A0A21FBF7CDFC092906D27F48B5
:10475000C06A401C7D49C86205E019E07B48C06A18
:1047600009387A49C86207E078480068012189055C
:1047700088437649086000BF00BF7448008D7949BE
:1047800008707248808D48700120FFF711FE93E099
:10479000002CFCD1724800680828F8D1FCF788FF8B
:1047A0006C4908606948406B002806D0012821D078
:1047B000022846D003286CD153E06448806A0A2856
:1047C00005D36248806A0A386049886211E05F490F
:1047D000886A0A21FBF786FC032905D95B48806AB1
:1047E0000A305A49886204E05848806A14305749B0
:1047F000886256E05549886A0A21FBF773FC002954
:1048000005D05248806A401E5049886218E04F48DF
:10481000806A14280AD34D49886A0A21FBF762FC92
:104820000A214843C01C4949886209E04749886A0F
:104830000A21FBF757FC0A214843093043498862A3
:104840002FE04248C06A0A2805D34048C06A0A38A7
:104850003E49C86204E03D48C06A32303B49C86204
:104860001FE03A49C86A0A21FBF73CFC002905D041
:104870003648C06A401E3549C86209E03349C86AF3
:104880000A21FBF72FFC0A21484309302F49C8624F
:1048900007E02E4800680121890588432B490860FC
:1048A00000BF00BF2948008D2E4908702748808D21
:1048B00048700120FFF77CFD26480068FCF7BAF835
:1048C0002949884206D92148006801218905884381
:1048D0001E4908601020FBF7E7FF002815D01D488F
:1048E0000068FCF7A7F81C4988421FD90020184926
:1048F000086016480068012189058843134908604B
:10490000FCF7D6FE1349086010E07F208001FBF71A
:10491000CBFF002806D00D48006801218905884397
:104920000A490860FCF7C4FE0A4908600C480460A4
:104930000AE00C490120FFF7FFFC0A480078034910
:10494000886208484078C86200BF22E680030020E1
:104950005C0000205800002070170000B80B000019
:10496000600000208300002030750000818CC907A2
:10497000C90F002908D001684968012252049143F7
:10498000826A1143026851600222416A1140002983
:1049900007D001684968D2039143C26A1143026893
:1049A00051600422416A1140002907D0016849681A
:1049B00012049143026B1143026851600822416A5C
:1049C0001140002907D00168496812039143426BE6
:1049D0001143026851601022416A1140002907D03A
:1049E0000168896812029143826B114302689160E9
:1049F0002022416A1140002907D00168896812020B
:104A00009143C26B1143026891604022416A114098
:104A1000002915D00168496892039143026C114343
:104A20000268516001221205016C914208D10168AF
:104A30004968032252059143426C11430268516058
:104A40008022416A1140002907D001684968120399
:104A50009143826C11430268516070470146002007
:104A6000C8662022692042546A20425400BF0022B6
:104A70006820425400BF0020704770B505466C6A3C
:104A800000215A200153522001532046FDF7FAFE1F
:104A900070BD01680968FF222132914302681160EC
:104AA00001688968490849000268916020226A21EA
:104AB0000A54704710B504462068006840218843B6
:104AC000216808602021692001552046FEF772F90F
:104AD000002010BDF8B504465C20075B6A20005D2D
:104AE000222836D12068858C01210903A0688842DC
:104AF0000AD12069002807D1666D284638403080E9
:104B0000606D801C606505E0F8B22840626D511C44
:104B1000616510705A20005B401E81B25A2001531B
:104B2000002914D120680068FF21213188432168C1
:104B30000860206880684008400021688860202163
:104B40006A2001552046FEF7A9F80020F8BD002094
:104B5000FCE72068806908210843216888610220F9
:104B6000F4E70000FEB504460025102600270020CB
:104B7000029001902169A068084361690843E169D6
:104B800008430546206800686849084028432168B2
:104B9000086020684068032109038843E1680843EE
:104BA00021684860216AA06908430546206880683A
:104BB0000B210902884328432168886000BF5C49B3
:104BC0002068884217D15B48006B8007800F00285F
:104BD00006D0012808D0022808D0032808D101E017
:104BE000002607E0022605E0042603E0082601E08F
:104BF000102600BF06E050492068884201D10026F7
:104C000000E0102600BF0121C903E069884249D1B4
:104C1000042E20D004DC002E07D0022E32D111E069
:104C2000082E25D0102E2DD12DE0FDF7CBF9400018
:104C300061684908401800906168FBF753FA80B238
:104C4000029023E061684A083C4BD018FBF74AFA0F
:104C500080B202901AE0FDF7C7F940006168490888
:104C6000401800906168FBF73DFA80B202900DE0B9
:104C700061684A0801231B04D018FBF733FA80B29D
:104C8000029003E000BF0120019000BF00BF2C494B
:104C900002980840074602980007400F0743206823
:104CA000C76040E0042E21D004DC002E07D0022E85
:104CB00034D111E0082E26D0102E2FD12FE0FDF791
:104CC00081F961684908401800906168FBF70AFAA9
:104CD00080B22168C86025E061684A08194BD01885
:104CE000FBF700FA80B22168C8601BE0FDF77CF991
:104CF00061684908401800906168FBF7F3F980B2D9
:104D00002168C8600EE061684A080123DB03D018FF
:104D1000FBF7E8F980B22168C86003E000BF01201A
:104D2000019000BF00BF0198FEBD0000F369FFFFC6
:104D30000038014000100240004400400024F4000C
:104D4000F0FF000000127A0001466920405C212833
:104D500031D15220405A00280DD1086800688023C4
:104D600098430B68186008680068402318430B6874
:104D700018600020704701231B03886898420CD1FB
:104D80000869002809D1CA6C1088C005C00D0B68DD
:104D90001885C86C801CC86405E0CB6C581CC864BE
:104DA00018780B6818855220405A401E83B2522052
:104DB00043520020DEE70220DCE7FFB581B0044665
:104DC0000D4617460A9E24E0701C002821D0002EB4
:104DD00005D0FCF76DFC0499401AB04219D920683F
:104DE0000068FF21A131884321680860206880683D
:104DF00040084000216888602021692001556A2010
:104E0000015500BF00216820015500BF032005B0F7
:104E1000F0BD2068C0692840A84201D1012000E00F
:104E20000020B842D0D00020F1E7000010B50248C1
:104E3000FDF736FD10BD000098010020F0B585B0EB
:104E40000027002003901D4DFCF74CFA0020009035
:104E50001B4801900120029003A96846FCF784F9E1
:104E6000622029460870692048706B208870652090
:104E7000C870002128468030C161002409E00F4835
:104E80008030C069A100695841180C488030C16168
:104E9000641C272CF3D30A4F002409E0A0002E58ED
:104EA000A000C119324600230220FCF7BDF9641CA2
:104EB000282CF3D3FCF7AEF905B0F0BDB803002001
:104EC00000FC000830B47446641E2578641CAB42B4
:104ED00004D3635D5B00E31830BC18471D46F8E758
:104EE00002E008C8121F08C1002AFAD170477047B3
:104EF000002001E001C1121F002AFBD17047000011
:104F00001CB5FCF78BFEFFF7B0FAFEF7F9F9FEF7D8
:104F100077FAFEF7A3FAFEF7B5F9FBF7F5FBFEF714
:104F200097F80120FBF78EFA002506E0FBF750FD0D
:104F3000FBF714FDFBF7C0FC6D1C402DF6D3434975
:104F40000120FFF7F9F9400501214905084006460F
:104F50003F480068884330433D49086000BFFCF784
:104F6000A7FB7D21C9008842F9D30020FBF76AFA2C
:104F7000AA21684601703021417000218170012111
:104F8000C170EF210171334B052269463248FDF7AC
:104F900099FE002801D0FBF7E3FB55E0FCF788FB06
:104FA00004462E480068844204D32C480068201A26
:104FB0000A280AD82948006884420AD2274800688B
:104FC0002749081A00190A2803D924480460FEF763
:104FD000ADF824480068844204D322480068201AAF
:104FE00064280AD81F480068844213D21D4800680C
:104FF0001B49081A001964280CD91A480460FBF7E9
:1050000073FAFFF7BFFAFEF743FBFEF75BFA1048AF
:10501000FEF7C4FC14480068844206D312480068B6
:10502000201A7D21C90088420CD80F4800688442AC
:105030000AD20D4800680A49081A00197D21C900E2
:10504000884201D908480460A8E7000083000020D6
:105050008003002088130000980100201000002029
:10506000FFFF00000C00002014000020CD00D30042
:10507000DA00E100E800EF00F500FB00A401AA015E
:10508000B201BB01C401CD01D601E001C42106007B
:1050900070FEFFFFE94B0400A2FEFFFF0C0E0300B1
:1050A000D4FEFFFFBD33020006FFFFFFA99B0100F6
:1050B00038FFFFFF4A3001006AFFFFFF86E3000070
:1050C0009CFFFFFFFAAB0000CEFFFFFF55830000FF
:1050D000000000004565000032000000CF4E0000D7
:1050E00064000000DD3D000096000000F730000085
:1050F000C800000010270000FA000000651F000033
:105100002C0100006A1900005E010000B5140000C7
:1051100090010000FC100000C2010000040E00001D
:10512000F4010000A20B000026020000A20B000008
:1051300058020000260800008A020000E006000075
:10514000BC020000D4050000EE020000F6040000DE
:10515000200300003F04000052030000A6030000EB
:105160008403000025030000B6030000BA0200001B
:10517000E8030000CF06AD2F666BEB07EF6F3F062D
:105180005B4F666D7D0E7F6F3F065B4F666D7D0EDC
:105190007F6FCF06AD2F666BEB07EF6F3F066D4F4E
:1051A000565B7B077F5F3F065B4F666D7D0E7F6FB3
:1051B00000000000000000000102030406070809C7
:1051C0000000000001020304E85100080000002074
:1051D00090000000E04E0008785200089000002087
:1051E000E8070000F04E000800000000000000008A
:1051F00000000000000000000000000000000000AF
:10520000000000000000000000000000000000009E
:10521000000000000000000000000000000000008E
:10522000000000000000000000000000000000007E
:10523000000000000000000000000000000000006E
:10524000000000000100000000000000000000005D
:10525000000000000000000000000000000000004E
:10526000000000000000000000000000000000003E
:085270000000000000127A00AA
:04000005080000B53A
:00000001FF
