:020000040800F2
:10000000B8070020C9000008913F0008752E0008BD
:1000100000000000000000000000000000000000E0
:10002000000000000000000000000000BD410008CA
:100030000000000000000000A9410008FD41000888
:10004000DB00000800000000DB000008DB00000807
:10005000DB000008DB000008DB000008FD060008EC
:1000600000000000DB000008DB000008DB000008E7
:10007000DB000008DB000008DB00000800000000D7
:1000800015430008DB00000800000000DB0000084A
:10009000DB000008DB000008DB000008DB000008D4
:1000A000DB000008DB000008DB000008DB000008C4
:1000B000DB0000080348854600F062F8004800476E
:1000C0003D4E0008B8070020044880470448004718
:1000D000FEE7FEE7FEE7FEE7FEE7FEE7A1420008D7
:1000E000B500000830B50B4601460020202201244F
:1000F00009E00D46D5409D4205D31D469540491B5C
:100100002546954040191546521E002DF1DC30BDA4
:1001100070B500242546002801DA01244042002958
:1001200001DA01254942FFF7DDFFAC4200D0404231
:10013000002C00D0494270BD10B5202A04DB0846CF
:10014000203AD040002110BD0B46D340D04020249F
:10015000A21A91400843194610BDD2B201E00270C4
:10016000401C491EFBD270470022F6E710B513462B
:100170000A4604461946FFF7F0FF204610BD00006E
:10018000064C0125064E05E0E36807CC2B430C3CEA
:1001900098471034B442F7D3FFF790FFBC500008E3
:1001A000DC50000870B504460025206880680421F2
:1001B00008408008002829D020688068084000286E
:1001C0000BD02068806802210840002805D12068F3
:1001D0008068102108432168886001F009FA05460B
:1001E0000EE001F005FA401B022809D9606C1021CD
:1001F00008436064A06C01210843A064012070BD25
:1002000020688068042108400028EAD10020F6E731
:1002100070B504460025206880688007800F01289B
:100220000ED120680068C007C00F002806D12068E2
:10023000C0680121C9030840884201D1012000E0C3
:100240000020002837D02068806805210840012858
:1002500000D100E0002000280AD000BF206880689C
:10026000022108432168886003202168086009E0B2
:10027000606C102108436064A06C01210843A064F5
:10028000012070BD01F0B4F905460EE001F0B0F9AF
:10029000401B022809D9606C102108436064A06CDF
:1002A00001210843A0640120EBE720688068C007B3
:1002B000C00F0028EAD10020E3E7000038B504466B
:1002C000002500200090206880688007800F0128AA
:1002D0000ED120680068C007C00F002806D1206832
:1002E000C0680121C9030840884201D1012000E013
:1002F0000020002843D12068806822490840002857
:1003000001D1012000E00020002809D1606C1021FB
:1003100008436064A06C01210843A064012038BD3B
:1003200020688068012108432168886016491748C1
:100330000068FFF7D7FE009002E00098401E009092
:1003400000980028F9D101F053F905460EE001F0BC
:100350004FF9401B022809D9606C102108436064E2
:10036000A06C01210843A0640120D8E72068006840
:10037000C007C00F0121484048400028E7D00020B6
:10038000CDE700001700008040420F0078000020F9
:100390001FB50446002003902848294908600846F4
:1003A00000F080FC002801D000F0DAF90120C0073D
:1003B00023494860002122488160C1600161042115
:1003C000416100218161C16101624162FF21C2314D
:1003D00081620021C162012101630021416300F0BB
:1003E000C1FC002801D000F0BBF9009401200003FB
:1003F0000190072002906946114800F08FFB002809
:1004000001D000F0ADF90E4800F026FB0C4800F0DA
:1004100037FE002801D000F0A3F90A21084800F0B7
:10042000BDFD002801D000F09BF9054800F096FCC6
:1004300080B203906846808904B010BD002401405A
:10044000A000002038B50546CC2014490870E020F3
:100450004870F0208870E820C870002008717D2066
:10046000C00005230A46702100900D4801F0A0F954
:10047000052407E0002D01D0FF2000E000200749FF
:100480000855641C192CF5D37D20C0001923034A9C
:1004900070210090024801F08BF938BD98030020CC
:1004A000EC000020F8B506460D4617467019401DB1
:1004B000192801D90120F8BD002404E0395D084A5B
:1004C000601D1154641CAC42F8D37D20C0006B1D2C
:1004D000034A70210090034801F06AF9EBE700003D
:1004E00098030020EC00002070B500250120400298
:1004F00000F0DCF900281BD079480068002813D1EF
:1005000078480078C007C00F002806D075480068FA
:10051000400840007349086006E0724800684008DF
:100520004000401C6F49086001206D49086002E0EE
:1005300000206B490860802000F0B8F900281BD02B
:1005400069480068002813D1664800780007C00F8A
:10055000002806D063480068082188436149086084
:1005600006E0604800680821884308305D4908605B
:1005700001205D49086002E000205B4908604020DE
:1005800000F094F900281BD058480068002813D1C7
:10059000544800784007C00F002806D05148006832
:1005A000042188434F49086006E04E480068042152
:1005B0008843001D4B49086001204C49086002E057
:1005C00000204A490860FF20013000F06FF9002840
:1005D00035D04748006800282DD142480078C00631
:1005E000C00F002812D03F480068102188433D49C1
:1005F000086008460068042188433A4908600846B4
:100600000068082188433749086014E035480068CD
:1006100010218843103033490860084600680421DF
:100620008843001D2F490860084600680821884358
:1006300008302C49086001202D49086002E00020A4
:100640002B4908600120C00200F030F9C001802170
:100650000840024623480068884310432149086047
:100660000120800200F022F90002FF210131084040
:1006700002461C480068884310431A49086008462F
:1006800000780006C20F0121C9021A4800F0A9FF34
:1006900014480088C005C20F0221164800F0A1FFCF
:1006A00000F098F97D21C90048430446124881684A
:1006B0002046FFF717FD0B49C86000F051F90949C2
:1006C0008860C86800F0E0F80649086108460088BC
:1006D000C004C00F002800D0002503F027FC70BD27
:1006E000400000205003002044000020480000206B
:1006F0004C000020000400487C03002010B520209E
:1007000000F05EFE10BD000000B587B000BF1248CB
:1007100040690121490408430F494861084640697E
:10072000012149040840019000BF00BF0B4803901D
:10073000002004902020029002A90920C00600F0A9
:100740004FFE00220221072001F05AFA072001F093
:100750004BFA07B000BD000000100240000021105D
:1007600000BFFEE700200749C8610748006904216F
:1007700008430549086108460069402108430249C9
:100780000861704780000020002002400021084AD4
:10079000D1610849096902221143064A11611146D3
:1007A0004861096940221143024A11617047000003
:1007B00080000020002002400022054BDA61054A3B
:1007C000126901231A43034B1A610180704700002C
:1007D000800000200020024000200F49C96810223C
:1007E0001140102907D10D49C969022211430B4A52
:1007F000D161102108430849C96804221140042925
:1008000007D10649C96901221143044AD161042173
:1008100008430149C8607047002002408000002062
:1008200070B5044600F0E4FE05460BE0601C0028AD
:1008300008D0002C04D000F0DBFE401BA04201D900
:10084000032070BD0F48C068C007C00F0028EDD15D
:100850000C48C06820210840202801D10949C860FF
:100860000848C06810210840102805D00548C06815
:1008700004210840042803D1FFF7AEFF0120E0E780
:100880000020DEE7002002400146002007E0420091
:10089000054B1B689A5A8A4200D902E0401C08287E
:1008A000F5D300BF70470000200000200146024839
:1008B00000680840704700000800002070B5002064
:1008C000FFF766FD0446224801680068401C204A84
:1008D000106088001F490C5010460068102802D391
:1008E0000020114608600025002404E0A8001949F2
:1008F000085804196D1C102DF8D3240916484068B7
:10090000302803D115486043040B1CE012484068AE
:100910003C2804D1FF205F306043C40A13E00E4836
:100920004068482808D10D49614308460321C9029F
:10093000FFF7D8FB044606E007484068182802D1B4
:1009400006486043040B632C00D96324204670BD25
:1009500034000020680200207C0300206B030000AC
:1009600070B50420FFF714FD0446164801680068BE
:10097000401C144A1060880013490C50104600684F
:100980000A2802D30020114608600025002404E054
:10099000A8000D49085804196D1C0A2DF8D30A2126
:1009A0002046FFF79FFB044601200003011B074878
:1009B000FFF7AEFB0649441A204603F0EBFA044663
:1009C000204670BD2C00002028030020000071028A
:1009D0001027000070B50720FFF7DAFC0446124824
:1009E00001680068401C104A106088000F490C50D4
:1009F00010460068202802D3002011460860002518
:100A0000002404E0A8000949085804196D1C202D91
:100A1000F8D364090649614308460649FFF762FBBB
:100A20000446204670BD000030000020A8020020CF
:100A3000B5020000FF0F000070B5044600F0D8FDBD
:100A40000546A54201D3281B70BD0248001B401972
:100A5000FAE70000FFFF000070B5044600250026FD
:100A600000BF4020005D012801D1022070BD01219E
:100A70004020015500BF206880688007800F012852
:100A80000CD1206800680840002805D12068C068A3
:100A9000C9030840884201D1012000E0002000285D
:100AA0002FD1606CFF21013188430221084360642B
:100AB00020688068890708432168886000F098FDF5
:100AC000064611E000F094FD801B02280CD9606CF2
:100AD0000221884310210843606400BF00214020A8
:100AE000015500BF0120C1E720688068C00FC00722
:100AF0000028E7D1606C022188430121084360642B
:100B000004E0606C202108436064012500BF0021DF
:100B10004020015500BF2846A8E70000F8B504466C
:100B20000D4600260020009001210907A06B884295
:100B300015D0A06B012812D0A06B02280FD0A06B9B
:100B400003280CD0A06B042809D0A06B052806D080
:100B5000A06B062803D0A06B072800D000BF00BF01
:100B60004020005D012801D10220F8BD0121402074
:100B7000015500BF206880680421084080080028D3
:100B80007BD14449686888425BD02068806A2A78B3
:100B90000121914008432168886201210907A06B67
:100BA000884229D0A06B012826D0A06B022823D030
:100BB000A06B032820D0A06B04281DD0A06B0528B3
:100BC0001AD0A06B062817D0A06B072814D0A868ED
:100BD000216849694907490F88420DD0206840695A
:100BE000C008C0002168486120684069297A490727
:100BF000490F0843216848612868102802D02868F6
:100C000011283FD1244880682968102901D1C904DE
:100C100001E00121890508431F49886028681028E0
:100C200030D11E491E480068FFF75CFA0A2148438C
:100C3000009002E00098401E009000980028F9D132
:100C400020E02068806A2A78012191408843216849
:100C500088622868102802D02868112812D10E480E
:100C600080682968102902D1C90402E005E0012149
:100C7000890588430849886004E0606C20210843A6
:100C80006064012600BF00214020015500BF3046AE
:100C90006BE70000011000000027014040420F00F8
:100CA0007800002070B504460025002C01D10120F9
:100CB00070BD606C0221084360642046FFF772FA41
:100CC0000546002D07D12046FFF7A2FA0546012D63
:100CD00001D001206064012D33D0206840689F213D
:100CE0008843216848609F20216808602068C068A8
:100CF000174908402168C8602068006980008008A2
:100D00002168086120684069C008C0002168486106
:100D10002068006A0F490840216808622068806ADC
:100D2000C00CC004216888620B48806803218905D3
:100D3000884309498860204600F0F4F80020A06448
:100D4000606400BF00214020015500BF2846AFE786
:100D500000023E8300F000F00027014001460868D1
:100D6000006C704770B5044600260025002C01D1A8
:100D7000012070BD606C002806D1A06400214020D5
:100D80000155204600F0E4F8606C1021084000286E
:100D90007ED1002EFCD120688068042108408008A4
:100DA0000028F5D1606C8901884302210843606402
:100DB000206880688007800F01280DD120680068B6
:100DC000C007C00F002805D12068C068890308400B
:100DD000884201D1012000E0002000280FD12068C6
:100DE000C06818218843A16808432168C86020684A
:100DF00000698000800861680843216808612068F4
:100E0000C068464908402168C860A0698003E1695C
:100E1000C9030843216A49030843616B012902D0D1
:100E20000121090300E000210843E168084321692A
:100E3000022901D1042100E000210843216B49006F
:100E400008430543606A01280ED1206A002803D1B7
:100E500001200004054307E0606C20210843606422
:100E6000A06C01210843A064FF21C231A06A88421E
:100E700003D0E16AA06A084305432068C06828439C
:100E80002168C86001210907A06B884216D000E0E4
:100E90003DE0A06B012811D0A06B02280ED0A06B02
:100EA00003280BD0A06B042808D0A06B052805D020
:100EB000A06B062802D0A06B07280DD120684069DE
:100EC000C008C0002168486120684069218F490737
:100ED000490F0843216848612068C06810490840EC
:100EE000A84208D10020A064606C0221884301213F
:100EF0000843606410E0606C0221884310210843BD
:100F00006064A06C01210843A064012604E0606CC9
:100F1000102108436064012630462AE71902FEFFCB
:100F2000E7FF3F8310B5044607492068884209D18E
:100F30000648806949158843044988619021C8059D
:100F400000F0AEF910BD0000002401400010024086
:100F500010B586B004460F492068884218D100BFFA
:100F60000D488069491508430B4988610846806926
:100F700049150840009000BF00BF90200190032059
:100F800002900020039001A90920C00600F028FA71
:100F900006B010BD0024014000100240F8B5044620
:100FA0000D466069082801D1082711E02068C06853
:100FB000C007C00F00280AD0606C2021084360647D
:100FC00000BF00214020015500BF0120F8BD0C27C3
:100FD00000F00EFB064614E0681C002811D0002D1E
:100FE00004D000F005FB801BA8420AD9606C0421E4
:100FF0000843606400BF00214020015500BF03206A
:10100000E4E72068006838400028E5D0606C0121E2
:101010004902084360642068C068032189020840CF
:10102000002825D1206A002822D1206800680821E4
:10103000084008281CD120688068042108408008E6
:1010400000280DD1206840680C2188432168486041
:10105000606CFF210131884301210843606407E08F
:10106000606C202108436064A06C01210843A064E7
:10107000A069002802D10C20216808600020A5E7A3
:1010800070B5044600252068806804210840800867
:1010900000282BD100BF4020005D012801D1022093
:1010A00070BD01214020015500BFE069012803D037
:1010B0002046FFF703F90546002D18D1606C0D4955
:1010C0000840FF210131084360640020A06400BF94
:1010D00000214020015500BF1C20216808602068C5
:1010E0008068042108432168886000E002252846C2
:1010F000D6E70000FEF1FFFFF8B504460E460127D3
:10110000002500BF2448007E012801D10220F8BD3F
:1011100001202149087600BF2068012811D11F480D
:10112000FFF77EFB002830D1FFF71CFB1B48FFF7C1
:1011300077FB07461A48006904218843184908616B
:1011400023E01648FFF76CFB00281ED1401E3060DC
:10115000656813E02846FFF719FB1048FFF760FBAE
:1011600007460F480069022188430D490861002F96
:1011700001D0356008E0012080022D18A0688002AF
:1011800061684018A842E5D800BF00BF00200249AE
:10119000087600BF3846BAE78000002050C3000040
:1011A000002002400348006980210843014908618A
:1011B0000020704700200240F0B51FB486B00746FB
:1011C00015461E460120039000240020029000BF17
:1011D0002548007E012802D102200BB0F0BD01207D
:1011E0002149087600BF2148FFF71AFB03900398B6
:1011F000002831D1012F02D10120029006E0022FF8
:1012000002D10220029001E00420029000241FE09D
:1012100022012846314604960595FEF78DFF80B2DF
:10122000610001900798081800900199FFF7C4FA2F
:101230000E48FFF7F5FA03900D480069400840009A
:101240000B4908610398002800D004E0601CC4B278
:1012500002988442DCDB00BF00BF00200249087610
:1012600000BF0398B9E700008000002050C30000D1
:10127000002002400748006980210840002805D06E
:101280000548044948600548486001E0012070476E
:101290000020FCE70020024023016745AB89EFCD29
:1012A000F0B502460B460020002100246FE0012526
:1012B00085401D402946002968D01568470003264F
:1012C000BE40B5431560C508AE0015462035AD5982
:1012D0004607F70E0F26BE40B543C608B6001746B0
:1012E0002037BD51956847000326BE40B543956041
:1012F000556801268640B5435560D56847000326EA
:10130000BE40B543D560244D8608B600AC5985076C
:101310002E0F0F25B5402C400925ED06AA4201D11C
:1013200000250FE01D4DAA4201D101250AE01C4D08
:10133000AA4201D1022505E01A4DAA4201D1032596
:1013400000E005258607360FB540A5421ED185076A
:101350002E0F0F25B5402C460F4D8608B600AD590F
:10136000A5430D4E8708BF00F5510F4D2D688D43E5
:101370000D4E356035466D688D4375603546AD68F8
:101380008D43B5603546ED688D43F560401C1D46C4
:10139000C540002D8BD1F0BD08000140000400487D
:1013A00000080048000C004800040140202804D137
:1013B00002490968491C014A116070470400002075
:1013C00010B50446054840692040002804D0034871
:1013D00044612046FFF7EAFF10BD00000004014011
:1013E00078B50346002200240020DEE00126964066
:1013F0000D6835402C46002C7ED04D68022D02D061
:101400004D68122D15D1D508AE001D462035A859BE
:101410005507EE0E0F25B5400646AE43304656073B
:10142000F60E0D69B5402843D508AD001E4620369E
:101430007051186856000325B5400646AE43304645
:101440000D79AD07AD0F5600B540284318604D68C3
:10145000012D08D04D68022D05D04D68112D02D008
:101460004D68122D18D1986856000325B5400646E0
:10147000AE4330465600CD68B54028439860586862
:10148000012595400646AE43304610264D6835404E
:101490002D09954028435860D86856000325B5406B
:1014A0000646AE43304656008D68B5402843D860A6
:1014B000012636074D683540B54275D100BF3E4D17
:1014C000AD69012635433C4EB5613546AD69ED0742
:1014D000ED0F009500BF00BF384D9608B600A85923
:1014E00095072E0F0F25B5400646AE433046092519
:1014F000ED06AB4203D100E056E000250FE0304D91
:10150000AB4201D101250AE02E4DAB4201D10225AB
:1015100005E02D4DAB4201D1032500E005259607DE
:10152000360FB5402843254D9608B600A851274DE3
:1015300028680546A5432846012636044D683540EF
:10154000B54202D1054625432846204D28606868EB
:101550000546A5432846012676044D683540B54228
:1015600002D1054625432846184D6860A8680546FF
:10157000A5432846012636054D683540B54202D1BF
:10158000054625432846114DA860E8680546A54351
:101590002846012676054D683540B54202D10546FC
:1015A00025432846094DE860521C0D68D540002DA2
:1015B00000D01BE778BD0000001002400800014089
:1015C0000004004800080048000C004800040140E6
:1015D000024613690B40002B01D0012000E00020DF
:1015E0007047002A01D0816100E0816270470000ED
:1015F00001480068704700000000002002464120BA
:10160000805C20282FD100BF4020805C012801D1C0
:101610000220704701234020835400BF242341202F
:101620008354106800684008400013681860106810
:10163000006801231B039843136818601068006852
:101640000843136818601068006801231843136882
:10165000186020234120835400BF0023402083547E
:1016600000BF0020D5E70220D3E710B502460B46A5
:1016700000214120805C20282ED100BF4020805CCA
:10168000012801D1022010BD01244020845400BF54
:1016900024244120845410680068400840001468E5
:1016A0002060106801680F2424020846A043014608
:1016B000180201431068016010680068012420438B
:1016C0001468206020244120845400BF002440205E
:1016D000845400BF0020D6E70220D4E710B50446AA
:1016E000002C01D1012010BD4120005D002805D152
:1016F000002140200155204600F0FAF92421412024
:1017000001552068006840084000216808600F21EA
:1017100009066068884321680861206880680121A3
:10172000C903884321688860E068012806D1012147
:10173000C903A06808432168886005E02121890267
:10174000A068084321688860E068022802D180020E
:10175000216848602068406814490843216848604F
:101760002068C0680121C90388432168C860616995
:1017700020690843A169090208432168C860216AF9
:10178000E069084321680860206800680121084377
:10179000216808600020606420214120015500205C
:1017A000206300214220015500209CE700800002B8
:1017B000FFB581B0044616461F4600254120005D56
:1017C00020287CD100BF4020005D012802D10220EA
:1017D00005B0F0BD01214020015500BFFFF708FF13
:1017E000054619230122D1032046009501F00AFC89
:1017F000002801D00320EBE72121412001551021D1
:101800004220015500206064666267856063608DD8
:10181000FF280BD9FF20208548020090208DC2B2FE
:101820000B052046029901F0D5FB0CE0608D208568
:10183000012040030090208DC2B201235B062046A8
:10184000029901F0C7FB47E02A4620460A9901F0B9
:101850002FFC002806D0606C042801D10120B7E7D6
:101860000320B5E7616A481C6062087821688862D5
:10187000608D401E6085208D401E2085208D0028B3
:101880002AD1608D002827D0009500228021204693
:101890000A9B01F0B7FB002801D0032098E7608D78
:1018A000FF280DD9FF20208500200090208DC2B296
:1018B00001231B062046029901F08CFB0CE031E06D
:1018C000608D208500200090208DC2B201235B0630
:1018D0002046029901F07EFB608D0028B4D12A4693
:1018E00020460A9901F0B7FB002806D0606C042856
:1018F00001D101206CE703206AE720202168C8613C
:10190000206840680849084021684860202141203B
:10191000015500214220015500BF4020015500BF64
:10192000002055E7022053E700E800FEFFB583B032
:1019300004460C9F0E9E00254120005D202871D199
:10194000002F02D00D98002802D1012007B0F0BD71
:1019500000BF4020005D012801D10220F6E70121EF
:101960004020015500BFFFF743FE05461923012221
:10197000D1032046009501F045FB002801D003204B
:10198000E4E7222141200155402142200155002059
:10199000606467620D986085002060630096019521
:1019A000204604A90EC901F0CBFA002810D0606CC3
:1019B000042806D100BF00214020015500BF0120AE
:1019C000C4E700BF00214020015500BF0320BDE750
:1019D000608DFF280DD9FF2020850920800200900E
:1019E000208DC2B201231B062046049901F0F2FAB1
:1019F0000CE0608D2085092080020090208DC2B20D
:101A000001235B062046049901F0E4FA00BF334647
:101A1000002204212046009501F0F4FA002802D0AB
:101A2000032093E75FE02068406AC1B2626A501CFD
:101A300060621170208D401E2085608D401E608583
:101A4000208D002829D1608D002826D03346002221
:101A500080212046009501F0D5FA002801D003200E
:101A600074E7608DFF280CD9FF20208500200090AE
:101A7000208DC2B201231B062046049901F0AAFA68
:101A80000BE0608D208500200090208DC2B20123E4
:101A90005B062046049901F09DFA608D0028B6D1BE
:101AA0002A463146204601F0D6FA002806D0606C5E
:101AB000042801D1012049E7032047E720202168BD
:101AC000C8612068406809490840216848602021B1
:101AD0004120015500214220015500BF4020015501
:101AE00000BF002032E7022030E7000000E800FEDF
:101AF00010B586B004461249206888421DD1C02026
:101B000001901220029001200390032004900120F4
:101B1000059001A90B48FFF763FC00BF0A48C069A4
:101B20000121490508430849C8610846C0690121E7
:101B300049050840009000BF00BF06B010BD00007E
:101B400000540040000400480010024002480068B1
:101B5000401C0149086070470000002010B506488D
:101B600000681021084304490860002000F006F8CE
:101B700000F018F8002010BD0020024070B50446A7
:101B800000F0BAF906467D21C900FEF7ABFA05461A
:101B900000F0E6FC00222146501E00F031F8002043
:101BA00070BD000008B500BF0E48806901210843E0
:101BB0000C49886108468069C007C00F009000BFCB
:101BC00000BF00221146501F00F01AF800221146F3
:101BD000901E00F015F800221146501E00F010F87B
:101BE00008BD00000010024000BFC206D20E012155
:101BF0009140024A116000BF7047000000E100E020
:101C000070B504460D4616462946204602F008FAED
:101C100070BD0000F8B50446002600250121090426
:101C20002068084088427AD100274B48C0690903E0
:101C3000084000280DD100BF4748C0690843464905
:101C4000C8610846C06909040840009000BF00BF91
:101C5000012742480068FF2101310840002816D1C1
:101C60003E48006808433D490860FFF7C1FC06464E
:101C700006E0FFF7BDFC801B642801D90320F8BDF6
:101C800036480068FF21013108400028F1D0324871
:101C9000006A0321090208400546002D2DD0606826
:101CA0000840A84229D02C48006A884305462A48A3
:101CB000006A012109040843274908620846006AAE
:101CC0000121090488432449086208460562E8079F
:101CD000C00F002811D0FFF78BFC064607E0FFF786
:101CE00087FC801B1E49884201D90320C7E71A4898
:101CF000006A022108400028F1D01748006A032139
:101D0000090288436168084313490862012F05D11D
:101D10000846C069090488430F49C86100BF20789C
:101D2000C007C00F002807D00B48006B8008800058
:101D3000A16808430849086320212068084020283A
:101D400007D10548006B10218843E1680843024928
:101D50000863002093E7000000100240007000407C
:101D60008813000070B504460D4600265D480068E3
:101D7000C007C00FA8420ED25A4800684008400071
:101D800028435849086008460068C007C00FA842A9
:101D900001D0012070BD022120680840022807D12F
:101DA00051484068F0218843A16808434E49486083
:101DB0002078C007C00F00285FD06068012808D1D4
:101DC00049480068012149040840002815D1012034
:101DD000E0E76068022808D143480068012149060D
:101DE0000840002809D10120D4E73F4800680221BB
:101DF0000840002801D10120CCE73B48406880081A
:101E000080006168084338494860FFF7F1FB0646E7
:101E1000606801280FD107E0FFF7EAFB801B334918
:101E2000884201D90320B5E72F4840680C210840BB
:101E30000428F1D121E0606802280FD107E0FFF704
:101E4000D7FB801B2949884201D90320A2E72648F5
:101E500040680C2108400828F1D10EE007E0FFF7A8
:101E6000C7FB801B2149884201D9032092E71E4805
:101E700040680C2108400028F1D11A480068C007CA
:101E8000C00FA8420ED917480068400840002843F8
:101E90001449086008460068C007C00FA84201D076
:101EA000012077E7042120680840042808D10E4863
:101EB0004068072109028843E16808430A494860ED
:101EC00000F032F808494968F02211400909084A2F
:101ED000515CC840074908600020FFF74FFE002012
:101EE00058E7000000200240001002408813000064
:101EF000A2500008780000200148006870470000E8
:101F00007800002000B5FFF7F7FF05494968072270
:101F100012021140090A034A515CC84000BD00008A
:101F200000100240B2500008F0B589B024A001466C
:101F30000EC9C06805AC0EC4089025A001460EC9A4
:101F4000C06801AC0EC404900024002700250026C0
:101F500000200090224844680C202040002827D010
:101F6000042802D0082822D102E01E48009022E076
:101F70000F2080042040800C05A90E5C1848C06A20
:101F80000007000F01A90F5C01200004204001217F
:101F90000904884206D139461248FEF7A3F8704377
:101FA000054602E0104835464543009503E000BF72
:101FB0000C48009000BF00BF009809B0F0BD0000C1
:101FC00002030405060708090A0B0C0D0E0F10107A
:101FD0000102030405060708090A0B0C0D0E0F1079
:101FE0000010024000127A0000093D00F8B50446D6
:101FF00000252078C007C00F002871D0F94840683C
:102000000C21084004280BD0F648406808400828F6
:1020100012D1F448406801210904084088420BD1DC
:10202000F048006801214904084000286BD060682E
:10203000002868D10120F8BD00BF6068012807D1E1
:10204000E8480068012109040843E649086031E0D6
:10205000606800280ED1E348006801210904884324
:10206000E049086008460068012189048843DD4989
:1020700008601FE0606805280ED1DA480068012179
:1020800089040843D749086008460068012109040B
:102090000843D44908600DE0D248006801210904D2
:1020A0008843D049086008460068012189048843B4
:1020B000CC49086000BF6068002812D0FFF798FA8A
:1020C000054606E0FFF794FA401B642801D9032077
:1020D000B1E7C44800680121490408400028F1D054
:1020E00011E0FFF785FA054606E0FFF781FA401B8D
:1020F000642801D903209EE7BA48006801214904F9
:1021000008400028F1D1022120680840022861D14E
:10211000B44840680C21084000280BD0B148406802
:10212000084008281BD1AF48406801210904084035
:10213000002814D1AB48006802210840002804D0D0
:10214000E068012801D0012075E7A6480068F82161
:1021500088432169C9000843A24908603AE0E06861
:10216000002820D09F480068012108439D4908604D
:10217000FFF73EFA054606E0FFF73AFA401B022851
:1021800001D9032057E7974800680221084000283A
:10219000F2D094480068F82188432169C9000843B7
:1021A0009049086016E08F480068400840008D495B
:1021B0000860FFF71DFA054606E0FFF719FA401B15
:1021C000022801D9032036E786480068022108402A
:1021D0000028F2D1082120680840082831D1E069A0
:1021E000002817D07F48406A012108437D49486292
:1021F000FFF7FEF9054606E0FFF7FAF9401B022853
:1022000001D9032017E77748406A022108400028D7
:10221000F2D016E07348406A4008400071494862B5
:10222000FFF7E6F9054606E0FFF7E2F9401B022852
:1022300001D90320FFE66B48406A022108400028CC
:10224000F2D1042120680840042871D10026654895
:10225000C0698906084000280DD100BF6148C069E7
:1022600008436049C8610846C069090408400090F5
:1022700000BF00BF01265C480068FF210131084013
:10228000002816D158480068084357490860FFF7EE
:10229000AFF9054606E0FFF7ABF9401B642801D90A
:1022A0000320C8E650480068FF210131084000289B
:1022B000F1D000BFA068012806D14A48006A012178
:1022C0000843484908622BE0A06800280CD1454823
:1022D000006A40084000434908620846006A042139
:1022E0008843404908621BE0A06805280CD13D489E
:1022F000006A042108433B4908620846006A01213C
:102300000843384908620BE03648006A400840003C
:10231000344908620846006A04218843314908624A
:1023200000BFA068002813D0FFF762F9054608E057
:1023300029E0FFF75DF9401B2C49884201D90320B1
:1023400079E62848006A022108400028F1D011E00F
:10235000FFF74EF9054607E0FFF74AF9401B23490E
:10236000884201D9032066E61E48006A022108401F
:102370000028F1D1012E05D11A48C06931078843E0
:102380001849C86100BF10212068084010285FD19B
:10239000606901282CD11348406B0421084311497E
:1023A00048630846406B012108430E494863FFF724
:1023B0001FF9054606E0FFF71BF9401B022801D96B
:1023C000032038E60748406B022108400028F2D07D
:1023D0000448406BF8218843A169C90008430149BA
:1023E000486335E000100240007000408813000090
:1023F0006069401D00280FD14E48406B042188437E
:102400004C4948630846406BF8218843A169C900DC
:102410000843484948631BE04648406B0421084391
:10242000444948630846406B400840004863FFF752
:10243000DFF8054606E0FFF7DBF8401B022801D96C
:102440000320F8E53B48406B022108400028F2D108
:10245000206A00286CD0374840680C2108400828C2
:1024600064D0206A022847D1324800680121090659
:10247000884330490860FFF7BBF8054606E0FFF7E0
:10248000B7F8401B022801D90320D4E52948006889
:102490000121490608400028F1D100BF2548C06A43
:1024A00000090001E16A08432249C862616AA06A22
:1024B0000843204949683D221204914308431D49BD
:1024C000486000BF08460068012109060843194911
:1024D0000860FFF78DF8054606E0FFF789F8401B16
:1024E000022801D90320A6E5124800680121490607
:1024F00008400028F1D01BE00E48006801210906C1
:1025000088430C490860FFF773F8054606E0FFF7BB
:102510006FF8401B022801D903208CE505480068AC
:102520000121490608400028F1D101E0012082E59F
:10253000002080E500100240042806D10649096900
:1025400004221143044A116105E003490969042288
:102550009143014A1161704700E000E070470000BC
:1025600070B504462546681E0949884201D90120F4
:102570000CE0681E074948610321081F01F050FD67
:1025800000200449886107200861002070BD000018
:10259000FFFFFF0000E000E010B5FFF7DFFF10BD18
:1025A00070477047024600BF3C20805C012801D183
:1025B0000220704701233C20835400BF02233D20AA
:1025C00083541068406870239843136858601068FB
:1025D00040680B681843136858601068806880234F
:1025E000984313689860106880684B6818431368B4
:1025F000986001233D20835400BF00233C20835476
:1026000000BF0020D5E710B50446002C01D1012001
:1026100010BD3D20005D002805D100213C20015562
:10262000204600F00DF802213D200155211D2068B3
:1026300001F078FE01213D2001550020E8E700006F
:1026400010B586B0044615492068884223D100BFE2
:102650001348C069022108431149C8610846C0698E
:1026600002210840009000BF00BF402001900220DE
:1026700002900020039004900120059001A90920F8
:10268000C006FEF7ADFE002211461020FFF7B8FA93
:102690001020FFF7A9FA06B010BD000000040040AA
:1026A00000100240F8B504460D46002600BF3C204D
:1026B000005D012801D10220F8BD01213C20015517
:1026C00000BF02213D2001552068866877213046F1
:1026D00088430646FF2109023046884306462068A3
:1026E0008660286850283ED00CDC202863D004DCAB
:1026F000002856D0102868D158E0302860D04028F3
:1027000063D144E0602838D070280DD0012109033E
:10271000401A02D0401A58D117E020688068C008DB
:10272000C0002168886051E0EB686A68A968206889
:1027300001F048FE206886687721304688430646C7
:10274000772006432068866040E0EB686A68A968E5
:10275000206801F037FE2068806801218903084362
:102760002168886032E0EA686968206801F09CFEB0
:102770005021206801F035FE28E0EA686968206889
:1027800001F0E6FE6021206801F02BFE1EE0EA6801
:102790006968206801F088FE4021206801F021FE70
:1027A00014E00021206801F01CFE0FE010212068D9
:1027B00001F017FE0AE02021206801F012FE05E07A
:1027C0003021206801F00DFE00E000BF00BF0121B4
:1027D0003D20015500BF00213C20015500BF0020D5
:1027E0006AE77047F8B504460D46164600BF3C2020
:1027F000005D012801D10220F8BD01213C200155D6
:1028000000BF02213D200155002E12D1EB686A68FD
:102810002968206801F064FE206880690C218843E3
:102820002168886120688069A968084321688861F7
:102830003FE0042E14D1EB686A682968206801F033
:10284000A2FE20688069032189028843216888618B
:1028500020688069A968090208432168886128E026
:10286000082E12D1EB686A682968206801F0B1FE71
:102870002068C0690C2188432168C8612068C0694C
:10288000A96808432168C86113E0EB686A68296891
:10289000206801F0C3FE2068C069032189028843D3
:1028A0002168C8612068C069A968090208432168D5
:1028B000C86101213D20015500BF00213C20015588
:1028C00000BF002098E710B50446002C01D101207C
:1028D00010BD3D20005D002805D100213C200155A0
:1028E000204600F00CF802213D200155211D2068F2
:1028F00001F018FD01213D2001550020E8E7704757
:1029000010B50446206800690221084040080028EC
:102910001CD02068C06808404008002816D0481F16
:102920002168086101202077206880698007800F76
:10293000002803D02046FFF754FF05E0204600F0B2
:10294000C3F8204600F0C1F8002020772068006915
:1029500004210840800800281DD02068C068084075
:102960008008002817D0C84321680861022020771A
:1029700020688069032109020840002803D020460E
:10298000FFF72FFF05E0204600F09EF8204600F0FC
:102990009CF8002020772068006908210840C008C2
:1029A00000281CD02068C0680840C008002816D045
:1029B000C84321680861042020772068C069800727
:1029C000800F002803D02046FFF70BFF05E02046CC
:1029D00000F07AF8204600F078F800202077206890
:1029E000006910210840000900281DD02068C06837
:1029F00008400009002817D0C84321680861082052
:102A000020772068C069032109020840002803D00C
:102A10002046FFF7E6FE05E0204600F055F8204688
:102A200000F053F80020207720680069C007C00F2D
:102A300001214840484000280CD02068C068084068
:102A400048404840002805D0C81E2168086120463B
:102A500000F03CF82068006980210840C009002887
:102A60000BD02068C0680840C009002805D0C843C2
:102A7000216808612046FFF793FD20680069402126
:102A80000840800900280BD02068C06808408009F1
:102A9000002805D0C84321680861204600F043F8AB
:102AA0002068006920210840400900280BD02068D8
:102AB000C06808404009002805D0C8432168086163
:102AC0002046FFF76EFD10BD70477047704770B528
:102AD00004460D4600BF3C20005D012801D10220C4
:102AE00070BD01213C20015500BF02213D20015550
:102AF0002946204601F082FC2068C06840218843B6
:102B00002168C8602068C068012189038843216862
:102B1000C86001213D20015500BF00213C20015526
:102B200000BF0020DCE7704710B50446002C01D13F
:102B3000012010BDA069002800D000E000BF69207E
:102B4000005D002805D1002168200155204600F0D5
:102B50002DF82421692001552068006840084000B4
:102B600021680860204601F0E1FF012800D1E0E77C
:102B7000606A002802D0204601F050FF20684068BB
:102B80000121C902884321684860206880680821C3
:102B90008843216888602068006801210843216813
:102BA0000860204601F0B2FFC3E7000010B586B010
:102BB000044625492068884220D100BF2348806907
:102BC0000121890308432149886108468069012160
:102BD00089030840009000BF00BF0320400201901D
:102BE0000220029001200390032004900120059010
:102BF00001A90920C006FEF7F3FB22E01449206872
:102C000088421ED100BF1148C06901214904084310
:102C10000E49C8610846C069012149040840009076
:102C200000BF00BF0B4801900220029001200390DA
:102C3000032004900120059001A90920C006FEF799
:102C4000CFFB06B010BD000000380140001002406C
:102C50000044004008400000FFB583B004460D4624
:102C60001646002001906A20005D202870D1002DBA
:102C700001D0002E02D1012007B0F0BD01210903CF
:102C8000A068884208D12069002805D1E807C00F54
:102C9000002801D00120EFE700BF6820005D012877
:102CA00001D10220E8E701216820015500BF002082
:102CB000E06622216A200155FEF79AFC0190582017
:102CC00006535A20065300BF01210903A068884219
:102CD0000AD12069002803D129495C20015310E062
:102CE000FF215C2001530CE0A068002809D1206975
:102CF000002803D1FF215C20015302E07F215C20EA
:102D0000015300BF5C20005B029029E05A20005B69
:102D1000401E81B25A2001530698009000222021C3
:102D20002046019B01F0F4FF002801D00320A3E717
:102D300001210903A06888420BD12069002808D12D
:102D40002F462068808C029908403880AD1C07E02F
:102D500014E02068808C0299C9B2084028706D1C6C
:102D60005A20005B0028D1D120216A20015500BFE4
:102D700000216820015500BF00207DE702207BE78D
:102D8000FF010000FEB504460D4616461F46002012
:102D900001906920005D20286AD1002D01D0002E0D
:102DA00001D10120FEBD01210903A068884208D19C
:102DB0002069002805D1E807C00F002801D00120B4
:102DC000F0E700BF6820005D012801D10220E9E79B
:102DD00001216820015500BF0020E0662121692003
:102DE0000155FEF705FC0190502006535220065372
:102DF00025E05220005B401E81B252200153009713
:102E0000002280212046019B01F082FF002801D092
:102E10000320C7E701210903A06888420BD120697C
:102E2000002808D10295029D2888C005C00D2168A0
:102E30000885AD1C03E028786D1C216808855220A8
:102E4000005B0028D5DC0097002240212046019B32
:102E500001F05EFF002801D00320A3E720216920B4
:102E6000015500BF00216820015500BF002099E7EF
:102E7000022097E700BFFEE701688969022211403E
:102E80004908002902D0002102689162016889691D
:102E9000C907C90F012251405140002904D10168DE
:102EA00089691143026891617047000070B504465A
:102EB0000D46164620688069102108400009002848
:102EC0003AD015E0681C002812D0002D04D0FEF77F
:102ED0008FFB801BA8420BD92021412001550021E6
:102EE0004220015500BF4020015500BF032070BDA6
:102EF000206880692021084040090028E2D0102085
:102F00002168C86120202168C8612046FFF7B4FF0E
:102F100020684068094908402168486004206064CE
:102F200020214120015500214220015500BF4020B1
:102F3000015500BF0120DAE70020D8E700E800FED5
:102F4000FFB581B0044615461E460A9F0120400386
:102F5000F2B2002300902046029900F03BF8394677
:102F600020460B9A00F0A4F8002807D0606C0428D3
:102F700002D1012005B0F0BD0320FBE7012E03D1F3
:102F8000E8B22168886216E0FF20000228400012A3
:102F900021688862394620460B9A00F089F800289B
:102FA00006D0606C042801D10120E3E70320E1E7AB
:102FB000E8B2216888620B983B46002240210090CD
:102FC000204600F01FF8002801D00320D2E700209F
:102FD000D0E70000F0B50C46002105686968084D8F
:102FE0002940A505AD0D1604FF273F043E4035439B
:102FF0001D43059E3543294305686960F0BD000007
:10300000009800FCF8B504460E4617461D4616E02B
:10301000681C002813D0002D05D0FEF7E9FA0699A8
:10302000401AA8420BD920214120015500214220FD
:10303000015500BF4020015500BF0320F8BD2068A6
:1030400080693040B04201D1012000E00020B84248
:10305000DED00020F2E770B504460D4616461EE0AD
:10306000324629462046FFF721FF002801D00120E3
:1030700070BD002D04D0FEF7BBFA801BA8420ED90C
:10308000606C2021084360644120015500214220EA
:10309000015500BF4020015500BF0320E8E720682C
:1030A00080692021084040090028D9D00020DFE7AE
:1030B00070B504460D46164621E0324629462046A4
:1030C000FFF7F4FE002801D0012070BD681C002825
:1030D00015D0002D04D0FEF78BFA801BA8420ED924
:1030E000606C20210843606441200155002142208A
:1030F000015500BF4020015500BF0320E5E72068CF
:1031000080690221084040080028D6D00020DCE772
:1031100070B5244E002406E0A00023494018006842
:10312000A1007050641C072CF6D30025002403E096
:10313000A00030584519641C062CF9D319480078B2
:1031400062280FD11748407869280BD1154880783C
:103150006B2807D11348C078652803D111488069CE
:10316000A84207D07D20C0000E498860C860086171
:10317000002048612C2200210C48FCF7EEFF094892
:1031800040690A49886108460068012109038843AB
:10319000401806490860182002494860044805495B
:1031A000086070BD7C03002000FC00085003002074
:1031B000784F00082000002010B5002400F0F2F83D
:1031C000012149034C48FEF703FA002801D10120F0
:1031D00000E000200443012189034748FEF7F8F985
:1031E000002801D1022000E0002004430121C9038E
:1031F0004148FEF7EDF9002801D1042000E000204D
:10320000044301213D48FEF7E3F9002801D10820DD
:1032100000E00020044302213848FEF7D9F90028D5
:1032200001D1102000E0002004430121C90309203E
:10323000C006FEF7CDF9002801D1402000E00020B3
:10324000044308212E48FEF7C3F9002801D180204D
:1032500000E000200443FF2101312948FEF7B8F9BE
:10326000002802D1FF20013000E0002004430121AA
:1032700049022348FEF7ACF9002802D101204002A0
:1032800000E00020044310211D48FEF7A1F90028AA
:1032900002D10120800200E0002004430121092026
:1032A000C006FEF795F9002802D10120C00200E017
:1032B0000020044302210920C006FEF789F90028F6
:1032C00002D10120000300E0002004430D48006803
:1032D00084420AD10C4801680068401C0A4A106008
:1032E0000A2905D30948046002E000200649086065
:1032F0000448046010BD00000008004800140048A5
:1033000000040048240000202800002008000020BD
:103310000EB522482249086000204860002120485C
:103320008160C1600121016104214161002181614D
:10333000C16101624162FF21C23181620021C1622B
:10334000016301214163FDF70DFD002801D0FDF768
:1033500007FA00200090012000030190072002904E
:1033600069460F48FDF7DAFB002801D0FDF7F8F9B0
:103370000720009069460A48FDF7D0FB002801D0DD
:10338000FDF7EEF90820009069460548FDF7C6FBF9
:10339000002801D0FDF7E4F90EBD00000024014033
:1033A000A000002000B587B000BF38484069012167
:1033B000C904084335494861084640690121C904E8
:1033C0000840019000BF00BF00BF30484069C900FD
:1033D00008432E4948610846406901218905084093
:1033E000019000BF00BF00BF284840694911084351
:1033F0002649486108464069012149040840019076
:1034000000BF00BF00BF21484069490008431F4971
:10341000486108464069012189040840019000BFC5
:1034200000BF07204003029000200390049002A9EF
:103430001748FDF7D5FF0320029000200390049069
:1034400002A91448FDF7CCFF36200290002003901B
:103450000220049002A90920C006FDF7C1FF0E4812
:10346000029000200390049002A90C48FDF7B8FFD9
:103470000B4802900120039000200490059002A9BF
:103480000648FDF7ADFF07B000BD00000010024088
:1034900000080048001400483203000000040048FF
:1034A000040C000010B51348134908601348486025
:1034B0000021114881600121C16000210161416149
:1034C0008161C1610162FEF709F9002801D0FDF7B1
:1034D00047F900210848FEF791F8002801D0FDF7D0
:1034E0003FF900210448FEF7C0F8002801D0FDF79D
:1034F00037F910BD00540040EC0000200E090020F8
:1035000000B58FB027482849086000204860002196
:1035100025488160C16001618161FFF774F800286E
:1035200001D0FDF71DF9012000030B900BA91E48E7
:10353000FFF7B8F8002801D0FDF712F91A48FFF795
:10354000C2F9002801D0FDF70BF9042006905020A5
:1035500007900220089000200A9006A91248FFF761
:10356000B6FA002801D0FDF7FBF800200490059082
:1035700004A90D48FFF716F8002801D0FDF7F0F870
:103580000220009001200190002002900390002270
:1035900069460548FFF726F9002801D0FDF7E0F855
:1035A0000FB000BD000400404801002010B50E48D7
:1035B0000E490860E1204002486000210B4881600C
:1035C000C16001610C21416100218161C161016221
:1035D0000020064948620846FFF7A6FA002801D0F5
:1035E000FDF7BEF810BD0000003801408801002042
:1035F0001FB50020C043FDF759F904468B48006809
:103600000121490488434018884908600846006839
:10361000012109048843401884490860084600686D
:10362000012189048843401880490860002C7DD11D
:10363000AA2168460170002141708170C170EF219C
:1036400001717B480068102868D178480068000341
:10365000C00F002820D175480068C002C00F0028A4
:103660001AD1724800680121C904884340186F4983
:103670000860084600680121090588436B49086015
:103680000120694648706B4B05226B48FFF77AFBB7
:1036900000284BD0FDF764F8644800680003C00FB1
:1036A00000281AD0614800680121C90488435F4995
:1036B00008600846006801210905884340185B49F5
:1036C00008600120694648705A4B05225A48FFF7A6
:1036D00059FB0028DDD0FDF743F854480068C002CC
:1036E000C00F002879D0514800680121C9048843DF
:1036F00040184E49086008460068012109058843C2
:103700004A4908600220694648704A4B05224A48E7
:10371000FFF738FB002860D0FDF722F84448006826
:1037200001280DD103206946487000E055E0414B67
:1037300005224148FFF726FB00284ED0FDF710F880
:103740003B48006802280BD1042069464870394B79
:1037500005223948FFF716FB00283ED0FDF700F898
:103760003348006804281AD134480078401CC0B29D
:1037700032490870092801DD0920087030216846A7
:1037800041702E4801786846C1702A4B052269466F
:103790002948FFF7F7FA00281FD0FCF7E1FF24487B
:1037A0000068082819D125480078002804D023484B
:1037B0000078401E214908703021684641701F483A
:1037C00001786846C1701B4B052269461A48FFF70D
:1037D000D9FA002801D0FCF7C3FF02231A46184982
:1037E0001548FFF739FA00281CD11648016800680F
:1037F000401C144A106012484554104600680428C2
:1038000002D30020114608600E480068002809D045
:103810000C480068401E0C49085CEF2802D10020CB
:1038200008490860024804601FBD000050030020E2
:103830005C00002088130000880100206800002040
:1038400064000020600000201800002070B586B0E1
:1038500004460025F7480078401CF64908700A2104
:10386000F4480078FCF754FCC8B2F249087000BF75
:1038700004E0002001A94855681CC5B2142DF8D3F6
:1038800020784007C00F00280FD0EA4800780528AC
:103890000BDC69460879102108436946087101224A
:1038A0000421E548FDF79DFE04E000220421E248E2
:1038B000FDF797FE20780007C00F00280FD0DD48E5
:1038C000007805280BDC6946887B8021084369461F
:1038D000887301229102D848FDF783FE05E000229B
:1038E00001218902D448FDF77CFE2078C007C00F73
:1038F00000280BD06946C879102108436946C87171
:1039000001221146CC48FDF76CFE04E000220121A3
:10391000C948FDF766FE20788007C00F002805D053
:103920006946487910210843694648712088800417
:10393000C00F002805D06946087A0121084369466E
:10394000087220884004C00F002805D06946487AD4
:10395000012108436946487220888005C00F00286D
:1039600005D06946087C8021084369460874208890
:103970000004C00F002805D06946887D082108434F
:10398000694688752068C003C00F002805D06946C5
:10399000087D082108436946087520688003C00F28
:1039A000002805D06946087D02210843694608754C
:1039B00020684003C00F002805D06946087D042117
:1039C00008436946087520680003C00F002805D029
:1039D0006946C87C802108436946C8742068C002D3
:1039E000C00F002805D06946087D8021084369463C
:1039F00008756946487C80210843694648742069F7
:103A0000030001F0FDF9090611181F262D343B4271
:103A1000490088480078052805DD6946487C8021F2
:103A200088436946487438E06946C87D01210843E7
:103A30006946C87531E06946C87D05210843694675
:103A4000C8752AE06946C87D072108436946C875DC
:103A500023E06946C87D0F2108436946C8751CE00C
:103A60006946C87D8F2108436946C87515E06946D7
:103A7000C87DAF2108436946C8750EE06946C87D18
:103A8000EF2108436946C87507E06946C87DFF21F4
:103A900008436946C87500E000BF00BF0A21A0685E
:103AA000FCF736FB061E01DB314600E0714208469A
:103AB0000A21FCF72DFB6148405C00116946C97A78
:103AC00008436946C8720A21A068FCF721FB061E5C
:103AD00001DB314600E0714208460A21FCF718FB81
:103AE0005648405C00016946097B084369460873F3
:103AF0000A21A068FCF70CFB061E01DB314600E042
:103B0000714208460A21FCF703FB4C49085C00118E
:103B10006946897A0843694688720A21A068FCF7D9
:103B2000F7FA061E01DB314600E0714208460A2121
:103B3000FCF7EEFA4149085C00016946C97A08437E
:103B4000C1B26846C172C07A082108436946C8728A
:103B5000A068002804DA887A082108436946887238
:103B600020688002C00F002876D00A21E069FCF7A7
:103B7000B9FA3349095C6846007901436846017126
:103B80000A21E069FCF7AEFA2D48415C68464079AD
:103B90000143684641710A21206AFCF7A3FA2849CB
:103BA000095C684680790143684681710A21206A70
:103BB000FCF798FA2248415C6846C07901436846A0
:103BC000C17120684002C00F00283BD0194800781E
:103BD000052827DDA06A002806D001280BD002287E
:103BE00010D003281CD114E0694608791021084040
:103BF0006946087115E06946487910210840694610
:103C000048710EE06946887910210840694688713C
:103C100007E06946C879102108406946C87100E08C
:103C200000BF00BF69468879102108436946887142
:103C300012E00000690000200004004898500008CD
:103C400070500008B4480078052805DC694688797A
:103C500010210843694688710A21E068FCF742FA9E
:103C600006460A21FCF73EFAAC48405C0011694662
:103C7000497D0143684641750A21E068FCF732FA44
:103C800006460A21FCF72EFAA448405C010168466A
:103C9000407D0143684641756421E068FCF722FAE3
:103CA00006460A21FCF71EFA9C48405C0111684652
:103CB000807D0143684681756421E068FCF712FA53
:103CC00006460A21FCF70EFA9448405C010168465A
:103CD000807D014368468175417D08200143684627
:103CE00041750A21A069FCF7FDF98D48405C010788
:103CF000090F6846007B0143684601730A21A069E9
:103D0000FCF7F0F98648405CF02108406946497BA1
:103D10000843694648730A21A069FCF7E3F906469F
:103D20000A21FCF7DFF97E48405C0007000F694676
:103D3000497B0843694648730A21A069FCF7D2F918
:103D400006460A21FCF7CEF97548405CF021084090
:103D50006946897B0843694688736421A069FCF73A
:103D6000C1F906460A21FCF7BDF96D48405C000721
:103D7000000F6946897B0843694688736421A069FE
:103D8000FCF7B0F906460A21FCF7ACF96448405C40
:103D9000F02108406946C97B08436946C8737D2104
:103DA000C900A069FCF79EF906460A21FCF79AF9BA
:103DB0005B48405C0007000F6946C97B08436946C1
:103DC000C8737D21C900A069FCF78CF906460A2159
:103DD000FCF788F95248405CF02108406946097CAC
:103DE0000843694608744F49A069FCF77BF9064609
:103DF0000A21FCF777F94A48405C0007000F694642
:103E0000097C0843694608744649A069FCF76AF9C9
:103E100006460A21FCF766F94148405CF02108405B
:103E20006946497C084369464874487B80210843B9
:103E3000694648730A216069FCF754F93A48405CC6
:103E400000116946497A0843694648720A21606947
:103E5000FCF748F93448405C00016946897A084318
:103E6000694688720A216069FCF73CF906460A2116
:103E7000FCF738F92C48405C00116946097A084380
:103E8000694608720A216069FCF72CF906460A2186
:103E9000FCF728F92448405C00016946497A084348
:103EA00069464872C87B802108436946C8736068C8
:103EB000012806D002280BD0032810D004281CD1DA
:103EC00014E06946087A80210843694608721BE0BD
:103ED0006946087A202108436946087214E0694659
:103EE000087A40210843694608720DE06946087A5D
:103EF000102108436946087206E06946087AF021F5
:103F000088436946087200BF00BF01AA142100203F
:103F1000FCF7C8FA06B070BD690000207A500008AE
:103F200084500008102700008E50000810B5134878
:103F30004469282C00D92824114800680019104928
:103F40000860084600680F49884215D900200C49CE
:103F500008600A488069401C0849886108468069F1
:103F60000949884202D900200449886103488069D0
:103F70000649486100F004FF10BD00005003002016
:103F800038000020A08C00009F8601007C030020E8
:103F90007047000070B505461F480068A84201D26E
:103FA0001E4870BD00240BE0E0001B490858A842E1
:103FB00005D3601CC0000858A84200D202E0641C6F
:103FC0001C2CF1D300BF1C2C02D114484042E8E75E
:103FD000002619E0E100104A5258611CC9000E4B3E
:103FE0005958511A714308463221FCF77BF8E10019
:103FF000094A5158081AA84205D8E000114640184D
:1040000040688019CDE7761C322EE3DB601CC000CF
:10401000014940184068C4E7884F000819FCFFFFB9
:1040200010B5002819DA1A4A03071B0F083B9B0832
:104030009B00D2588307DC0EFF23A3409A438B07D3
:104040001B0E8407E40EA3401A43114B0407240FF0
:10405000083CA408A4001A5118E00E4A03231B02CE
:10406000D21883089B00D2588307DC0EFF23A3409D
:104070009A438B071B0E8407E40EA3401A43054B9B
:10408000032424021B198408A4001A5110BD000047
:104090001CED00E000E100E0FEB505460C46002600
:1040A0007D20C0000321184A012300920191029053
:1040B0000222A2211548FDF739FC0646002E01D048
:1040C0000020FEBD104800784006400E0E490870E2
:1040D000084640784006400E4870084680788006C2
:1040E000800E8870012D0DD1887800F05EF8207068
:1040F0000549487800F059F860700349087800F0E5
:1041000054F8A0700120DCE76A000020EC000020D9
:10411000F8B505460C46012D2FD12078172801DD72
:104120000020207060783B2801DD00206070A078BE
:104130003B2801DD0020A07020780A21FBF7E8FF72
:10414000060120780A21FBF7E3FF0E432670607812
:104150000A21FBF7DDFF060160780A21FBF7D8FF93
:104160000E436670A0780A21FBF7D2FF0601A07803
:104170000A21FBF7CDFF0E43A67002200849087004
:10418000A0784870607888702078C8707D20C00062
:1041900004230A46A22100900248FDF709FBF8BD5E
:1041A0006A000020EC0000207047014608110A2236
:1041B00050430A07120F8018C0B2704770470000C2
:1041C00010B50C4909689D22D20051433C2251434D
:1041D000514308467D21C900FBF784FF04467D2139
:1041E000C900FBF77FFF04494861002001490860CE
:1041F00010BD0000040000205003002010B5FDF7A2
:10420000A5FCFEF7C9F910BD30B595B01A2009908C
:1042100001200C900E9010200D900F900120109016
:1042200002201190002112910521C904139100214F
:10423000149109A8FDF7DAFE002801D0FCF790FAE6
:104240000720059002200690002007900890012189
:1042500005A8FDF787FD002801D0FCF781FA212091
:10426000019000200390049001A8FDF7D3FC0028E2
:1042700001D0FCF775FAFDF73FFE05467D21C90028
:10428000FBF730FF0446FEF76BF90420FEF754F904
:1042900000221146501EFDF7B3FC15B030BD0000E2
:1042A000194800680121084317490860084640681A
:1042B00016490840144948600846006814490840F7
:1042C00011490860084600680121890488430E49A5
:1042D0000860084640683F21090488430A4948604D
:1042E0000846C06A00090001C8620846006BFF2149
:1042F00014318843044908630846406B4008400075
:104300004863002088607047001002400CB8FF0826
:10431000FFFFF6FE10B50248FEF7F2FA10BD0000EE
:104320004801002010B500220268204B984202D0BC
:104330001F4B984205D170241346A3431A464B687D
:104340001A431A4B98420ED0194B98420BD0194B76
:10435000984208D0184B984205D0184B984202D08A
:10436000174B984206D1032424021346A3431A464E
:10437000CB681A4380241346A3434C6923431A464F
:1043800002608B68C3620B688362084B984208D056
:10439000094B984205D0094B984202D0084B9842ED
:1043A00001D10B6903630123436110BD002C01405F
:1043B0000004004000200040004001400044014053
:1043C0000048014070B50C4600218168FF26360286
:1043D0000D46B54329461D021543254329438160F7
:1043E00070BD10B50A460021816870240B46A343B6
:1043F0001946072313431943816010BDFEB50446D7
:104400000D46002600270020019020688668702154
:1044100030468843064668680643F608F600286872
:1044200006432068866068680107090F002938D1B3
:104430000011030000F0E4FC08313233340D252B69
:1044400005352B69AA68E96820680090FFF7BAFF74
:1044500028E02068006A01902068006A4008400057
:104460002168086220688769F0213846884307463A
:104470002869000107432068876101982168086264
:1044800010E02A69A968206800F00EF80AE02A699D
:10449000A968206800F05CF804E003E002E001E0B5
:1044A00000E000BF00BFFEBD70B50B461446002102
:1044B0000022026A056A6D086D0005628169F026B6
:1044C0000D46B5432946250129430A261546B5431D
:1044D0002A4615461D432A468161026270BD0000CE
:1044E000F0B50C4600210025066A760876000662C3
:1044F0008169056A134EB04205D0134EB04202D016
:10450000124EB04201D1012600E00026002E05D057
:10451000890889000E461643314601E001263143E1
:10452000F0260F46B74339461E01F0273E4031437F
:104530000A262F46B7433D46264035438161056232
:10454000F0BD0000002C014000040040004001408C
:1045500070B50B46144600210022056A1026B543AB
:1045600005628169026A0F2636030D46B543294666
:1045700025032943A0261546B5432A461D012A4393
:104580008161026270BDF0B50C4600210025066A0B
:104590001027BE4306628169056A032636020F466C
:1045A000B7433946160231430F2636030F46B74349
:1045B00039461E030F273F033E403143A0262F46B6
:1045C000B7433D462601A0273E4035438161056241
:1045D000F0BDF0B50C4600210025066AFF27013723
:1045E000BE430662C169056A890889000E46164302
:1045F0003146F0260F46B74339461E01F0273E40AC
:104600003143052676022F46B7433D46260205274D
:104610007F023E403543C1610562F0BDF0B50C46F6
:1046200000210025066A01273F03BE430662C169D7
:10463000056A032636020F46B74339461602314350
:104640000F2636030F46B74339461E030F273F0395
:104650003E403143052676032F46B7433D462603A9
:1046600005277F033E403543C1610562F0BD000070
:1046700010B5E24800688002C00F002800D110BDCC
:10468000DE4800684002C00F002831D1DC480068D5
:1046900000282DD01020FCF709F9002816D0D948A1
:1046A0000068FCF7C9F9D849884221D90020D349CC
:1046B0008862084600680121890588434018CF496F
:1046C0000860FCF795FFCF49086011E00020C04367
:1046D000FCF7ECF8002804D1FCF7AEF9CB4988428E
:1046E00002D90020C6490860FCF782FFC54908606E
:1046F000C24800684002C00F002871D00020C043AB
:10470000FCF7D4F80446002C12D1C14800680428F4
:104710000ED1FCF76DFFBB490860B848806A401CA9
:10472000B64988620846008D8007800F886216E0CF
:10473000002C14D1B6480068082810D1FCF758FFA7
:10474000B0490860AD48806A002805D0AB48806A4F
:10475000401EAA49886202E00320A8498862002C12
:1047600071D1AB4800680228FAD1FCF741FFA54996
:104770000860A248806A002806D001281FD00228BD
:1047800048D0032866D151E09C48C0690A309B4953
:10479000C861C8690A21FBF7A5FC032907D9974915
:1047A000C8691421FBF79EFC9448C16106E0934957
:1047B000C8691E21FBF796FC9048C16152E08F4802
:1047C000C069142813D38D49C8690A21FBF78AFCF4
:1047D000032906D28948C069401C8849C86118E08D
:1047E000FEE08648C069C01E8449C86111E0834963
:1047F000C8690A21FBF776FC092905D27F48C06900
:10480000401C7E49C86104E07C48C06909387B4986
:10481000C86127E07948006A0A3078490862086A66
:104820003C21FBF75FFC754801621BE07349086A95
:104830000A21FBF757FC092906D27048006A401C80
:104840006E49086205E019E06C48006A09386B4956
:10485000086207E0694800680121890588436749C3
:10486000086000BF00BF6548007F6A490870634860
:10487000008C48700120FFF74BFC93E0002CFCD12A
:10488000634800680128F8D1FCF7B2FE5D49086072
:104890005A48806A002806D0012821D0022846D034
:1048A00003286CD153E05548C0690A2805D3534802
:1048B000C0690A385149C86111E05049C8690A21E4
:1048C000FBF710FC032905D94C48C0690A304B4955
:1048D000C86104E04948C06914304849C86156E0DD
:1048E0004649C8690A21FBF7FDFB002905D043486A
:1048F000C069401E4149C86118E04048C069142899
:104900000AD33E49C8690A21FBF7ECFB0A21484358
:10491000C01C3A49C86109E03849C8690A21FBF757
:10492000E1FB0A21484309303449C8612FE033488C
:10493000006A0A2805D33148006A0A382F490862FC
:1049400004E02E48006A32302C4908621FE02B49EF
:10495000086A0A21FBF7C6FB002905D02748006A30
:10496000401E2649086209E02449086A0A21FBF72B
:10497000B9FB0A21484309302049086207E01F4873
:1049800000680121890588431C49086000BF00BFF9
:104990001A48007F1F4908701848008C4870012091
:1049A000FFF7B6FB17480068FCF746F81A4988423B
:1049B00006D9124800680121890588430F4908601B
:1049C0000F208001FBF772FF002806D00B4800681B
:1049D000012189058843094908600D4804600AE0FF
:1049E0000C490120FFF758FB0A4800780349C861C9
:1049F00008484078086200BF41E6000050030020EC
:104A0000540000205000002070170000B80B000078
:104A1000580000207000002030750000818CC9070C
:104A2000C90F002908D00168496801225204914346
:104A3000826A1143026851600222416A11400029D2
:104A400007D001684968D2039143C26A11430268E2
:104A500051600422416A1140002907D00168496869
:104A600012049143026B1143026851600822416AAB
:104A70001140002907D00168496812039143426B35
:104A80001143026851601022416A1140002907D089
:104A90000168896812029143826B11430268916038
:104AA0002022416A1140002907D00168896812025A
:104AB0009143C26B1143026891604022416A1140E8
:104AC000002915D00168496892039143026C114393
:104AD0000268516001221205016C914208D10168FF
:104AE0004968032252059143426C114302685160A8
:104AF0008022416A1140002907D0016849681203E9
:104B00009143826C11430268516070470146002056
:104B1000C8662022692042546A20425400BF002205
:104B20006820425400BF002070470000FEB50446D4
:104B30000025102600270020029001902169A0681E
:104B4000084361690843E169084305462068006835
:104B500068490840284321680860206840680321AC
:104B600009038843E168084321684860216AA06915
:104B700008430546206880680B21090288432843C2
:104B80002168886000BF5C492068884217D15B4873
:104B9000006B8007800F002806D0012808D002286B
:104BA00008D0032808D101E0002607E0022605E02E
:104BB000042603E0082601E0102600BF06E0504965
:104BC0002068884201D1002600E0102600BF0121A4
:104BD000C903E069884249D1042E20D004DC002EAC
:104BE00007D0022E32D111E0082E25D0102E2DD163
:104BF0002DE0FDF787F940006168490840180090F2
:104C00006168FBF76FFA80B2029023E061684A089E
:104C10003C4BD018FBF766FA80B202901AE0FDF721
:104C200083F9400061684908401800906168FBF70B
:104C300059FA80B202900DE061684A0801231B0412
:104C4000D018FBF74FFA80B2029003E000BF0120BA
:104C5000019000BF00BF2C49029808400746029807
:104C60000007400F07432068C76040E0042E21D0B2
:104C700004DC002E07D0022E34D111E0082E26D0FD
:104C8000102E2FD12FE0FDF73DF96168490840183B
:104C900000906168FBF726FA80B22168C86025E0C1
:104CA00061684A08194BD018FBF71CFA80B22168DA
:104CB000C8601BE0FDF738F96168490840180090AA
:104CC0006168FBF70FFA80B22168C8600EE0616886
:104CD0004A080123DB03D018FBF704FA80B22168ED
:104CE000C86003E000BF0120019000BF00BF019831
:104CF000FEBD0000F369FFFF0038014000100240D4
:104D0000004400400024F400F0FF000000127A008C
:104D1000FFB581B004460D4617460A9E24E0701C7C
:104D2000002821D0002E05D0FCF762FC0499401A1F
:104D3000B04219D920680068FF21A1318843216859
:104D40000860206880684008400021688860202151
:104D5000692001556A20015500BF002168200155D6
:104D600000BF032005B0F0BD2068C0692840A842FC
:104D700001D1012000E00020B842D0D00020F1E7AE
:104D8000F0B585B00027002003901B4DFCF772FAA8
:104D900000200090194801900120029003A9684664
:104DA000FCF7AAF9622029460870692048706B2038
:104DB00088706520C87000208861002407E00E48D4
:104DC0008069A100695840180B498861641C062C51
:104DD000F5D30A4F002409E0A0002E58A000C11905
:104DE000324600230220FCF7E7F9641C072CF3D3BA
:104DF000FCF7D8F905B0F0BD7C03002000FC0008EA
:104E000030B47446641E2578641CAB4204D3635DE1
:104E10005B00E31830BC18471D46F8E702E008C8FD
:104E2000121F08C1002AFAD170477047002001E024
:104E300001C1121F002AFBD170470000FCF78EFE53
:104E4000FFF7E2F9FEF7AEFAFEF72CFBFEF758FB90
:104E5000FEF7ACFBFEF75CFAFBF756FCFEF758F9E1
:104E60000120FBF7EFFA002506E0FBF7B3FDFBF7A7
:104E700077FDFBF723FD6D1C402DF6D3384901204B
:104E8000FFF70AF940050121490508400646354863
:104E90000068884330433349086000BFFCF7A8FB33
:104EA0007D21C9008842F9D30020FBF7CBFA55E0F9
:104EB000FCF79EFB04462C480068844204D32A4831
:104EC0000068201A0A280AD82748006884420AD2B3
:104ED000254800682549081A00190A2803D92248DC
:104EE0000460FEF769F922480068844204D3204830
:104EF0000068201A64280AD81D480068844211D22C
:104F00001B4800681949081A001964280AD918486A
:104F10000460FBF7E9FAFFF7ABFBFEF769FB11480A
:104F2000FEF794FC13480068844206D311480068D9
:104F3000201A7D21C90088420CD80E48006884429E
:104F40000CD20C4800680949081A00197D21C900D3
:104F5000884203D907480460FFF732F9A8E7000048
:104F6000700000205003002010000020FFFF000010
:104F70000C00002014000020CD00D300DA00E10076
:104F8000E800EF00F500FB00C421060070FEFFFF03
:104F9000E94B0400A2FEFFFF0C0E0300D4FEFFFF4E
:104FA000BD33020006FFFFFFA99B010038FFFFFF92
:104FB0004A3001006AFFFFFF86E300009CFFFFFF0D
:104FC000FAAB0000CEFFFFFF558300000000000099
:104FD0004565000032000000CF4E00006400000074
:104FE000DD3D000096000000F7300000C800000022
:104FF00010270000FA000000651F00002C010000CF
:105000006A1900005E010000B51400009001000064
:10501000FC100000C2010000040E0000F4010000BA
:10502000A20B000026020000A20B000058020000A4
:10503000260800008A020000E0060000BC02000012
:10504000D4050000EE020000F6040000200300007A
:105050003F04000052030000A60300008403000088
:1050600025030000B6030000BA020000E8030000B8
:10507000CF06AD2F666BEB07EF6F3F065B4F666D9C
:105080007D0E7F6F3F065B4F666D7D0E7F6FCF0697
:10509000AD2F666BEB07EF6F3F066D4F565B7B07DF
:1050A0007F5F00000000000000000102030406070B
:1050B000080900000000010203040000DC500008A1
:1050C000000000207C0000001C4E00085851000821
:1050D0007C0000203C0700002C4E0008000000006F
:1050E00000000000000000000000000000000000C0
:1050F00000000000000000000000000000000000B0
:10510000000000000000000000000000000000009F
:10511000000000000000000000000000000000008F
:10512000000000000000000000000000000000007F
:10513000010000000000000000000000000000006E
:10514000000000000000000000000000000000005F
:085150000000000000127A00CB
:04000005080000B53A
:00000001FF
