:020000040800F2
:10000000C8080020C9000008754B000867320008C6
:1000100000000000000000000000000000000000E0
:10002000000000000000000000000000A14D0008DA
:1000300000000000000000008D4D0008A34D0008E6
:10004000DB00000800000000DB000008DB00000807
:10005000DB000008DB000008DB00000805070008E3
:1000600000000000DB000008DB000008DB000008E7
:10007000DB000008DB000008DB00000800000000D7
:10008000B94E0008DB00000800000000DB0000089B
:10009000DB000008DB000008DB000008DB000008D4
:1000A000DB000008DB000008DB000008255A000820
:1000B000355A00080348854600F062F800480047BA
:1000C000395C0008C80800200448804704480047FD
:1000D000FEE7FEE7FEE7FEE7FEE7FEE7454E000827
:1000E000B500000830B50B4601460020202201244F
:1000F00009E00D46D5409D4205D31D469540491B5C
:100100002546954040191546521E002DF1DC30BDA4
:1001100070B500242546002801DA01244042002958
:1001200001DA01254942FFF7DDFFAC4200D0404231
:10013000002C00D0494270BD10B5202A04DB0846CF
:10014000203AD040002110BD0B46D340D04020249F
:10015000A21A91400843194610BDD2B201E00270C4
:10016000401C491EFBD270470022F6E710B513462B
:100170000A4604461946FFF7F0FF204610BD00006E
:10018000064C0125064E05E0E36807CC2B430C3CEA
:1001900098471034B442F7D3FFF790FFC85E0008C9
:1001A000E85E000870B504460025206880680421D8
:1001B00008408008002829D020688068084000286E
:1001C0000BD02068806802210840002805D12068F3
:1001D0008068102108432168886001F027FA0546ED
:1001E0000EE001F023FA401B022809D9606C1021AF
:1001F00008436064A06C01210843A064012070BD25
:1002000020688068042108400028EAD10020F6E731
:1002100070B504460025206880688007800F01289B
:100220000ED120680068C007C00F002806D12068E2
:10023000C0680121C9030840884201D1012000E0C3
:100240000020002837D02068806805210840012858
:1002500000D100E0002000280AD000BF206880689C
:10026000022108432168886003202168086009E0B2
:10027000606C102108436064A06C01210843A064F5
:10028000012070BD01F0D2F905460EE001F0CEF973
:10029000401B022809D9606C102108436064A06CDF
:1002A00001210843A0640120EBE720688068C007B3
:1002B000C00F0028EAD10020E3E7000038B504466B
:1002C000002500200090206880688007800F0128AA
:1002D0000ED120680068C007C00F002806D1206832
:1002E000C0680121C9030840884201D1012000E013
:1002F0000020002843D12068806822490840002857
:1003000001D1012000E00020002809D1606C1021FB
:1003100008436064A06C01210843A064012038BD3B
:1003200020688068012108432168886016491748C1
:100330000068FFF7D7FE009002E00098401E009092
:1003400000980028F9D101F071F905460EE001F09E
:100350006DF9401B022809D9606C102108436064C4
:10036000A06C01210843A0640120D8E72068006840
:10037000C007C00F0121484048400028E7D00020B6
:10038000CDE700001700008040420F00B4000020BD
:100390001FB50446002003902848294908600846F4
:1003A00000F048FC002801D000F0B1F90120C0079E
:1003B00023494860002122488160C1600161042115
:1003C000416100218161C16101624162FF21C2314D
:1003D00081620021C162012101630021416300F0BB
:1003E00089FC002801D000F092F90094012000035C
:1003F0000190072002906946114800F057FB002841
:1004000001D000F084F90E4800F0EEFA0C4800F03C
:10041000FFFD002801D000F07AF90A21084800F019
:1004200085FD002801D000F072F9054800F05EFC5F
:1004300080B203906846808904B010BD002401405A
:10044000D800002038B50546CC2014490870E020BB
:100450004870F0208870E820C870002008717D2066
:10046000C00005230A46702100900D4801F0BEF936
:10047000052407E0002D01D0FF2000E000200749FF
:100480000855641C192CF5D37D20C0001923034A9C
:1004900070210090024801F0A9F938BDA80400209D
:1004A00024010020F8B506460D4617467019401D78
:1004B000192801D90120F8BD002404E0395D084A5B
:1004C000601D1154641CAC42F8D37D20C0006B1D2C
:1004D000034A70210090034801F088F9EBE700001F
:1004E000A80400202401002070B50025012040024E
:1004F00000F0B2F900281BD07C480068002813D116
:100500007B480078C007C00F002806D078480068F4
:10051000400840007649086006E0754800684008D9
:100520004000401C7249086001207049086002E0E8
:1005300000206E4908600120C00200F08DF90028FB
:100540001BD06C480068002813D169480078000669
:10055000C00F002806D0664800688021884364499F
:10056000086006E062480068802188438030604966
:10057000086001205F49086002E000205D490860D2
:10058000FF20013000F068F9002835D05A48006893
:1005900000282DD156480078C006C00F002812D080
:1005A0005348006810218843514908600846006894
:1005B000042188434E4908600846006808218843A2
:1005C0004B49086014E04A48006810218843103005
:1005D000474908600846006804218843001D4449D3
:1005E00008600846006808218843083040490860D0
:1005F00001204149086002E000203F4908603C4872
:100600000078C006C00F002825D1802000F024F912
:10061000002807D03648006808218843083034494C
:10062000086005E0324800680821884330490860C6
:10063000402000F011F9002807D02D48006804215F
:100640008843001D2A49086005E029480068042104
:100650008843274908600120800200F0FDF8002847
:1006600008D023480068FF21013188434018204901
:10067000086006E01E480068FF21013188431C49DC
:1006800008601B4800780006C20F0121C9021B4800
:1006900000F0C5FF16480088C005C20F02211748A8
:1006A00000F0BDFF00F05EF97D21C900484304461B
:1006B000134881682046FFF715FD0D49C86000F01A
:1006C000D3F80B49486100F013F909498860C868FC
:1006D00000F0B2F80649086108460088C004C00F5F
:1006E000002800D0002504F0E3F970BD5C00002074
:1006F000C80300206C0000206800002000040048AF
:100700000804002010B5402000F078FE10BD00BFA6
:10071000FEE7000000200749C8610748006904217E
:100720000843054908610846006940210843024919
:1007300008617047B8000020002002400021084AEC
:10074000D1610849096902221143064A1161114623
:100750004861096940221143024A11617047000053
:10076000B8000020002002400022054BDA61054A53
:10077000126901231A43034B1A610180704700007C
:10078000B80000200020024000200F49C968102254
:100790001140102907D10D49C969022211430B4AA2
:1007A000D161102108430849C96804221140042975
:1007B00007D10649C96901221143044AD1610421C4
:1007C00008430149C860704700200240B80000207B
:1007D00070B5044600F02AFF05460BE0601C0028B7
:1007E00008D0002C04D000F021FF401BA04201D90A
:1007F000032070BD0F48C068C007C00F0028EDD1AE
:100800000C48C06820210840202801D10949C8604F
:100810000848C06810210840102805D00548C06865
:1008200004210840042803D1FFF7AEFF0120E0E7D0
:100830000020DEE7002002400146002006E04200E2
:10084000044B9A5A8A4200D902E0401C0828F6D389
:1008500000BF70477C5D0008014602480068084000
:100860007047000020000020F8B51C4800681C49B3
:1008700088420AD2194801681A4802680068401C78
:10088000184B18609000184A11501648006810283C
:1008900002D30020134908600025002404E0A800CA
:1008A0001149085804196D1C102DF8D324090F495B
:1008B000614308467D21C900FFF714FC07467D21EE
:1008C000C900FFF70FFCC6080D213046FFF70AFCF0
:1008D0000446632C00D963242046F8BD04000020A0
:1008E000FC0800004C000020A002002080FE440014
:1008F00070B50420FFF74CFD0446164801680068F7
:10090000401C144A1060880013490C5010460068BF
:100910000A2802D30020114608600025002404E0C4
:10092000A8000D49085804196D1C0A2DF8D30A2196
:100930002046FFF7D7FB044601200003011B0748B0
:10094000FFF7E6FB0649441A204604F015F9044671
:10095000204670BD440000206003002000007102AA
:100960001027000070B50720FFF712FD044612485B
:1009700001680068401C104A106088000F490C5044
:1009800010460068202802D3002011460860002588
:10099000002404E0A8000949085804196D1C202D02
:1009A000F8D364090649614308460649FFF79AFBF4
:1009B0000446204670BD000048000020E0020020F0
:1009C000B5020000FF0F000070B5044600F02EFED7
:1009D0000546A54201D3281B70BD0248001B4019E3
:1009E000FAE70000FFFF000070B50446002500266E
:1009F00000BF4020005D012801D1022070BD01210F
:100A00004020015500BF206880688007800F0128C2
:100A10000CD1206800680840002805D12068C06813
:100A2000C9030840884201D1012000E000200028CD
:100A30002FD1606CFF21013188430221084360649B
:100A400020688068890708432168886000F0EEFD0F
:100A5000064611E000F0EAFD801B02280CD9606C0C
:100A60000221884310210843606400BF0021402018
:100A7000015500BF0120C1E720688068C00FC00792
:100A80000028E7D1606C022188430121084360649B
:100A900004E0606C202108436064012500BF002150
:100AA0004020015500BF2846A8E70000F8B50446DD
:100AB0000D4600260020009001210907A06B884206
:100AC00015D0A06B012812D0A06B02280FD0A06B0C
:100AD00003280CD0A06B042809D0A06B052806D0F1
:100AE000A06B062803D0A06B072800D000BF00BF72
:100AF0004020005D012801D10220F8BD01214020E5
:100B0000015500BF20688068042108408008002843
:100B10007BD14449686888425BD02068806A2A7823
:100B20000121914008432168886201210907A06BD7
:100B3000884229D0A06B012826D0A06B022823D0A0
:100B4000A06B032820D0A06B04281DD0A06B052823
:100B50001AD0A06B062817D0A06B072814D0A8685D
:100B6000216849694907490F88420DD020684069CA
:100B7000C008C0002168486120684069297A490797
:100B8000490F0843216848612868102802D0286866
:100B900011283FD1244880682968102901D1C9044F
:100BA00001E00121890508431F4988602868102851
:100BB00030D11E491E480068FFF794FA0A214843C5
:100BC000009002E00098401E009000980028F9D1A3
:100BD00020E02068806A2A780121914088432168BA
:100BE00088622868102802D02868112812D10E487F
:100BF00080682968102902D1C90402E005E00121BA
:100C0000890588430849886004E0606C2021084316
:100C10006064012600BF00214020015500BF30461E
:100C20006BE70000011000000027014040420F0068
:100C3000B400002070B504460025002C01D101202D
:100C400070BD606C0221084360642046FFF7AAFA79
:100C50000546002D07D12046FFF7DAFA0546012D9B
:100C600001D001206064012D33D0206840689F21AD
:100C70008843216848609F20216808602068C06818
:100C8000174908402168C860206800698000800812
:100C90002168086120684069C008C0002168486177
:100CA0002068006A0F490840216808622068806A4D
:100CB000C00CC004216888620B4880680321890544
:100CC000884309498860204600F0F4F80020A064B9
:100CD000606400BF00214020015500BF2846AFE7F7
:100CE00000023E8300F000F0002701400146086842
:100CF000006C704770B5044600260025002C01D119
:100D0000012070BD606C002806D1A0640021402045
:100D10000155204600F0E4F8606C102108400028DE
:100D20007ED1002EFCD12068806804210840800814
:100D30000028F5D1606C8901884302210843606472
:100D4000206880688007800F01280DD12068006826
:100D5000C007C00F002805D12068C068890308407B
:100D6000884201D1012000E0002000280FD1206836
:100D7000C06818218843A16808432168C8602068BA
:100D80000069800080086168084321680861206864
:100D9000C068464908402168C860A0698003E169CD
:100DA000C9030843216A49030843616B012902D042
:100DB0000121090300E000210843E168084321699B
:100DC000022901D1042100E000210843216B4900E0
:100DD00008430543606A01280ED1206A002803D128
:100DE00001200004054307E0606C20210843606493
:100DF000A06C01210843A064FF21C231A06A88428F
:100E000003D0E16AA06A084305432068C06828430C
:100E10002168C86001210907A06B884216D000E054
:100E20003DE0A06B012811D0A06B02280ED0A06B72
:100E300003280BD0A06B042808D0A06B052805D090
:100E4000A06B062802D0A06B07280DD1206840694E
:100E5000C008C0002168486120684069218F4907A7
:100E6000490F0843216848612068C068104908405C
:100E7000A84208D10020A064606C022188430121AF
:100E80000843606410E0606C02218843102108432D
:100E90006064A06C01210843A064012604E0606C3A
:100EA000102108436064012630462AE71902FEFF3C
:100EB000E7FF3F8310B5044607492068884209D1FF
:100EC0000648806949158843044988619021C8050E
:100ED00000F0E8F910BD00000024014000100240BD
:100EE00010B586B004460F492068884218D100BF6B
:100EF0000D488069491508430B4988610846806997
:100F000049150840009000BF00BF902001900320C9
:100F100002900020039001A90920C00600F07EFA8B
:100F200006B010BD0024014000100240F8B5044690
:100F30000D466069082801D1082711E02068C068C3
:100F4000C007C00F00280AD0606C202108436064ED
:100F500000BF00214020015500BF0120F8BD0C2733
:100F600000F064FB064614E0681C002811D0002D38
:100F700004D000F05BFB801BA8420AD9606C0421FE
:100F80000843606400BF00214020015500BF0320DA
:100F9000E4E72068006838400028E5D0606C012153
:100FA0004902084360642068C06803218902084040
:100FB000002825D1206A002822D120680068082155
:100FC000084008281CD12068806804210840800857
:100FD00000280DD1206840680C21884321684860B2
:100FE000606CFF210131884301210843606407E000
:100FF000606C202108436064A06C01210843A06458
:10100000A069002802D10C20216808600020A5E713
:1010100070B50446002520688068042108408008D7
:1010200000282BD100BF4020005D012801D1022003
:1010300070BD01214020015500BFE069012803D0A7
:101040002046FFF73BF90546002D18D1606C0D498D
:101050000840FF210131084360640020A06400BF04
:1010600000214020015500BF1C2021680860206835
:101070008068042108432168886000E00225284632
:10108000D6E70000FEF1FFFF70B5044600252120E1
:10109000005D022803D00420A06301251EE0206823
:1010A00000680E21884321680860206800684008B5
:1010B0004000216808600120216C8840E16B486095
:1010C00001212120015500BF00212020015500BF32
:1010D000606B002802D02046616B8847284670BDAF
:1010E00031B5002400F0A2FA044600BF00F09EFAD9
:1010F000001B00998842F9D338BD0000F8B50446BA
:101100000E460127002500BF2448007E012801D19A
:101110000220F8BD01202149087600BF206801287F
:1011200011D11F48FFF754FB002830D1FFF7F2FA26
:101130001B48FFF74DFB07461A4800690421884306
:101140001849086123E01648FFF742FB00281ED12A
:10115000401E3060656813E02846FFF7EFFA10483C
:10116000FFF736FB07460F480069022188430D4907
:101170000861002F01D0356008E0012080022D18A1
:10118000A068800261684018A842E5D800BF00BF8F
:1011900000200249087600BF3846BAE7B8000020B0
:1011A00050C300000020024003480069802108432A
:1011B000014908610020704700200240F0B51FB4CB
:1011C00086B0074615461E460120039000240020E5
:1011D000029000BF2548007E012802D102200BB0FA
:1011E000F0BD01202149087600BF2148FFF7F0FA41
:1011F00003900398002831D1012F02D101200290E1
:1012000006E0022F02D10220029001E004200290A9
:1012100000241FE022012846314604960595FEF77A
:101220008BFF80B261000190079808180090019927
:10123000FFF79AFA0E48FFF7CBFA03900D480069C2
:10124000400840000B4908610398002800D004E0E2
:10125000601CC4B202988442DCDB00BF00BF0020E7
:101260000249087600BF0398B9E70000B8000020E3
:1012700050C3000000200240074800698021084058
:10128000002805D00548044948600548486001E049
:10129000012070470020FCE7002002402301674541
:1012A000AB89EFCDF0B502460B46002000210024AB
:1012B0006FE0012585401D402946002968D015684A
:1012C00047000326BE40B5431560C508AE0015466D
:1012D0002035AD594607F70E0F26BE40B543C60868
:1012E000B60017462037BD51956847000326BE401B
:1012F000B5439560556801268640B5435560D5686D
:1013000047000326BE40B543D560244D8608B6008D
:10131000AC5985072E0F0F25B5402C400925ED0649
:10132000AA4201D100250FE01D4DAA4201D101259D
:101330000AE01C4DAA4201D1022505E01A4DAA423D
:1013400001D1032500E005258607360FB540A542EB
:101350001ED185072E0F0F25B5402C460F4D860850
:10136000B600AD59A5430D4E8708BF00F5510F4D8E
:101370002D688D430D4E356035466D688D43756023
:101380003546AD688D43B5603546ED688D43F560F3
:10139000401C1D46C540002D8BD1F0BD080001400A
:1013A0000004004800080048000C00480004014008
:1013B00070B50646402E1BD100F038F904460D48A2
:1013C0000068844203D30B480068251A05E00948E9
:1013D00000680021C943081A051906480460032D56
:1013E00006D929467D20C000FEF77CFE0249086030
:1013F00070BD0000080000200400002010B5044665
:10140000054840692040002804D003484461204634
:10141000FFF7CEFF10BD00000004014078B5034681
:10142000002200240020DEE0012696400D683540B1
:101430002C46002C7ED04D68022D02D04D68122D16
:1014400015D1D508AE001D462035A8595507EE0E1A
:101450000F25B5400646AE4330465607F60E0D69D9
:10146000B5402843D508AD001E4620367051186897
:1014700056000325B5400646AE4330460D79AD070C
:10148000AD0F5600B540284318604D68012D08D0B7
:101490004D68022D05D04D68112D02D04D68122DDA
:1014A00018D1986856000325B5400646AE4330462D
:1014B0005600CD68B540284398605868012595408E
:1014C0000646AE43304610264D6835402D099540FE
:1014D00028435860D86856000325B5400646AE43F9
:1014E000304656008D68B5402843D860012636073F
:1014F0004D683540B54275D100BF3E4DAD690126FE
:1015000035433C4EB5613546AD69ED07ED0F0095AD
:1015100000BF00BF384D9608B600A85995072E0F9A
:101520000F25B5400646AE4330460925ED06AB42D1
:1015300003D100E056E000250FE0304DAB4201D171
:1015400001250AE02E4DAB4201D1022505E02D4DCB
:10155000AB4201D1032500E005259607360FB540C3
:101560002843254D9608B600A851274D2868054602
:10157000A5432846012636044D683540B54202D1C0
:10158000054625432846204D286068680546A54342
:101590002846012676044D683540B54202D10546FD
:1015A00025432846184D6860A8680546A543284687
:1015B000012636054D683540B54202D10546254322
:1015C0002846114DA860E8680546A543284601262F
:1015D00076054D683540B54202D10546254328467B
:1015E000094DE860521C0D68D540002D00D01BE766
:1015F00078BD0000001002400800014000040048CF
:1016000000080048000C004800040140024613692D
:101610000B40002B01D0012000E000207047002A81
:1016200001D0816100E081627047000001480068DC
:10163000704700000000002002464120805C202806
:101640002FD100BF4020805C012801D102207047CB
:1016500001234020835400BF242341208354106879
:101660000068400840001368186010680068012393
:101670001B039843136818601068006808431368D8
:10168000186010680068012318431368186020234D
:101690004120835400BF00234020835400BF00201A
:1016A000D5E70220D3E710B502460B4600214120C2
:1016B000805C20282ED100BF4020805C012801D111
:1016C000022010BD01244020845400BF2424412066
:1016D0008454106800684008400014682060106856
:1016E00001680F2424020846A04301461802014362
:1016F00010680160106800680124204314682060AD
:1017000020244120845400BF00244020845400BF82
:101710000020D6E70220D4E710B50446002C01D102
:10172000012010BD4120005D002805D1002140208E
:101730000155204600F0FAF9242141200155206886
:10174000006840084000216808600F2109066068B1
:10175000884321680861206880680121C9038843A3
:1017600021688860E068012806D10121C903A068CA
:1017700008432168886005E021218902A0680843A8
:1017800021688860E068022802D1800221684860F0
:101790002068406814490843216848602068C06890
:1017A0000121C90388432168C86061692069084331
:1017B000A169090208432168C860216AE0690843F9
:1017C00021680860206800680121084321680860DA
:1017D0000020606420214120015500202063002169
:1017E0004220015500209CE700800002FFB581B037
:1017F000044616461F4600254120005D20287CD166
:1018000000BF4020005D012802D1022005B0F0BDDC
:1018100001214020015500BFFFF708FF05461923AD
:101820000122D1032046009501F0E4FD002801D0FB
:101830000320EBE7212141200155102142200155D1
:1018400000206064666267856063608DFF280BD945
:10185000FF20208548020090208DC2B20B05204653
:10186000029901F0AFFD0CE0608D2085012040035E
:101870000090208DC2B201235B062046029901F040
:10188000A1FD47E02A4620460A9901F009FE0028FA
:1018900006D0606C042801D10120B7E70320B5E72A
:1018A000616A481C6062087821688862608D401E09
:1018B0006085208D401E2085208D00282AD1608DD6
:1018C000002827D000950022802120460A9B01F0A5
:1018D00091FD002801D0032098E7608DFF280DD9E5
:1018E000FF20208500200090208DC2B201231B061E
:1018F0002046029901F066FD0CE031E0608D208504
:1019000000200090208DC2B201235B062046029980
:1019100001F058FD608D0028B4D12A4620460A996E
:1019200001F091FD002806D0606C042801D101204F
:101930006CE703206AE720202168C86120684068BE
:1019400008490840216848602021412001550021B4
:101950004220015500BF4020015500BF002055E73F
:10196000022053E700E800FEFFB583B004460C9F59
:101970000E9E00254120005D202871D1002F02D04D
:101980000D98002802D1012007B0F0BD00BF402013
:10199000005D012801D10220F6E701214020015518
:1019A00000BFFFF743FE054619230122D10320465D
:1019B000009501F01FFD002801D00320E4E722215B
:1019C000412001554021422001550020606467629A
:1019D0000D9860850020606300960195204604A95B
:1019E0000EC901F0A5FC002810D0606C042806D1B7
:1019F00000BF00214020015500BF0120C4E700BF07
:101A000000214020015500BF0320BDE7608DFF2865
:101A10000DD9FF202085092080020090208DC2B2C0
:101A200001231B062046049901F0CCFC0CE0608DDC
:101A30002085092080020090208DC2B201235B0620
:101A40002046049901F0BEFC00BF33460022042169
:101A50002046009501F0CEFC002802D0032093E739
:101A60005FE02068406AC1B2626A501C6062117017
:101A7000208D401E2085608D401E6085208D0028B1
:101A800029D1608D002826D03346002280212046AF
:101A9000009501F0AFFC002801D0032074E7608DB1
:101AA000FF280CD9FF20208500200090208DC2B295
:101AB00001231B062046049901F084FC0BE0608D95
:101AC000208500200090208DC2B201235B062046B5
:101AD000049901F077FC608D0028B6D12A46314682
:101AE000204601F0B0FC002806D0606C042801D12B
:101AF000012049E7032047E720202168C8612068CA
:101B0000406809490840216848602021412001556A
:101B100000214220015500BF4020015500BF002098
:101B200032E7022030E7000000E800FE10B586B082
:101B300004461249206888421DD1C020019012201D
:101B4000029001200390032004900120059001A938
:101B50000B48FFF763FC00BF0A48C0690121490533
:101B600008430849C8610846C06901214905084081
:101B7000009000BF00BF06B010BD00000054004040
:101B8000000400480010024002480068401C01495F
:101B9000086070470000002010B50648006810215A
:101BA000084304490860002000F006F800F018F827
:101BB000002010BD0020024070B5044600F0BAF9C4
:101BC00006467D21C900FEF78DFA054600F0E6FCC9
:101BD00000222146501E00F031F8002070BD0000A8
:101BE00008B500BF0E488069012108430C4988618F
:101BF00008468069C007C00F009000BF00BF0022E8
:101C00001146501F00F01AF800221146901E00F0F5
:101C100015F800221146501E00F010F808BD000013
:101C20000010024000BFC206D20E01219140024ABC
:101C3000116000BF7047000000E100E070B504468D
:101C40000D4616462946204602F0DCFF70BD000016
:101C5000F8B5044600260025012109042068084043
:101C600088427AD100274B48C06909030840002800
:101C70000DD100BF4748C06908434649C8610846BE
:101C8000C06909040840009000BF00BF0127424816
:101C90000068FF2101310840002816D13E48006845
:101CA00008433D490860FFF7C1FC064606E0FFF720
:101CB000BDFC801B642801D90320F8BD36480068AC
:101CC000FF21013108400028F1D03248006A032189
:101CD000090208400546002D2DD060680840A84242
:101CE00029D02C48006A884305462A48006A012109
:101CF00009040843274908620846006A01210904CB
:101D000088432449086208460562E807C00F002896
:101D100011D0FFF78BFC064607E0FFF787FC801B1E
:101D20001E49884201D90320C7E71A48006A0221E8
:101D300008400028F1D01748006A032109028843AF
:101D40006168084313490862012F05D10846C0693C
:101D5000090488430F49C86100BF2078C007C00F3D
:101D6000002807D00B48006B80088000A16808435A
:101D700008490863202120680840202807D1054829
:101D8000006B10218843E168084302490863002082
:101D900093E700000010024000700040881300002C
:101DA00070B504460D4600265D480068C007C00FA8
:101DB000A8420ED25A4800684008400028435849BB
:101DC000086008460068C007C00FA84201D0012083
:101DD00070BD022120680840022807D151484068A0
:101DE000F0218843A16808434E4948602078C00725
:101DF000C00F00285FD06068012808D149480068FA
:101E0000012149040840002815D10120E0E760685D
:101E1000022808D1434800680121490608400028EB
:101E200009D10120D4E73F4800680221084000287A
:101E300001D10120CCE73B48406880088000616800
:101E4000084338494860FFF7F1FB064660680128FF
:101E50000FD107E0FFF7EAFB801B3349884201D925
:101E60000320B5E72F4840680C2108400428F1D131
:101E700021E0606802280FD107E0FFF7D7FB801B45
:101E80002949884201D90320A2E7264840680C214D
:101E900008400828F1D10EE007E0FFF7C7FB801BE0
:101EA0002149884201D9032092E71E4840680C214D
:101EB00008400028F1D11A480068C007C00FA842A6
:101EC0000ED91748006840084000284314490860AC
:101ED00008460068C007C00FA84201D0012077E77C
:101EE000042120680840042808D10E4840680721D2
:101EF00009028843E16808430A49486000F032F863
:101F000008494968F02211400909084A515CC84053
:101F1000074908600020FFF74FFE002058E7000047
:101F2000002002400010024088130000B05E00084C
:101F3000B40000200148006870470000B400002091
:101F400000B5FFF7F7FF0549496807221202114063
:101F5000090A034A515CC84000BD0000001002405D
:101F6000C05E0008F0B589B024A001460EC9C06863
:101F700005AC0EC4089025A001460EC9C06801AC8E
:101F80000EC40490002400270025002600200090A5
:101F9000224844680C202040002827D0042802D082
:101FA000082822D102E01E48009022E00F20800481
:101FB0002040800C05A90E5C1848C06A0007000F7D
:101FC00001A90F5C0120000420400121090488427E
:101FD00006D139461248FEF785F87043054602E0FF
:101FE000104835464543009503E000BF0C4800907B
:101FF00000BF00BF009809B0F0BD00000203040557
:10200000060708090A0B0C0D0E0F1010010203043D
:1020100005060708090A0B0C0D0E0F1000100240F0
:1020200000127A0000093D00F8B50446002520782A
:10203000C007C00F002871D0F94840680C21084043
:1020400004280BD0F64840680840082812D1F4480C
:10205000406801210904084088420BD1F04800681B
:1020600001214904084000286BD06068002868D12D
:102070000120F8BD00BF6068012807D1E84800686A
:10208000012109040843E649086031E0606800283E
:102090000ED1E3480068012109048843E049086043
:1020A00008460068012189048843DD4908601FE073
:1020B000606805280ED1DA480068012189040843C8
:1020C000D749086008460068012109040843D4493B
:1020D00008600DE0D2480068012109048843D04916
:1020E000086008460068012189048843CC490860DB
:1020F00000BF6068002812D0FFF798FA054606E096
:10210000FFF794FA401B642801D90320B1E7C448C3
:1021100000680121490408400028F1D011E0FFF7D0
:1021200085FA054606E0FFF781FA401B642801D9CD
:1021300003209EE7BA4800680121490408400028AE
:10214000F1D1022120680840022861D1B4484068DA
:102150000C21084000280BD0B148406808400828EE
:102160001BD1AF484068012109040840002814D160
:10217000AB48006802210840002804D0E06801282C
:1021800001D0012075E7A6480068F821884321693D
:10219000C9000843A24908603AE0E068002820D05E
:1021A0009F480068012108439D490860FFF73EFAF7
:1021B000054606E0FFF73AFA401B022801D9032042
:1021C00057E797480068022108400028F2D0944859
:1021D0000068F82188432169C900084390490860D4
:1021E00016E08F480068400840008D490860FFF7FE
:1021F0001DFA054606E0FFF719FA401B022801D92F
:10220000032036E786480068022108400028F2D102
:10221000082120680840082831D1E069002817D03B
:102220007F48406A012108437D494862FFF7FEF973
:10223000054606E0FFF7FAF9401B022801D9032002
:1022400017E77748406A022108400028F2D016E0DC
:102250007348406A4008400071494862FFF7E6F958
:10226000054606E0FFF7E2F9401B022801D90320EA
:10227000FFE66B48406A022108400028F2D10421A1
:1022800020680840042871D100266548C069890685
:10229000084000280DD100BF6148C069084360496B
:1022A000C8610846C06909040840009000BF00BF2B
:1022B00001265C480068FF2101310840002816D142
:1022C00058480068084357490860FFF7AFF90546CA
:1022D00006E0FFF7ABF9401B642801D90320C8E6EC
:1022E00050480068FF21013108400028F1D000BFAC
:1022F000A068012806D14A48006A012108434849DC
:1023000008622BE0A06800280CD14548006A40080C
:102310004000434908620846006A04218843404956
:1023200008621BE0A06805280CD13D48006A042122
:1023300008433B4908620846006A012108433849BE
:1023400008620BE03648006A4008400034490862E1
:102350000846006A042188433149086200BFA0682A
:10236000002813D0FFF762F9054608E029E0FFF7DF
:102370005DF9401B2C49884201D9032079E62848A1
:10238000006A022108400028F1D011E0FFF74EF961
:10239000054607E0FFF74AF9401B2349884201D967
:1023A000032066E61E48006A022108400028F1D199
:1023B000012E05D11A48C069310788431849C86100
:1023C00000BF10212068084010285FD160690128F3
:1023D0002CD11348406B0421084311494863084637
:1023E000406B012108430E494863FFF71FF905467A
:1023F00006E0FFF71BF9401B022801D9032038E64D
:102400000748406B022108400028F2D00448406B86
:10241000F8218843A169C90008430149486335E0B0
:102420000010024000700040881300006069401DE9
:1024300000280FD14E48406B042188434C49486323
:102440000846406BF8218843A169C9000843484900
:1024500048631BE04648406B0421084344494863F5
:102460000846406B400840004863FFF7DFF8054628
:1024700006E0FFF7DBF8401B022801D90320F8E54E
:102480003B48406B022108400028F2D1206A002816
:102490006CD0374840680C210840082864D0206A76
:1024A000022847D132480068012109068843304993
:1024B0000860FFF7BBF8054606E0FFF7B7F8401BDA
:1024C000022801D90320D4E52948006801214906E2
:1024D00008400028F1D100BF2548C06A000900016A
:1024E000E16A08432249C862616AA06A0843204938
:1024F00049683D221204914308431D49486000BFCA
:102500000846006801210906084319490860FFF7D9
:102510008DF8054606E0FFF789F8401B022801D92F
:102520000320A6E51248006801214906084000285A
:10253000F1D01BE00E4800680121090688430C49D0
:102540000860FFF773F8054606E0FFF76FF8401BD9
:10255000022801D903208CE50548006801214906BD
:1025600008400028F1D101E0012082E5002080E54B
:1025700000100240042806D10649096904221143CB
:10258000044A116105E00349096904229143014AA3
:102590001161704700E000E07047000070B504462C
:1025A0002546681E0949884201D901200CE0681EB1
:1025B000074948610321081F02F024FB0020044959
:1025C000886107200861002070BD0000FFFFFF0048
:1025D00000E000E010B5FFF7DFFF10BD7047704767
:1025E00010B50446002C01D1012010BD3D20005D36
:1025F000002805D100213C200155204600F00CF8B0
:1026000002213D200155211D206802F05DFC0121C1
:102610003D2001550020E8E710B586B00446154975
:102620002068884223D100BF1348C06902210843B3
:102630001149C8610846C06902210840009000BFE6
:1026400000BF4020019002200290002003900490DF
:102650000120059001A90920C006FEF7DFFE002237
:1026600011461020FFF7EAFA1020FFF7DBFA06B058
:1026700010BD000000040040001002400146086840
:10268000C068012210430A68D0600868006801220F
:1026900010430A68106000207047F8B504460D46E4
:1026A000002600BF3C20005D012801D10220F8BDBA
:1026B00001213C20015500BF02213D200155206829
:1026C00086687721304688430646FF210902304656
:1026D0008843064620688660286850283ED00CDC77
:1026E000202863D004DC002856D0102868D158E098
:1026F000302860D0402863D144E0602838D070286A
:102700000DD001210903401A02D0401A58D117E018
:1027100020688068C008C0002168886051E0EB68CC
:102720006A68A968206802F02DFC20688668772115
:10273000304688430646772006432068866040E09E
:10274000EB686A68A968206802F01CFC2068806851
:102750000121890308432168886032E0EA686968DA
:10276000206802F02BFC5021206802F01AFC28E0BF
:10277000EA686968206802F075FC6021206802F050
:1027800010FC1EE0EA686968206802F017FC40212E
:10279000206802F006FC14E00021206802F001FC31
:1027A0000FE01021206802F0FCFB0AE020212068E5
:1027B00002F0F7FB05E03021206802F0F2FB00E0B8
:1027C00000BF00BF01213D20015500BF00213C207A
:1027D000015500BF00206AE710B50446207F01289C
:1027E00047D124480068002809D10021204600F084
:1027F00023FA2149086001201E49086039E00021C0
:10280000204600F019FA1D4908601D48006800289C
:102810001FD1084600681849096888420BD3174839
:102820000068154A1268811A16480068FDF75AFCBC
:10283000154908600DE0104AE0681268801A0F4AD6
:1028400012688018411C0F480068FDF74BFC0E49C8
:1028500008600A4800680849086006480068401C8B
:1028600004490860002801D10120086000200449C3
:10287000086010BD140000200C0000201000002093
:102880001C0000201800002004000020F8B50446B9
:102890000D46164600BF3C20005D012801D10220F4
:1028A000F8BD01213C20015500BF02213D2001550A
:1028B000002E12D1EB686A682968206802F09AFB42
:1028C000206880690C2188432168886120688069BC
:1028D000A9680843216888613FE0042E14D1EB68A1
:1028E0006A682968206802F0D8FB206880690321A3
:1028F000890288432168886120688069A968090283
:1029000008432168886128E0082E12D1EB686A68C4
:102910002968206802F0E7FB2068C0690C21884321
:102920002168C8612068C069A96808432168C86136
:1029300013E0EB686A682968206802F0F9FB2068F8
:10294000C0690321890288432168C8612068C06981
:10295000A968090208432168C86101213D20015589
:1029600000BF00213C20015500BF002098E710B5B2
:102970000446002C01D1012010BD3D20005D00283F
:1029800005D100213C200155204600F00CF8022121
:102990003D200155211D206802F096FA01213D20BD
:1029A00001550020E8E7704730B504460D46002D7C
:1029B00006D0042D0BD0082D10D00C2D1CD114E006
:1029C0002068C068022108432168C86015E02068BB
:1029D000C068042108432168C8600EE02068C06810
:1029E000082108432168C86007E02068C0681021FA
:1029F00008432168C86000E000BF00BF01222946EB
:102A0000206802F0B1FA20680068012108432168BB
:102A10000860002030BD10B504462068006902211E
:102A20000840400800281CD02068C06808404008C2
:102A3000002816D0481F21680861012020772068EF
:102A400080698007800F002803D02046FFF7C4FE6E
:102A500005E0204600F0C3F8204600F0C1F8002051
:102A600020772068006904210840800800281DD0D4
:102A70002068C06808408008002817D0C843216833
:102A8000086102202077206880690321090208403C
:102A9000002803D02046FFF79FFE05E0204600F007
:102AA0009EF8204600F09CF80020207720680069FE
:102AB00008210840C00800281CD02068C0680840D1
:102AC000C008002816D0C843216808610420207778
:102AD0002068C0698007800F002803D02046FFF7D8
:102AE0007BFE05E0204600F07AF8204600F078F8FA
:102AF0000020207720680069102108400009002884
:102B00001DD02068C06808400009002817D0C843BD
:102B100021680861082020772068C0690321090224
:102B20000840002803D02046FFF756FE05E0204667
:102B300000F055F8204600F053F800202077206878
:102B40000069C007C00F01214840484000280CD050
:102B50002068C068084048404840002805D0C81E8A
:102B600021680861204600F03DF820680069802156
:102B70000840C00900280BD02068C0680840C00980
:102B8000002805D0C843216808612046FFF726FDCC
:102B90002068006940210840800900280BD0206887
:102BA000C06808408009002805D0C8432168086132
:102BB000204600F06DF82068006920210840400997
:102BC00000280BD02068C06808404009002805D0C4
:102BD000C843216808612046FFF701FD10BD70471A
:102BE0007047000001210F4A11600F4909680F4A20
:102BF000126891420DD10E490A680968491C0C4BB4
:102C00001960032A08D30021084A1160094A11609B
:102C100002E00021064A116004490968024A116075
:102C2000704700001C0000209C00002014000020C1
:102C3000980000200400002010B50246002300BFC9
:102C40003C20805C012801D1022010BD01243C20E1
:102C5000845400BF002906D0042907D0082908D0D1
:102C60000C290CD108E01068436B09E01068836BF5
:102C700006E01068C36B03E01068036C00E000BF5F
:102C800000BF00BF00243C20845400BF1846DCE78E
:102C9000704710B50446002C01D1012010BD24213D
:102CA00069200155206800684008400021680860DC
:102CB00000202168086021684860216888602046FB
:102CC00000F03EF90020E0660021692001556A20ED
:102CD000015500BF6820015500BF0020DEE700005D
:102CE00010B504460C48844208D120220B492046E6
:102CF00000F0B6F900280DD0FDF709FD0848844220
:102D000008D120220749204600F0AAF9002801D066
:102D1000FDF7FDFC10BD0000C0010020880300206D
:102D200030020020A8030020F8B504462068C569D9
:102D3000206806682807000F0090009800280BD133
:102D400020202840002807D020203040002803D031
:102D5000204602F0BBFCF8BD206887680098002878
:102D60007ED0F807C00F002804D1FF20213030406A
:102D70000028F5D0E807C00F00280BD0FF20013055
:102D80003040002806D0012021680862E06E012151
:102D90000843E0660220284000280AD0F807C00F48
:102DA000002806D0022021680862E06E0421084352
:102DB000E0660420284000280AD0F807C00F002849
:102DC00006D0042021680862E06E02210843E06614
:102DD0000820284000280ED020203040002803D1B1
:102DE000F807C00F002806D0082021680862E06EAE
:102DF00008210843E066E06E002841D020202840EA
:102E0000002806D020203040002802D0204602F0C2
:102E10005DFCE06E08210840002805D1206880682C
:102E200040210840002826D0204602F02EFC2068D1
:102E3000806840210840002819D0206880688843B5
:102E400021688860606E00280DD01B48616E486361
:102E5000606EFEF719F9002812D0606E416B00E039
:102E60000FE088470CE02046FFF73AFF08E02046D5
:102E7000FFF736FF04E02046FFF732FF0020E06650
:102E800069E780202840002807D0802030400028B3
:102E900003D0204602F054FD5DE740202840002882
:102EA00007D040203040002803D0204602F0FEFB2F
:102EB00051E700BF4FE700007356000810B5044605
:102EC000002C01D1012010BDA069002800D000E035
:102ED00000BF6920005D002805D100216820015550
:102EE000204600F059F82421692001552068006827
:102EF0004008400021680860204602F02FFC0128AD
:102F000000D1E0E7606A002802D0204602F02AFBE8
:102F1000206840680121C902884321684860206810
:102F20008068082188432168886020680068012142
:102F3000084321680860204602F08CFBC3E70000CC
:102F400010B504461149206888420DD110488069A7
:102F50000121890388430E49886103214902092020
:102F6000C006FEF79FF90FE00A49206888420BD19E
:102F70000748C0690121490488430549C8610C21FB
:102F80000920C006FEF78EF910BD00000038014090
:102F9000001002400044004010B586B004462D49A0
:102FA0002068884228D100BF2B488069012189030D
:102FB000084329498861084680690121890308403E
:102FC000009000BF00BF0320400201900220029049
:102FD00001200390032004900120059001A90920FD
:102FE000C006FEF71BFA012200211B20FEF726FE79
:102FF0001B20FEF717FE2AE018492068884226D1D8
:1030000000BF1548C0690121490408431249C8613D
:103010000846C069012149040840009000BF00BF74
:103020000C200190022002900120039003200490C4
:103030000120059001A90920C006FEF7EFF9012241
:1030400000211C20FEF7FAFD1C20FEF7EBFD06B068
:1030500010BD000000380140001002400044004054
:1030600010B503466A20C05C20285AD1002901D03F
:10307000002A01D1012010BD012424039868A04238
:1030800008D11869002805D1C807C00F002801D051
:103090000120F0E700BF6820C05C012801D10220B8
:1030A000E9E701246820C45400BF59655820C25282
:1030B0005A20C25200BF24039868A0420AD118695E
:1030C000002803D1184C5C20C45210E0FF245C207F
:1030D000C4520CE09868002809D11869002803D16F
:1030E000FF245C20C45202E07F245C20C45200BF55
:1030F0000020D86622246A20C45400BF002468201F
:10310000C45400BF18688068012420431C68A06074
:1031100018680068FF24213420431C6820600020C8
:10312000A9E70220A7E70000FF01000010B5044650
:103130000C48844208D120220B492046FFF790FF1B
:1031400000280DD0FDF7E3FA0848844208D1202278
:1031500007492046FFF784FF002801D0FDF7D7FA82
:1031600010BD0000C00100208803002030020020B4
:10317000A8030020FEB504460D4616461F46002053
:1031800001906920005D20286AD1002D01D0002E19
:1031900001D10120FEBD01210903A068884208D1A8
:1031A0002069002805D1E807C00F002801D00120C0
:1031B000F0E700BF6820005D012801D10220E9E7A7
:1031C00001216820015500BF0020E066212169200F
:1031D0000155FEF72BFA019050200653522006535A
:1031E00025E05220005B401E81B25220015300971F
:1031F000002280212046019B02F0DBFB002801D049
:103200000320C7E701210903A06888420BD1206988
:10321000002808D10295029D2888C005C00D2168AC
:103220000885AD1C03E028786D1C216808855220B4
:10323000005B0028D5DC0097002240212046019B3E
:1032400002F0B7FB002801D00320A3E7202169206A
:10325000015500BF00216820015500BF002099E7FB
:10326000022097E7704700BFFEE7016889690222E4
:1032700011404908002902D00021026891620168CA
:103280008969C907C90F012251405140002904D161
:1032900001688969114302689161704770B50446FD
:1032A0000D46164620688069102108400009002854
:1032B0003AD015E0681C002812D0002D04D0FEF78B
:1032C000B5F9801BA8420BD92021412001550021CE
:1032D0004220015500BF4020015500BF032070BDB2
:1032E000206880692021084040090028E2D0102091
:1032F0002168C86120202168C8612046FFF7B5FF1A
:1033000020684068094908402168486004206064DA
:1033100020214120015500214220015500BF4020BD
:10332000015500BF0120DAE70020D8E700E800FEE1
:10333000FFB581B0044615461E460A9F0120400392
:10334000F2B2002300902046029900F03BF8394683
:1033500020460B9A00F0A4F8002807D0606C0428DF
:1033600002D1012005B0F0BD0320FBE7012E03D1FF
:10337000E8B22168886216E0FF20000228400012AF
:1033800021688862394620460B9A00F089F80028A7
:1033900006D0606C042801D10120E3E70320E1E7B7
:1033A000E8B2216888620B983B46002240210090D9
:1033B000204600F01FF8002801D00320D2E70020AB
:1033C000D0E70000F0B50C46002105686968084D9B
:1033D0002940A505AD0D1604FF273F043E403543A7
:1033E0001D43059E3543294305686960F0BD000013
:1033F000009800FCF8B504460E4617461D4616E038
:10340000681C002813D0002D05D0FEF70FF906998F
:10341000401AA8420BD92021412001550021422009
:10342000015500BF4020015500BF0320F8BD2068B2
:1034300080693040B04201D1012000E00020B84254
:10344000DED00020F2E770B504460D4616461EE0B9
:10345000324629462046FFF721FF002801D00120EF
:1034600070BD002D04D0FEF7E1F8801BA8420ED9F4
:10347000606C2021084360644120015500214220F6
:10348000015500BF4020015500BF0320E8E7206838
:1034900080692021084040090028D9D00020DFE7BA
:1034A00070B504460D46164621E0324629462046B0
:1034B000FFF7F4FE002801D0012070BD681C002831
:1034C00015D0002D04D0FEF7B1F8801BA8420ED90C
:1034D000606C202108436064412001550021422096
:1034E000015500BF4020015500BF0320E5E72068DB
:1034F00080690221084040080028D6D00020DCE77F
:1035000070B5304E002406E0A0002F494018006836
:10351000A1007050641C282CF6D30025002403E081
:10352000A00030584519641C272CF9D32548007891
:10353000622810D12348407869280CD1214880782E
:103540006B2808D11F48C078652804D11D488030F9
:10355000C069A84209D07D20C0001A498860C860AF
:10356000086100204861012088614022002117483D
:10357000FCF7F3FD13484069144988610846006868
:103580000121090388434018104908600846006A71
:10359000012108430D490862084600680121090518
:1035A00088430A4908600846006803218904884363
:1035B000064908603020034948600548054908600D
:1035C00070BD00000804002000FC0008C8030020B3
:1035D0007C5D00083800002010B5002400F0E6F8FB
:1035E000012149034C48FEF711F8002801D10120C0
:1035F00000E000200443012189034748FEF706F854
:10360000002801D1022000E0002004430121C90369
:103610004148FDF7FBFF002801D1042000E0002015
:10362000044301213D48FDF7F1FF002801D10820A6
:1036300000E00020044302213848FDF7E7FF00289E
:1036400001D1102000E0002004430121C90309201A
:10365000C006FDF7DBFF002801D1402000E000207C
:10366000044308212E48FDF7D1FF002801D1802016
:1036700000E000200443FF2101312948FDF7C6FF87
:10368000002802D1FF20013000E000200443012186
:1036900049022348FDF7BAFF002802D10120400269
:1036A00000E00020044310211D48FDF7AFFF002873
:1036B00002D10120800200E0002004430121092002
:1036C000C006FDF7A3FF002802D10120C00200E0E0
:1036D0000020044302210920C006FDF797FF0028BF
:1036E00002D10120000300E0002004430D480068DF
:1036F00084420AD10C4801680068401C0A4A1060E4
:103700000A2905D30948046002E000200649086040
:103710000448046010BD0000000800480014004880
:10372000000400483C000020400000202000002051
:103730000EB51C481C4908600020486000211A484A
:103740008160C16001210161042141610021816129
:10375000C16101624162FF21C23181620021C16207
:10376000016301214163FDF7C5FA002801D0FCF790
:10377000CEFF04200090800201900720029069464D
:103780000948FDF793F9002801D0FCF7C0FF072096
:10379000009069460448FDF789F9002801D0FCF73C
:1037A000B6FF0EBD00240140D800002000B587B050
:1037B00000BF384840690121C904084335494861C0
:1037C000084640690121C9040840019000BF00BFBC
:1037D00000BF30484069C90008432E494861084687
:1037E0004069012189050840019000BF00BF00BF6A
:1037F00028484069491108432649486108464069FC
:10380000012149040840019000BF00BF00BF2148CA
:103810004069490008431F49486108464069012141
:1038200089040840019000BF00BF072040030290B8
:1038300000200390049002A91748FDF7EFFD032034
:10384000029000200390049002A91448FDF7E6FDC1
:103850001348029000200390049002A90920C0069A
:10386000FDF7DCFD6320C00002900020039004906F
:1038700002A90C48FDF7D2FD0B48029001200390ED
:1038800000200490059002A90648FDF7C7FD07B087
:1038900000BD00000010024000080048001400486D
:1038A0000380000000040048070C000010B5134816
:1038B00013490860134848600021114881600121C4
:1038C000C1600021016141618161C1610162FDF757
:1038D00023FF002801D0FCF71AFF00210848FDF75C
:1038E000ABFE002801D0FCF712FF00210448FDF7D1
:1038F000DAFE002801D0FCF70AFF10BD005400409A
:10390000240100200E09002000B589B02448254973
:103910000860801548600021224881602249C1600A
:1039200001214902016100218161FEF759FE002851
:1039300001D0FCF7ECFE1B48FEF7A0FE01200003BF
:10394000059005A91748FEF7A8FE002801D0FCF74E
:10395000DEFE1448FFF70BF8002801D0FCF7D7FE75
:103960000020019001200290002003900F2004907D
:10397000002201A90B48FEF789FF002801D0FCF7BF
:10398000C6FEFEF7DDFA000A084908600021054876
:10399000FFF70AF8002801D0FCF7B9FE09B000BD16
:1039A0000004004080010020FFFF000018000020FC
:1039B00010B5164816490860E12040024860002111
:1039C00013488160C16001610C2141610021816166
:1039D000C161016200200E4948620846FFF759F9AB
:1039E000002801D0FCF793FE0948FFF767FA00288A
:1039F00001D0FCF78CFE202206490548FFF730FB7A
:103A0000002801D0FCF783FE10BD00000038014003
:103A1000C00100208803002010B516481649086030
:103A2000E12040024860002113488160C1600161CB
:103A30000C21416100218161C161016200200E49B8
:103A400048620846FFF725F9002801D0FCF75FFE21
:103A50000948FFF733FA002801D0FCF758FE20226E
:103A600006490548FFF7FCFA002801D0FCF74FFE95
:103A700010BD00000044004030020020A8030020D8
:103A800070B5AE48017E408B081AC6B2002E00D138
:103A900070BDAB480078B04210D12021A74820303B
:103AA00081720020A64908702022A649A348403808
:103AB000FFF7D6FA002872D0FCF729FE35E1A148BD
:103AC0009F490978405CAB286AD19E499C480078A0
:103AD000001D085CEF28F7D1084699490978441879
:103AE00097480078401D964908706078052848D0AE
:103AF00006DC030002F082F80511292A2B2C850030
:103B000030287DD004DC06283CD0072879D148E055
:103B1000402877D04128F9D1A6E0A078002813D119
:103B2000E078002810D18848006803218904884380
:103B30000121890440188449086008460068012171
:103B40000905884380490860E7E000BF00BF00BF67
:103B50007D4800680121090588436178022901D068
:103B6000012100E00021090501221205114008434E
:103B700075490860A0780002E17808437249C8617D
:103B8000CBE000BFA0780002E17808430546002D95
:103B900004D06E48854201D06B48C561BDE0CAE0E3
:103BA000BCE0A0780002E17808430546002D0BD167
:103BB000654800680121490488434018624908604B
:103BC00000206349088023E06048854207D15E48B1
:103BD00000680121490488435B49086018E05A489D
:103BE00000688003C00F002812D0594800882028A0
:103BF0000ED0574801880088401C554A108002E0CA
:103C000007E089E009E08900524845504E48C56107
:103C100083E0E0784C4988627FE0A078002809D1F1
:103C2000E078002806D104204749486249491C39F8
:103C3000886118E0A078002809D1E078012806D131
:103C400002204149486243491C3988610BE0A07851
:103C5000002808D1E078022805D101203A494862BD
:103C60003C491C39886158E03748006803218904C1
:103C7000884301218904401833490860A07800284E
:103C800009D1E078002806D10846006A042188435B
:103C90002D4908623FE0A078012809D1E07800288A
:103CA00006D12948006A042108432749086232E006
:103CB000A078002809D1E078012806D12248006ABE
:103CC000022188432049086225E0A078012809D113
:103CD000E078012806D11C48006A022108431A49ED
:103CE000086218E0A078002809D1E078022806D1FF
:103CF0001548006A40084000134908620BE0A078AC
:103D0000012808D1E078022805D10F48006A012176
:103D100008430D49086200BF00BF05E0084800786D
:103D2000401C0749087000E000BF05480078301AC1
:103D3000052800DBC3E600BFAAE600000002002061
:103D40009600002088030020C8030020FFFF000029
:103D500092000020240400201FB5FE48FCF77CFDE3
:103D60000446AA2168460170002141708170C1702B
:103D7000EF210171F84800680003800F00281FD16F
:103D8000F64801880088401CF44A1080322916DB6E
:103D9000002011460880AA21684601705021417018
:103DA00000218170C170EF210171ED4B0522694640
:103DB000EC48FFF7DFF9002801D0FCF7A8FC1FBD95
:103DC000002C7DD1E848006810287AD1E2480068CC
:103DD000C002C00F002862D1DF4800680003800FD6
:103DE000012845D1DC48006803218904884301216A
:103DF000C9044018D84908600846406A04280AD116
:103E0000AA21684601704021417000218170C17073
:103E1000EF2101711EE0D048406A02280BD1AA218F
:103E20006846017040214170002181700121C170FC
:103E3000EF2101710EE0C848406A01280AD1AA2189
:103E40006846017040214170002181700221C170DB
:103E5000EF210171C24B05226946C248FFF78AF97A
:103E6000002801D0FCF753FCFF20F530FDF738F9AE
:103E7000B94800680121090588434018B64908601F
:103E80000121684641700021C170B54B0522694689
:103E9000B448FFF76FF900287ED0FCF738FCAE4835
:103EA0000068012109058843AB4908600221684682
:103EB00041700021C170AA4B05226946A94801E062
:103EC00019E105E0FFF756F90028E5D0FCF71FFCE3
:103ED000A548006801280BD1032069464870A04B13
:103EE0000522A048FFF746F90028D5D0FCF70FFCC3
:103EF0009D48006802280BD1042069464870984B01
:103F000005229848FFF736F90028C5D0FCF7FFFBDB
:103F100095480068042819D13020694648708E48B9
:103F2000806A092804D28C48008D401CC87003E0C8
:103F30008948008D6946C870894B052269468948C1
:103F4000FFF718F90028A7D0FCF7E1FB86480068C6
:103F5000082819D13020694648707F48806A0028B7
:103F600004D07D48008D401EC87003E07A48008D63
:103F70006946C8707A4B052269467A48FFF7FAF815
:103F8000002889D0FCF7C3FB7748006801210903AA
:103F9000884201D1704800E0A9E0406A012834D18C
:103FA0006D48006A02210840002814D0AA21684602
:103FB000017040214170002181700121C170EF2109
:103FC0000171674B052269466648FFF7D3F8002860
:103FD0008BD0FCF79CFB6048006A04210840002855
:103FE00093D0AA2168460170402141700021817060
:103FF000C170EF2101715A4B052269465948FFF7FC
:10400000B9F8002873D0FCF782FB5348406A0228B5
:1040100034D15148008CC007C00F002814D0AA2109
:104020006846017040214170002181700221C170F9
:10403000EF2101714A4B052269464A48FFF79AF879
:10404000002854D0FCF763FB4348006A0421084071
:1040500000284CD0AA2168460170402141700021FF
:104060008170C170EF2101713D4B052269463D48C9
:10407000FFF780F800283AD0FCF749FB3648406A41
:10408000042834D13448006A02210840002814D0A2
:10409000AA216846017040214170002181700121F0
:1040A000C170EF2101712E4B052269462D48FFF7A3
:1040B00061F800281BD0FCF72AFB2748008CC007BA
:1040C000C00F002813D0AA2168460170402141701A
:1040D00000218170C170EF210171214B05226946D9
:1040E0002048FFF747F8002801D0FCF710FB00201C
:1040F0001E490880C1E0022C4FD11C48018800886D
:10410000401C1A4A10801E293ED100241248406AE1
:10411000012813D1AA2168460170052141700021B0
:104120008170C170EF2101710D4B052269460D4868
:10413000FFF720F80028DDD0FCF7E9FA1E200B4934
:104140000880AA2168460170042141700021817015
:10415000C1700DE01F100000C80300209000002077
:1041600088130000C0010020840000208E00002081
:10417000EF210171434B052269464348FEF7FAFFE0
:1041800000287AD0FCF7C3FA404800881E2874DD66
:1041900000241F203D4908806FE0012C40D13B489E
:1041A00001880088401C394A10801E292FD1002424
:1041B0003748406A012813D1AA21684601700621B8
:1041C000417000218170C170EF2101712D4B0522DA
:1041D00069462D48FEF7CEFF00284ED0FCF797FA2F
:1041E0001E202A490880AA216846017004214170D6
:1041F00000218170C170EF210171224B05226946B7
:104200002148FEF7B7FF002837D0FCF780FA1F4897
:1042100000881E2831DD00241F201C4908802CE066
:1042200001200003844228D11948406A012824D182
:10423000164801880088401C144A10801E2914D199
:104240000024AA2168460170072141700021817075
:10425000C170EF2101710B4B052269460A48FEF738
:1042600089FF002809D0FCF752FA084800881E2868
:1042700003DD00241F20054908800648046000BFB4
:104280009DE5000088130000C00100208E00002082
:10429000C80300208400002070B586B004460025C5
:1042A000FA480078401CF94908700A21F74800785C
:1042B000FBF72EFFC8B2F549087000BF04E00020EC
:1042C00001A94855681CC5B2142DF8D320784007C1
:1042D000C00F002822D0EE480078401CEC4908703E
:1042E0000A21EB480078FBF713FFC8B2E8490870D1
:1042F0000846007805280BDA69460879102108433A
:104300006946087101220421E248FDF788F90DE0B1
:1043100000220421DF48FDF782F907E00020DC4994
:10432000087000220421DB48FDF779F920780007A6
:10433000C00F002822D0D8480078401CD649087009
:104340000A21D5480078FBF7E3FEC8B2D2490870CD
:104350000846007805280BDA6946887B80210843E7
:104360006946887301229102CA48FDF758F90EE0A8
:1043700000220421C748FDF752F908E00020C64991
:104380000870002201218902C248FDF748F920780F
:10439000C007C00F00280BD06946C8791021084318
:1043A0006946C87101221146BA48FDF738F904E0A0
:1043B00000220121B748FDF732F920788007C00FAD
:1043C000002805D06946487910210843694648719C
:1043D00020888004C00F002805D06946087A012192
:1043E00008436946087220884004C00F002805D0A1
:1043F0006946487A012108436946487220780006D8
:10440000C00F002805D06946087C80210843694612
:10441000087420880004C00F002805D06946887DF4
:1044200008210843694688752068C002C00F00282B
:1044300006D06946C87C802108436946C87405E0F7
:104440006946087D8021084369460875606A01282D
:1044500006D16946087D042108436946087512E0C3
:10446000606A022806D16946087D0821084369462A
:10447000087508E0606A082805D16946087D0221B0
:104480000843694608756946487C802108436946A7
:1044900048742069030001F0B1FB090611181F26BA
:1044A0002D343B42490079480078052805DA6946F1
:1044B000487C802188436946487438E06946C87D55
:1044C000012108436946C87531E06946C87D052168
:1044D00008436946C8752AE06946C87D0721084334
:1044E0006946C87523E06946C87D0F2108436946BF
:1044F000C8751CE06946C87D8F2108436946C875A8
:1045000015E06946C87DAF2108436946C8750EE0CD
:104510006946C87DEF2108436946C87507E06946CA
:10452000C87DFF2108436946C87500E000BF00BF91
:104530000A21A068FBF7ECFD061E01DB314600E016
:10454000714208460A21FBF7E3FD5448405C001124
:104550006946C97A08436946C8720A21A068FBF710
:10456000D7FD061E01DB314600E0714208460A21F4
:10457000FBF7CEFD4948405C00016946097B0843D2
:10458000694608730A21A068FBF7C2FD061E01DB1D
:10459000314600E0714208460A21FBF7B9FD3F4968
:1045A000085C00116946897A0843694688720A21C5
:1045B000A068FBF7ADFD061E01DB314600E071424D
:1045C00008460A21FBF7A4FD3449085C000169464E
:1045D000C97A0843C1B26846C172C07A082108434B
:1045E0006946C872A068002804DA887A082108435E
:1045F0006946887220688002C00F00287AD00A219C
:10460000206BFBF76FFD2649095C68460079014382
:10461000684601710A21206BFBF764FD2048415C6C
:10462000684640790143684641710A21606BFBF797
:1046300059FD1B49095C68468079014368468171D0
:104640000A21606BFBF74EFD1548415C6846C07956
:1046500001436846C17120684002C00F00283FD066
:104660000A480078052834DAE06B002806D00128D3
:1046700018D002281DD0032829D121E069460879E5
:10468000102108406946087122E00000A0000020C7
:10469000A100002000040048A20000209C5E000849
:1046A000745E0008694648791021084069464871DF
:1046B0000EE069468879102108406946887107E054
:1046C0006946C879102108406946C87100E000BFFA
:1046D00000BF69468879102108436946887109E05E
:1046E000ED480078052805DA6946887910210843E5
:1046F000694688710A21E068FBF7F4FC06460A2146
:10470000FBF7F0FCE548405C01116846407D014341
:10471000684641750A21E068FBF7E4FC06460A2179
:10472000FBF7E0FCDD48405C01016846407D014349
:10473000684641756421E068FBF7D4FC06460A210F
:10474000FBF7D0FCD548405C01116846807D0143F1
:10475000684681756421E068FBF7C4FC06460A21BF
:10476000FBF7C0FCCD48405C01016846807D0143F9
:1047700068468175407D08210143684641750A21DC
:10478000A069FBF7AFFCC648405C0107090F68460B
:10479000007B0143684601730A21A069FBF7A2FC74
:1047A000BF48405CF02108406946497B08436946A0
:1047B00048730A21A069FBF795FC06460A21FBF71E
:1047C00091FCB748405C0007000F6946497B0843ED
:1047D000694648730A21A069FBF784FC06460A2152
:1047E000FBF780FCAE48405CF02108406946897BBD
:1047F0000843694688736421A069FBF773FC064689
:104800000A21FBF76FFCA648405C0007000F6946D1
:10481000897B0843694688736421A069FBF762FCC1
:1048200006460A21FBF75EFC9D48405CF0210840EB
:104830006946C97B08436946C8737D21C900A069E0
:10484000FBF750FC06460A21FBF74CFC9448405C01
:104850000007000F6946C97B08436946C8737D217C
:10486000C900A069FBF73EFC06460A21FBF73AFCAB
:104870008B48405CF02108406946097C0843694642
:1048800008748849A069FBF72DFC06460A21FBF74E
:1048900029FC8348405C0007000F6946097C0843F7
:1048A000694608747F49A069FBF71CFC06460A218B
:1048B000FBF718FC7A48405CF02108406946497CC7
:1048C000084369464874487B802108436946487319
:1048D0000A216069FBF706FC7348405C00116946D9
:1048E000497A0843694648720A216069FBF7FAFB76
:1048F0006D48405C00016946897A084369468872C0
:104900000A216069FBF7EEFB06460A21FBF7EAFB8A
:104910006548405C00116946097A08436946087297
:104920000A216069FBF7DEFB06460A21FBF7DAFB8A
:104930005D48405C00016946497A0843694648720F
:10494000C87B802108436946C8736068012806D087
:1049500002280BD0032810D004281CD114E069468B
:10496000087A80210843694608721BE06946087A84
:10497000202108436946087214E06946087A4021FC
:104980000843694608720DE06946087A1021084319
:104990006946087206E06946087AF021884369464C
:1049A000087200BF00BF0A21E069FBF79BFB3F488C
:1049B000405C0007000F6946497C0843694648741B
:1049C0000A21E069FBF78EFB3848405CF021084083
:1049D0006946897C0843694688740A21E069FBF7C7
:1049E00081FB06460A21FBF77DFB3048405C00074F
:1049F000000F6946897C0843694688740A21E0698A
:104A0000FBF770FB06460A21FBF76CFB2748405C6E
:104A1000F02108406946C97C08436946C87464218E
:104A2000E069FBF75FFB06460A21FBF75BFB1F48CB
:104A3000405C0007000F6946C97C08436946C8749A
:104A40006421E069FBF74EFB06460A21FBF74AFBAF
:104A50001648405CF02108406946097D08436946D4
:104A600008757D21C900E069884205D36946087D43
:104A70000121084369460875606A012805D1694625
:104A8000887C802108436946887401AA142100208B
:104A9000FBF708FD06B070BDA00000207E5E000898
:104AA000885E000810270000925E0008A65E0008DD
:104AB00010B52A484469282C00D9282428480068C1
:104AC000401C2749086008460068142804D225487D
:104AD00040692249886140E021480068322808D2B4
:104AE000002C3AD032201E49086000201B49886102
:104AF00033E01B480068322803D100201749886141
:104B00002BE0322016490860174800680019164942
:104B1000086008460068154988421ED300201249E3
:104B200008600E488069401C0C498861084680690D
:104B30000F49884202D90020084988610948406924
:104B4000401C08494861084640690949884202D921
:104B500000200449486101F00DF810BDC803002091
:104B6000540000200804002050000020A08C000009
:104B70009F8601007047000070B505461F48006819
:104B8000A84201D21E4870BD00240BE0E0001B4982
:104B90000858A84205D3601CC0000858A84200D29B
:104BA00002E0641C1C2CF1D300BF1C2C02D1144861
:104BB0004042E8E7002619E0E100104A5258611C23
:104BC000C9000E4B5958511A714308463221FBF760
:104BD0009FFAE100094A5158081AA84205D8E00096
:104BE0001146401840688019CDE7761C322EE3DB71
:104BF000601CC000014940184068C4E78C5D000893
:104C000019FCFFFF10B5002819DA1A4A03071B0F19
:104C1000083B9B089B00D2588307DC0EFF23A34070
:104C20009A438B071B0E8407E40EA3401A43114BD3
:104C30000407240F083CA408A4001A5118E00E4AE7
:104C400003231B02D21883089B00D2588307DC0E73
:104C5000FF23A3409A438B071B0E8407E40EA34057
:104C60001A43054B032424021B198408A4001A517B
:104C700010BD00001CED00E000E100E0FEB50546BF
:104C80000C4600267D20C0000321184A0123009213
:104C9000019102900222A2211548FCF765FE06460A
:104CA000002E01D00020FEBD104800784006400EC6
:104CB0000E490870084640784006400E4870084685
:104CC00080788006800E8870012D0DD1887800F0E4
:104CD0005EF820700549487800F059F86070034983
:104CE000087800F054F8A0700120DCE7A300002051
:104CF00024010020F8B505460C46012D2FD120785F
:104D0000172801DD0020207060783B2801DD00209D
:104D10006070A0783B2801DD0020A07020780A2177
:104D2000FBF7F6F9060120780A21FBF7F1F90E43AB
:104D3000267060780A21FBF7EBF9060160780A21FA
:104D4000FBF7E6F90E436670A0780A21FBF7E0F95D
:104D50000601A0780A21FBF7DBF90E43A6700220BA
:104D600008490870A0784870607888702078C8700A
:104D70007D20C00004230A46A22100900248FCF7CF
:104D800035FDF8BDA3000020240100207047014636
:104D900008110A2250430A07120F8018C0B2704748
:104DA000704710B5FCF7F0FEFDF714FC10BD30B5F0
:104DB00095B01A20099001200C900E9010200D90B3
:104DC0000F900120109002201190002112910521D6
:104DD000C90413910021149109A8FDF725F90028B1
:104DE00001D0FBF794FC07200590022006900020DC
:104DF00007900890012105A8FCF7D2FF002801D0F8
:104E0000FBF785FC2120019000200390049001A86D
:104E1000FCF71EFF002801D0FBF779FCFDF78AF8AC
:104E200005467D21C900FBF75DF90446FDF7B6FB99
:104E30000420FDF79FFB00221146501EFCF7FEFEEA
:104E400015B030BD194800680121084317490860B2
:104E500008464068164908401449486008460068FA
:104E60001449084011490860084600680121890476
:104E700088430E490860084640683F21090488437A
:104E80000A4948600846C06A00090001C86208462D
:104E9000006BFF2114318843044908630846406BC6
:104EA00040084000486300208860704700100240BE
:104EB0000CB8FF08FFFFF6FE10B50248FDF7ABFD8A
:104EC00010BD00008001002010B500220268204BB8
:104ED000984202D01F4B984205D170241346A34339
:104EE0001A464B681A431A4B98420ED0194B9842F7
:104EF0000BD0194B984208D0184B984205D0184B4C
:104F0000984202D0174B984206D10324240213463C
:104F1000A3431A46CB681A4380241346A3434C6923
:104F200023431A4602608B68C3620B688362084B96
:104F3000984208D0094B984205D0094B984202D0BC
:104F4000084B984201D10B6903630123436110BDF3
:104F5000002C0140000400400020004000400140BF
:104F6000004401400048014030B5002301248C403A
:104F70002346046A9C430462046A15468D402C4310
:104F8000046230BD70B50C4600218168FF263602F0
:104F90000D46B54329461D0215432543294381602B
:104FA00070BD10B50A460021816870240B46A343EA
:104FB0001946072313431943816010BD70B50B4692
:104FC000144600210022026A056A6D086D00056220
:104FD0008169F0260D46B5432946250129430A2655
:104FE0001546B5432A4615461D432A46816102628D
:104FF00070BD0000F0B50C4600210025066A760859
:10500000760006628169056A134EB04205D0134EE0
:10501000B04202D0124EB04201D1012600E000267B
:10502000002E05D0890889000E461643314601E05E
:1050300001263143F0260F46B74339461E01F027BB
:105040003E4031430A262F46B7433D46264035436E
:1050500081610562F0BD0000002C014000040040A9
:105060000040014070B50B46144600210022056A3D
:105070001026B54305628169026A0F2636030D4684
:10508000B543294625032943A0261546B5432A469C
:105090001D012A438161026270BDF0B50C460021FA
:1050A0000025066A1027BE4306628169056A032649
:1050B00036020F46B7433946160231430F263603F0
:1050C0000F46B74339461E030F273F033E40314387
:1050D000A0262F46B7433D462601A0273E40354334
:1050E00081610562F0BDF0B50C4600210025066A1D
:1050F000FF270137BE430662C169056A8908890036
:105100000E4616433146F0260F46B74339461E0178
:10511000F0273E403143052676022F46B7433D46F1
:10512000260205277F023E403543C1610562F0BD7E
:10513000F0B50C4600210025066A01273F03BE4357
:105140000662C169056A032636020F46B74339462F
:10515000160231430F2636030F46B74339461E0366
:105160000F273F033E403143052676032F46B743C2
:105170003D46260305277F033E403543C161056256
:10518000F0BD000010B5EF4800688002C00F002895
:1051900000D110BDEB4800684002C00F002834D198
:1051A000E9480068002830D01020FBF755FB0028A4
:1051B00019D0E6480068FBF707FCE549884224D986
:1051C0000020E049C863084600680121890588433A
:1051D0004018DC4908601020DE490860FCF726FA18
:1051E000DA49086011E00020C043FBF735FB0028D6
:1051F00004D1FBF7E9FBD849884202D90020D24903
:105200000860FCF713FAD1490860CE4800684002F4
:10521000C00F002871D00020C043FBF71DFB0446DF
:10522000002C12D1CB48006801280ED1FCF7FEF902
:10523000C6490860C348C06B401CC249C8630846E1
:10524000808F8007800FC86316E0002C14D1C148FE
:105250000068022810D1FCF7E9F9BC490860B94898
:10526000C06B002805D0B748C06B401EB549C86365
:1052700002E00320B349C863002C71D1B54800682F
:105280000428FAD1FCF7D2F9B0490860AD48C06BE8
:10529000002806D001281FD0022848D0032866D154
:1052A00051E0A848006B0A30A6490863086B0A2140
:1052B000FAF718FF032907D9A249086B1421FAF756
:1052C00011FFA048016306E09E49086B1E21FAF712
:1052D00009FF9C48016352E09A48006B142813D3DD
:1052E0009849086B0A21FAF7FDFE032906D2954872
:1052F000006B401C9349086318E015E19148006B6E
:10530000C01E9049086311E08E49086B0A21FAF724
:10531000E9FE092905D28B48006B401C89490863C6
:1053200004E08848006B09388649086327E085480F
:10533000406B0A3083494863486B3C21FAF7D2FE40
:10534000804841631BE07F49486B0A21FAF7CAFE97
:10535000092906D27B48406B401C7A49486305E026
:1053600019E07848406B09387649486307E075488A
:1053700000680121890588437249086000BF00BFA9
:105380007048008E754908706E48808E4870012004
:10539000FFF7B0FC93E0002CFCD16E4800680828B1
:1053A000F8D1FCF743F9694908606648C06B0028EA
:1053B00006D0012821D0022846D003286CD153E022
:1053C0006048006B0A2805D35E48006B0A385D49C7
:1053D000086311E05B49086B0A21FAF783FE032991
:1053E00005D95848006B0A305649086304E055480F
:1053F000006B14305349086356E05249086B0A2188
:10540000FAF770FE002905D04E48006B401E4D494A
:10541000086318E04B48006B14280AD34949086B0D
:105420000A21FAF75FFE0A214843C01C4549086378
:1054300009E04449086B0A21FAF754FE0A2148435F
:105440000930404908632FE03E48406B0A2805D3E5
:105450003C48406B0A383B49486304E03948406B9C
:105460003230384948631FE03649486B0A21FAF761
:1054700039FE002905D03348406B401E314948634E
:1054800009E03049486B0A21FAF72CFE0A2148430B
:1054900009302C49486307E02A4800680121890542
:1054A00088432849086000BF00BF2648008E2B496A
:1054B00008702448808E48700120FFF71BFC2348A9
:1054C0000068FBF781FA2649884206D91D48006822
:1054D0000121890588431B490860102C10D11D4803
:1054E000006800280CD11849086016480068A1041B
:1054F000884314490860FCF799F81449086010E0E3
:105500007F208001FBF7A8F9002806D00D4800682D
:105510000121890588430B490860FCF787F80B498E
:1055200008600C4804600AE00C490120FFF7A6FB64
:105530000A4800780349086308484078486300BF78
:1055400027E60000C803002074000020700000203F
:105550007017000078000020B80B0000A9000020A0
:1055600030750000818CC907C90F002908D0016877
:105570004968012252049143826A114302685160D2
:105580000222416A1140002907D001684968D2030C
:105590009143C26A1143026851600422416A11407A
:1055A000002907D00168496812049143026B114336
:1055B000026851600822416A1140002907D0016841
:1055C000496812039143426B1143026851601022F3
:1055D000416A1140002907D001688968120291438D
:1055E000826B1143026891602022416A11400029B8
:1055F00007D00168896812029143C26B11430268A7
:1056000091604022416A1140002915D00168496823
:1056100092039143026C114302685160012212050A
:10562000016C914208D101684968032252059143F7
:10563000426C1143026851608022416A1140002986
:1056400007D00168496812039143826C11430268D4
:105650005160704701460020C866202269204254EC
:105660006A20425400BF00226820425400BF00203C
:10567000704770B505466C6A00215A2001535220CC
:1056800001532046FDF72CFB70BD01680968FF221D
:105690002132914302681160016889684908490014
:1056A0000268916020226A210A54704710B50446AE
:1056B0002068006840218843216808602021692013
:1056C00001552046FDF7CEFD002010BDF8B504467B
:1056D0005C20075B6A20005D222836D12068858C1B
:1056E00001210903A06888420AD12069002807D156
:1056F000666D284638403080606D801C606505E02E
:10570000F8B22840626D511C616510705A20005B30
:10571000401E81B25A200153002914D1206800682C
:10572000FF21213188432168086020688068400893
:1057300040002168886020216A2001552046FDF73D
:10574000F5FC0020F8BD0020FCE7206880690821F6
:105750000843216888610220F4E70000FEB5044692
:105760000025102600270020029001902169A068E2
:10577000084361690843E1690843054620680068F9
:105780006849084028432168086020684068032170
:1057900009038843E168084321684860216AA069D9
:1057A00008430546206880680B2109028843284386
:1057B0002168886000BF5C492068884217D15B4837
:1057C000006B8007800F002806D0012808D002282F
:1057D00008D0032808D101E0002607E0022605E0F2
:1057E000042603E0082601E0102600BF06E0504929
:1057F0002068884201D1002600E0102600BF012168
:10580000C903E069884249D1042E20D004DC002E6F
:1058100007D0022E32D111E0082E25D0102E2DD126
:105820002DE0FCF78DFB40006168490840180090AE
:105830006168FAF757FC80B2029023E061684A0879
:105840003C4BD018FAF74EFC80B202901AE0FCF7FD
:1058500089FB400061684908401800906168FAF7C8
:1058600041FC80B202900DE061684A0801231B04EC
:10587000D018FAF737FC80B2029003E000BF012095
:10588000019000BF00BF2C490298084007460298CB
:105890000007400F07432068C76040E0042E21D076
:1058A00004DC002E07D0022E34D111E0082E26D0C1
:1058B000102E2FD12FE0FCF743FB616849084018F8
:1058C00000906168FAF70EFC80B22168C86025E09C
:1058D00061684A08194BD018FAF704FC80B22168B5
:1058E000C8601BE0FCF73EFB616849084018009067
:1058F0006168FAF7F7FB80B22168C8600EE0616862
:105900004A080123DB03D018FAF7ECFB80B22168C8
:10591000C86003E000BF0120019000BF00BF0198F4
:10592000FEBD0000F369FFFF003801400010024097
:10593000004400400024F400F0FF000000127A0050
:1059400001466920405C212831D15220405A00286C
:105950000DD108680068802398430B6818600868B8
:105960000068402318430B6818600020704701232B
:105970001B03886898420CD10869002809D1CA6CB9
:105980001088C005C00D0B681885C86C801CC864E1
:1059900005E0CB6C581CC86418780B681885522039
:1059A000405A401E83B2522043520020DEE70220BC
:1059B000DCE7FFB581B004460D4617460A9E24E099
:1059C000701C002821D0002E05D0FBF72FFE049973
:1059D000401AB04219D920680068FF21A1318843DC
:1059E000216808602068806840084000216888605D
:1059F0002021692001556A20015500BF002168203F
:105A0000015500BF032005B0F0BD2068C0692840E3
:105A1000A84201D1012000E00020B842D0D00020EF
:105A2000F1E7000010B50248FDF77EF910BD000057
:105A3000C001002010B50248FDF776F910BD000046
:105A40003002002010B54648017E408B081AC4B2CF
:105A5000002C00D110BD0C2C7DDD601E4149085C7E
:105A60000A287BD108460078542834D1084640786B
:105A7000692830D1084680786D282CD10846C07836
:105A8000652828D108460079202824D10846407985
:105A900030380A214843334989793039401832492E
:105AA00008703048007A30380A2148432D49497A35
:105AB000303940182C4948702A48C07A30380A21B9
:105AC00048432849097B303940182749887001200C
:105AD000FFF710F933E02348007843282FD12148FD
